:020000040800F2
:10000000004002207D140008510C0008530C000829
:1000100000000000000000000000000000000000E0
:10002000000000000000000000000000550C000867
:100030000000000000000000570C0008590C0008E8
:10004000CD140008CD140008CD140008CD1400080C
:10005000CD140008CD140008CD140008CD140008FC
:10006000CD140008610C0008710C0008890C000810
:10007000CD140008CD140008CD140008CD140008DC
:10008000CD140008CD140008CD140008C10C0008E0
:10009000D10C0008E10C0008050D0008CD14000883
:1000A000290D00084D0D0008CD140008CD140008DE
:0C00B0005D0D00086D0D0008CD14000867
:1000BC0010B5064C2378002B07D1054B002B02D032
:1000CC00044800E000BF0123237010BDE0000020B5
:1000DC0000000000745F0008044B10B5002B03D027
:1000EC000349044800E000BF10BDC04600000000FA
:1000FC00E4000020745F0008002243088B4274D394
:10010C0003098B425FD3030A8B4244D3030B8B420C
:10011C0028D3030C8B420DD3FF22090212BA030C15
:10012C008B4202D31212090265D0030B8B4219D3F6
:10013C0000E0090AC30B8B4201D3CB03C01A524116
:10014C00830B8B4201D38B03C01A5241430B8B425E
:10015C0001D34B03C01A5241030B8B4201D30B0347
:10016C00C01A5241C30A8B4201D3CB02C01A52416E
:10017C00830A8B4201D38B02C01A5241430A8B4231
:10018C0001D34B02C01A5241030A8B4201D30B021A
:10019C00C01A5241CDD2C3098B4201D3CB01C01A34
:1001AC00524183098B4201D38B01C01A524143093E
:1001BC008B4201D34B01C01A524103098B4201D32C
:1001CC000B01C01A5241C3088B4201D3CB00C01A99
:1001DC00524183088B4201D38B00C01A5241430811
:1001EC008B4201D34B00C01A5241411A00D2014636
:1001FC00524110467047FFE701B5002000F0F0F8BF
:10020C0002BDC0460029F7D076E7704703460B4382
:10021C007FD4002243088B4274D303098B425FD3F3
:10022C00030A8B4244D3030B8B4228D3030C8B421F
:10023C000DD3FF22090212BA030C8B4202D3121205
:10024C00090265D0030B8B4219D300E0090AC30BDA
:10025C008B4201D3CB03C01A5241830B8B4201D387
:10026C008B03C01A5241430B8B4201D34B03C01A70
:10027C005241030B8B4201D30B03C01A5241C30AE8
:10028C008B4201D3CB02C01A5241830A8B4201D359
:10029C008B02C01A5241430A8B4201D34B02C01A43
:1002AC005241030A8B4201D30B02C01A5241CDD2E8
:1002BC00C3098B4201D3CB01C01A524183098B4233
:1002CC0001D38B01C01A524143098B4201D34B011C
:1002DC00C01A524103098B4201D30B01C01A52417F
:1002EC00C3088B4201D3CB00C01A524183088B4206
:1002FC0001D38B00C01A524143088B4201D34B00EF
:10030C00C01A5241411A00D2014652411046704760
:10031C005DE0CA0F00D04942031000D34042534065
:10032C0000229C4603098B422DD3030A8B4212D325
:10033C00FC22890112BA030A8B420CD38901921157
:10034C008B4208D3890192118B4204D389013AD094
:10035C00921100E08909C3098B4201D3CB01C01A69
:10036C00524183098B4201D38B01C01A524143097C
:10037C008B4201D34B01C01A524103098B4201D36A
:10038C000B01C01A5241C3088B4201D3CB00C01AD7
:10039C00524183088B4201D38B00C01A5241D9D2EF
:1003AC0043088B4201D34B00C01A5241411A00D270
:1003BC000146634652415B10104601D34042002B6C
:1003CC0000D54942704763465B1000D3404201B5EB
:1003DC00002000F005F802BD0029F8D016E77047A0
:1003EC007047C046002B11D1002A0FD1002900D133
:1003FC00002802D00021C943080007B4024802A11A
:10040C004018029003BDC046D9FFFFFF03B46846F5
:10041C0001B5029800F006F8019B9E4602B00CBC98
:10042C007047C046F0B557464E464546DE46E0B5E9
:10043C0004000D009246994683B08B4230D82DD0E3
:10044C004946504600F0BAF829000600200000F09A
:10045C00B5F8331A9846203B34D49B4653465A463B
:10046C00934042461F00534693401E00AF423BD878
:10047C00AF4200D179E05B46A41BBD41002B00DAF2
:10048C0076E0002200230092019301235A46934008
:10049C000193012342469340009329E08242CFD935
:1004AC0000220023009201930C9B002B01D01C60B6
:1004BC005D600098019903B0F0BCBB46B246A946FA
:1004CC00A046F0BD42469B4620239B1A5246DA407A
:1004DC00414613004A468A40170042461F43534682
:1004EC0093401E00AF42C3D9002200230092019317
:1004FC004346002BD8D0FB0772081A4346467B08AC
:10050C000EE0AB4201D1A2420CD8A41A9D410120AD
:10051C0024196D410021013E24184D41002E06D0B6
:10052C00AB42EED9013E24196D41002EF8D1009852
:10053C0001995B4600196941002B24DB2B005A46BC
:10054C004446D3402A00E2401C005B461500002BB9
:10055C002ADB26009E40330026004746BE40320070
:10056C00801A9941009001919EE7A342BCD882E782
:10057C004246202300219B1A002200910192012265
:10058C00DA40019285E7424620239B1A2A00464610
:10059C009A402300F340444613432A00E2401C00D7
:1005AC005B461500002BD4DA42462F002023260090
:1005BC0097409B1ADE403B003343CDE710B5002932
:1005CC0003D100F007F8203002E0080000F002F838
:1005DC0010BDC0461C2101231B04984201D3000C02
:1005EC0010391B0A984201D3000A08391B0998429A
:1005FC0001D30009043902A2105C40187047C046B0
:10060C0004030202010101010000000000000000CF
:10061C0000B583B0154B996B012211439963996B0B
:10062C000A400092009A996B0222114399639B6BCA
:10063C001A400192019B00220021092000F0B2FF18
:10064C00092000F0DFFF002200210A2000F0AAFFA1
:10065C000A2000F0D7FF002200210B2000F0A2FF9F
:10066C000B2000F0CFFF03B000BDC04600100240CD
:10067C0010B51048104B0360002343608360C360C7
:10068C00037443748374102242610F3A8261022115
:10069C00C161016242628262C2620263436383632C
:1006AC00C36301F0B5F9002800D110BD00F0E4F9E6
:1006BC00FBE7C046000100200064004010B5104864
:1006CC00104B0360002343608360C3600374437466
:1006DC008374102242610F3A82610221C16101626E
:1006EC0042628262C262026343638363C36301F04A
:1006FC008FF9002800D110BD00F0BEF9FBE7C04611
:10070C00640100200068004010B59CB00400142265
:10071C00002117A805F0FBFB4C22002104A805F0D2
:10072C00F6FB2368454A934204D0454A934243D092
:10073C001CB010BD80239B04049304A802F062FD3E
:10074C0000282BD13F4A136801331360012B28D0AA
:10075C003D4A516B082319435163526B134001936B
:10076C00019B0323179302221892002219921A92CA
:10077C001B9317A9354801F00DFB00220121152010
:10078C0000F010FF152000F03DFF00220121162083
:10079C0000F008FF162000F035FFC9E700F06CF9F7
:1007AC00D0E7294BDA6B802149010A43DA63DB6B12
:1007BC000B400093009BCBE780239B04049304A87D
:1007CC0002F020FD00282BD11E4A13680133136060
:1007DC00012B28D01C4A516B022319435163526BD5
:1007EC001A400392039A60221792189300231993CC
:1007FC001A9303331B9317A9154801F0CBFA002267
:10080C000121152000F0CEFE152000F0FBFE002289
:10081C000121162000F0C6FE162000F0F3FE87E73B
:10082C0000F02AF9D0E7084BDA6B802149010A4322
:10083C00DA63DB6B0B400293029BCBE70064004056
:10084C0000680040FC00002000100240000C00502A
:10085C0000040050F0B5D6464F464646C0B58AB0A7
:10086C001422002105A805F052FB3E4B596B0422C3
:10087C0011435963596B0A400092009A596B20221C
:10088C0011435963596B0A400192019A5A6B012525
:10089C002A435A635A6B2A400292029A596B0222DB
:1008AC0011435963596B0A400392039A596B0822FE
:1008BC00114359635B6B1A400492049BE02424029D
:1008CC00294E00222100300001F024FB274B9A46D0
:1008DC00A023DB05984600225146180001F01AFBB4
:1008EC00234B9946234F00221900380001F012FBCC
:1008FC000594069500240794089405A9300001F08E
:10090C0049FA1D4B05930694079405A9404601F03E
:10091C0041FA5346059306950794089405A9404659
:10092C0001F038FA4B46059306950794089405A9EF
:10093C00380001F02FFA114B05930694079405A982
:10094C00380001F027FAC02305930694079405A9F3
:10095C00300001F01FFA0AB0E0BCBA46B146A84616
:10096C00F0BDC0460010024000080050108000008E
:10097C008B100000000400500307000014800000DE
:10098C0010B51448144B0360144B43600023836070
:10099C000122C260036143618361C361036201F0A0
:1009AC0005FB00280CD10B48002101F073FE002838
:1009BC0009D10848002101F099FE002806D110BD8C
:1009CC0000F05AF8EFE700F057F8F2E700F054F8AF
:1009DC00F5E7C046C801002000580040BC7D7010EF
:1009EC0010B59AB004001422002115A805F08FFA56
:1009FC004C22002102A805F08AFA22681B4B9A426D
:100A0C0001D01AB010BD4023029302A802F0FAFBE9
:100A1C00002828D1164C626B02231A436263626B66
:100A2C0013400093009BC023DB01159312231693F4
:100A3C000023179318930633199315A90D4801F049
:100A4C00A9F9E36B8022D2031343E363E36B1340F6
:100A5C000193019B00220321182000F0A3FD182014
:100A6C0000F0D0FDCDE700F007F8D3E700580040C8
:100A7C00001002400004005072B6FEE700B595B0BD
:100A8C003C22002105A805F042FA1022002101A801
:100A9C0005F03DFA8020800001F0C2FF2123059370
:100AAC0080235B0206938023DB030C9302230D93BC
:100ABC0001330E930D330F931033109380239B024D
:100ACC00119380239B04129380239B05139305A8F9
:100ADC0001F0D0FF00280ED107230193053B0293B0
:100AEC00002303930493022101A802F0ABFA00281F
:100AFC0003D115B000BDFFF7BFFFFFF7BDFF10B569
:100B0C0000F00CFDFFF7BAFFFFF7A4FEFFF780FD26
:100B1C00FFF7AEFDFFF7D2FDFFF732FF00F018F83C
:100B2C0000F03CFA00F072FA00F0A8FA00F0C4FAF7
:100B3C0005F066F800F028F900F040F900F07EF9B5
:100B4C0000F098F905F0E1F905F0E0F9FCE7000098
:100B5C0010B51148114B036082235B0043600023E6
:100B6C008360E022D200C260036143618022920064
:100B7C008261C361036243628362FA3AFF3AC262E2
:100B8C0003630833436302F0BBFC002800D110BDA3
:100B9C00FFF772FFFBE7C0461C020020003001404B
:100BAC0010B588B004001422002103A805F0AFF999
:100BBC002268144B9A4201D008B010BD124B1A6C2B
:100BCC00802149010A431A641A6C0A400192019A65
:100BDC00596B0122114359635B6B1A400292029BC1
:100BEC00E0230393DE3B0493A02003A9C00501F08E
:100BFC00D1F800220321192000F0D4FC192000F0B8
:100C0C0001FDD9E7003001400010024000B583B06F
:100C1C000B4B196C012211431964196C0A40009298
:100C2C00009ADA6B802149050A43DA63DB6B0B40CF
:100C3C000193019BC020C00000F0A8FC03B000BDD4
:100C4C0000100240FEE7FEE77047704710B500F059
:100C5C0079FC10BD10B5024800F028FE10BDC0464E
:100C6C00B003002010B5034800F020FE024800F04D
:100C7C001DFE10BD100400207004002010B50848A3
:100C8C0000F014FE074800F011FE074800F00EFEBD
:100C9C00064800F00BFE064800F008FE10BDC046EA
:100CAC00D00400203005002090050020F005002025
:100CBC005006002010B5024802F06CFD10BDC04675
:100CCC008002002010B5024802F064FD10BDC04641
:100CDC00CC02002010B5054802F05CFD044800F081
:100CEC0094FF044800F091FF10BDC046180300208B
:100CFC00000100206401002010B5054802F04AFDF7
:100D0C00044800F082FF044800F07FFF10BDC0468D
:100D1C0064030020000100206401002010B5074B83
:100D2C001B689A69E023DB001A4203D0034801F0E8
:100D3C0073FC10BD014801F09FF9FAE7C8010020CF
:100D4C0010B5024802F060FC10BDC0461C02002029
:100D5C0010B5024802F092FF10BDC046B00600204C
:100D6C0010B5054802F08AFF044802F087FF0448DA
:100D7C0002F084FF10BDC04644070020D8070020B5
:100D8C006C0800207047000010B50948094B03603F
:100D9C00094B4360002383606422C260036183615A
:100DAC0002F00EFE002800D110BDFFF765FEFBE738
:100DBC008002002000200040FF18000000B589B020
:100DCC001022002104A805F0A2F80C22002101A891
:100DDC0005F09DF81648174B0360174B4360002332
:100DEC008360C822C26003614361836102F0E8FD45
:100DFC00002813D180235B0104930D4804A902F051
:100E0C001BFE00280DD1002301930393084801A970
:100E1C0002F096FE002807D109B000BDFFF72CFEAA
:100E2C00E8E7FFF729FEEEE7FFF726FEF4E7C046FA
:100E3C00CC02002000400140FF18000010B50A4809
:100E4C000A4B03600A4B436000238360FA22520072
:100E5C00C26003614361836102F0B2FD002800D1DE
:100E6C0010BDFFF709FEFBE718030020004401400A
:100E7C00FF18000010B50A480A4B03600A4B436088
:100E8C0000238360FA229200C26003614361836194
:100E9C0002F096FD002800D110BDFFF7EDFDFBE739
:100EAC006403002000480140FF18000010B598B002
:100EBC0004004C22002105A805F029F82368324AC9
:100ECC0093420AD0314A93421AD0314A934235D0D8
:100EDC00304A934245D018B010BD2F4B1A6C80216C
:100EEC0009020A431A641B6C0B400193019B0022FC
:100EFC000321132000F056FB132000F083FBEAE7DC
:100F0C008023DB03059305A802F07CF9002812D19D
:100F1C00214B1A6C802149020A431A641B6C0B404A
:100F2C000293029B00220321142000F03BFB1420AF
:100F3C0000F068FBCFE7FFF79FFDE9E7164B1A6C53
:100F4C00802189020A431A641B6C0B400393039B98
:100F5C0000220121152000F025FB152000F052FB8A
:100F6C00B9E70D4B1A6C8021C9020A431A641B6C39
:100F7C000B400493049B00220121162000F012FB6D
:100F8C00162000F03FFBA6E7002000400040014087
:100F9C0000440140004801400010024010B51948BF
:100FAC00194B036096239B01436000238360C3604D
:100FBC0003610C2242618361C361036243628362F9
:100FCC0003F0E0FA002811D10E48002103F05EFB7B
:100FDC0000280ED10B48002103F07EFB00280BD11A
:100FEC00084803F033FB002809D110BDFFF744FD7E
:100FFC00EAE7FFF741FDEDE7FFF73EFDF0E7FFF70E
:10100C003BFDF2E7B00600200044004010B5194843
:10101C00194B036096239B01436000238360C360DC
:10102C0003610C2242618361C36103624362836288
:10103C0003F0A8FA002811D10E48002103F026FB7A
:10104C0000280ED10B48002103F046FB00280BD1E1
:10105C00084803F0FBFA002809D110BDFFF70CFD7E
:10106C00EAE7FFF709FDEDE7FFF706FDF0E7FFF70D
:10107C0003FDF2E7440700200048004010B50C487F
:10108C000C4B036096239B01436000238360C36079
:10109C0003610C2242618361C36103624362836218
:1010AC0003F070FA002800D110BDFFF7E5FCFBE758
:1010BC00D80700200050004010B50C480C4B0360C2
:1010CC0096239B01436000238360C36003610C2261
:1010DC0042618361C36103624362836203F052FA2B
:1010EC00002800D110BDFFF7C7FCFBE76C080020FF
:1010FC00003C014030B5A1B00400142200211BA813
:10110C0004F005FF4C22002108A804F000FF23681E
:10111C00C04A93420DD0C04A934200D16BE0BF4A03
:10112C00934200D1C9E0BE4A934200D11BE121B0E9
:10113C0030BD0223089308A802F064F8002851D1AE
:10114C00B84BDA6B802189020A43DA63DA6B0A4006
:10115C000092009A596B0122114359635B6B134047
:10116C000193019B0C231B930A3B1C9300251D959B
:10117C001E951F92A0201BA9C00500F00BFEAA48CB
:10118C00AA4B0360342343608560C5604C33036114
:10119C0045618561C561056200F0A4FA002824D17F
:1011AC008022A14BA3509C62A148A24B0360352323
:1011BC004360253B83600023C3600261436183610C
:1011CC00C361036200F08EFA002811D1984BE367DB
:1011DC009C62002201211C2000F0E4F91C2000F08C
:1011EC0011FAA4E7FFF748FCAAE7FFF745FCD7E79D
:1011FC00FFF742FCEAE70423089308A802F002F880
:10120C00002851D1874BDA6B8021C9020A43DA637B
:10121C00DA6B0A400292029A596B0222114359630B
:10122C005B6B13400393039BC0231B011B931C920A
:10123C0000251D951E9504231F931BA97E4800F0C5
:10124C00A9FD7E487E4B0360362343608560C560F4
:10125C004A33036145618561C561056200F042FA5C
:10126C00002824D18022754BA3509C627548764B84
:10127C00036037234360273B83600023C360026114
:10128C0043618361C361036200F02CFA002811D121
:10129C006C4BE3679C62002201211D2000F082F957
:1012AC001D2000F0AFF942E7FFF7E6FBAAE7FFF7D6
:1012BC00E3FBD7E7FFF7E0FBEAE75A4BDA6B802159
:1012CC0049000A43DA63DA6B0A400492049A596BB8
:1012DC000822114359635B6B1A400592059B0C2342
:1012EC001B930A3B1C9301331F931BA9574800F017
:1012FC0051FD5748574B03604A23436000238360DA
:10130C00C3608022026143618361C361036200F0A8
:10131C00E9F9002821D180224D4BA3509C624E4804
:10132C004E4B03604B2343603B3B83600023C36005
:10133C00026143618361C361036200F0D3F9002849
:10134C000ED1454BE3679C62002201211D2000F069
:10135C0029F91D2000F056F9E9E6FFF78DFBDAE7D5
:10136C00FFF78AFBEDE72F4BDA6B802189000A43EC
:10137C00DA63DA6B0A400692069A596B0222114321
:10138C0059635B6B13400793079BC0239B001B9314
:10139C001C9208231F931BA9274800F0FBFC304824
:1013AC00304B03604C23436000238360C360802276
:1013BC00026143618361C361036200F093F9002809
:1013CC0021D18022264BA3509C622748274B0360D7
:1013DC004D2343603D3B83600023C3600261436146
:1013EC008361C361036200F07DF900280ED11E4BAE
:1013FC00E3679C62002201211D2000F0D3F81D2020
:10140C0000F000F993E6FFF737FBDAE7FFF734FB60
:10141C00EDE7C0460044004000480040005000404A
:10142C00003C014000100240B003002008000240C4
:10143C00100400201C000240000400507004002026
:10144C0030000240D004002044000240000C005048
:10145C003005002058000240900500206C0002402E
:10146C00F0050020800002405006002008040240D5
:10147C000D488546FFF786FC0C480D490D4A0023A4
:10148C0002E0D458C4500433C4188C42F9D30A4A2D
:10149C000A4C002301E013600432A242FBD304F097
:1014AC003FFDFFF72CFBFEE7004002200000002070
:1014BC00E000002020610008E00000200816002059
:1014CC00FEE7000010B50400114B1978002901D17A
:1014DC00012010BDFA208000FEF70EFE01000D4B1E
:1014EC001868FEF709FE00F099F800280DD1032CBE
:1014FC0001D90120EDE7013000222100404200F02B
:10150C0051F8054B1C600020E3E70120E1E7C046E1
:10151C0004000020000000200800002010B5084A3C
:10152C00116880235B000B4313600320FFF7CAFF95
:10153C00041E02D00124200010BDFFF767FBFAE760
:10154C0000200240034B1B78034A11685B181360A0
:10155C007047C0460400002000090020014B1868A9
:10156C007047C0460009002070B50400FFF7F6FF75
:10157C000500631C02D0044B1B78E418FFF7EEFF48
:10158C00401BA042FAD370BD04000020034A13682C
:10159C0003490B40034313607047C04600000140F1
:1015AC00FFF9FFFF70B5002811DB8308134DC03322
:1015BC009B005C5903221040C000FC321600864090
:1015CC00B44389010A40824022435A5170BD0F2313
:1015DC000340083B9B0806339B00094A944663442E
:1015EC005C6803221040C000FC3215008540AC43FF
:1015FC0089010A40824022435A60E7E700E100E09B
:10160C0000ED00E0002805DB1F2318401E3B834043
:10161C00014A13607047C04600E100E001388023A6
:10162C005B0498420FD2094A50600948036A1B02B6
:10163C001B0AC02109060B43036200239360073386
:10164C001360002070470120FCE7C04610E000E06A
:10165C0000ED00E010B504000268144B9A4215D856
:10166C00436C9B089B0012498C4663448364FF20A7
:10167C00104008381421FEF73FFD03000D4AE264C8
:10168C001F20184001238340236510BD436C9B0829
:10169C009B0009498C4663448364FF201040083842
:1016AC001421FEF729FDC31DE8E7C04607040240DC
:1016BC0000080240800802401C08024042687F2358
:1016CC001340064A9A1892004265054A8265013B0E
:1016DC0003221A4001239340C36570473F820010D8
:1016EC004009024070B5041E5CD005682E4B9D422B
:1016FC0041D814212D4BE818FEF7FEFC80006064E5
:10170C002B4B236425230222E2542B68294A1340D5
:10171C002B6021680A68A368E068034320690343CF
:10172C0060690343A0690343E0690343206A0343F0
:10173C0013430B602000FFF78DFFA2688023DB01B1
:10174C009A4222D06168A26C7F230B401360E36C39
:10175C00226D5A606368013B032B19D90023636522
:10176C00A365E3650023E36325220121A154013A1B
:10177C00A354002070BD14210F4BE818FEF7BCFCDD
:10178C00800060640D4B2364BCE700236360D9E7E1
:10179C002000FFF793FF636D00221A60A36DE26DCA
:1017AC005A60DFE70120E5E707040240F8FFFDBFC0
:1017BC00000002400F80FFFFF8FBFDBF0004024059
:1017CC00002834D02523C35C022B06D00423C3632A
:1017DC0020330022C25401207047026813680E2186
:1017EC008B431360826C136812490B4013600168C1
:1017FC000A6801239A430A60416C1C220A40016C5E
:10180C0093404B60C36C026D5A60436D002B06D045
:10181C001A6808490A401A60836DC26D5A60252304
:10182C000122C254013B0022C2540020D4E7012003
:10183C00D2E7C046FFFEFFFF10B52523C35C022B89
:10184C0003D00423C363012010BD026813680E216A
:10185C008B43136001680A6801239A430A60816C08
:10186C000A68114C22400A60416C1C220A40016C2F
:10187C0093404B60C36C026D5A60436D002B05D0D6
:10188C001A6822401A60836DC26D5A6025230122AA
:10189C00C254013B0022C254836B002B02D09847E8
:1018AC000020D1E70020CFE7FFFEFFFF70B5036CEF
:1018BC00196804682568426C1C23134004229A4062
:1018CC00114214D06A0712D523689B0603D42368EF
:1018DC00042293432360436C1C221A40016C0423A2
:1018EC0093404B60036B002B00D0984770BD0222D5
:1018FC009A40114226D0AA0724D523689B0606D409
:10190C0023680A22934323602523093AC2540268B0
:10191C001B4B9A420ED9436C1C221A400223934053
:10192C00184A536024230022C254C36A002BDDD012
:10193C009847DBE7436C1C221A4002239340124A5F
:10194C005360EFE708229A401142CFD02D07CDD536
:10195C0023680E2293432360436C0E321A40016CB1
:10196C0001231C0094404C60C36325228354233311
:10197C000022C254436B002BB8D09847B6E7C04640
:10198C008000024000040240000002402523C05C9D
:10199C00C0B2704730B50468184B9C4223D018492C
:1019AC0001648022A358174D2B40456B2D042B430B
:1019BC00A3500B00703343640568AB58124C2340A2
:1019CC00846B24062343AB500B00B0338364D833B1
:1019DC00C36498239B00CB1803659E239B00CB18F4
:1019EC0043650B0003E00949DAE7002204C3D42263
:1019FC0092008A189A42F8D830BDC0460068004060
:101A0C0000B40040FFFFE0FFFFFFFFF050B70040C5
:101A1C0070B5041E00D1E1E05C23C35C002B19D02F
:101A2C002268936910218B439361FFF797FD0500A2
:101A3C00226893691B0713D5FFF790FD401B0A28FA
:101A4C00F6D9236E0122134323665C230232E2543F
:101A5C00012070BD5D330022C254FEF755FEDFE756
:101A6C00936901210B439361FFF778FD0500226810
:101A7C009369DB070DD4FFF771FD401B0A28F6D9DB
:101A8C00236E0122134323665C230232E2540120AD
:101A9C00DFE7936902210B4393612268504B9A4212
:101AAC0043D0237C012B44D02268936940210B4303
:101ABC009361637C012B42D02268936949490B40A6
:101ACC009361A37C012B41D02268916980235B0137
:101ADC000B4393612268936943490B40A1680B4304
:101AEC00936122689369A4218B43936122681369E3
:101AFC0094398B431361E368012B2DD0002B30D02C
:101B0C00022B54D02268936980210B439361226885
:101B1C00136970390B431361E368032B21D12268DD
:101B2C00936910310B4393611BE062682F4B1A6071
:101B3C00B7E72268936940218B439361B9E7226828
:101B4C0091698023DB010B439361BAE722689369A7
:101B5C0027490B409361BDE7226893690C390B430D
:101B6C009361A369013B5B06E269013A12021343DC
:101B7C00226A013A13436269013A12042168134341
:101B8C00CB61A268C0239B009A4216D02168C02268
:101B9C008B58E06B03438B502000FFF7FBFE0023B8
:101BAC00A36523665C330122E254002051E72268CE
:101BBC00936920210B439361D3E7A36A013BE26A4B
:101BCC00013A12021343226B013A12011343626A67
:101BDC00013A120421681343CB60D7E7012038E7A0
:101BEC0000640040FFBFFFFFFFFCFFFF00650040EB
:101BFC00FFEFFFFF704770477047704770477047A3
:101C0C0070477047704770477047F8B5DE465746C7
:101C1C004E464546E0B5040003681A6DE0214901C3
:101C2C000A40596D11408B46196D07220A40596DB7
:101C3C0011408A46196D38220A40596D1140894667
:101C4C001A6DF12109040A405E6D16401A6DE021EF
:101C5C0009030A40596D114088465F6D1D6D6A0677
:101C6C0001D57A063BD4EB0501D5FB053CD45B468C
:101C7C00002B46D15346002B4BD14B46002B50D159
:101C8C00AB0501D5BB0554D42B0601D53B0658D466
:101C9C00AB0401D5BB0460D42B0401D53B0464D444
:101CAC006D0409D57F0407D523688022D2011A65FB
:101CBC00236E8022134323664346002B5DD1002EF6
:101CCC0004D023681E65236E33432366236E002BDA
:101CDC005BD1F0BCBB46B246A946A046F8BD40223B
:101CEC001A65FFF78FFFBEE72368D8229A58E021C8
:101CFC0059581140802252001A652000FFF77FFFCF
:101D0C00B5E723685A461A6559462000FFF772FF5B
:101D1C00B0E7236852461A6551462000FFF76BFF67
:101D2C00ABE723684A461A6549462000FFF764FF73
:101D3C00A6E72368802292001A652000FFF75DFF5A
:101D4C00A2E72368D4229A58DC21595811408022EA
:101D5C001A652000FFF752FF9AE723688022920150
:101D6C001A652000FFF74CFF96E7236880221202C9
:101D7C001A652000FFF745FF92E7236842461A6573
:101D8C0041462000FFF740FF99E72000FFF73BFF9B
:101D9C009FE70000F0B5002359E086685F0003243C
:101DAC00BC40A643CC68BC40344384604468944334
:101DBC004E683609012232409A402243426056E076
:101DCC00DE080836B600375805321A4092000F2448
:101DDC009440A7430C69944022003A43325059E096
:101DEC00042600E00026A64034003C43444E183242
:101DFC00920094513768EA433E00AE434C68E402CB
:101E0C0001D53E002E433E4C266067683E001640CE
:101E1C004C68A40201D53E002E43394C66608426E2
:101E2C00A7593E0016404C68A40301D53E002E4332
:101E3C00334C8427E6518026A65932404C68E40383
:101E4C0001D52A0032432E4D80242A5101330C68CF
:101E5C002200DA4053D001229A402500154014424A
:101E6C00F4D04E6803243440013C012C95D94C68C5
:101E7C0003222240032A08D0C4685E000322B24029
:101E8C0094438A68B2402243C2604C6803222240C9
:101E9C00022A95D004685E0003221700B740BC43A9
:101EAC004F683A40B240224302604C68C022920212
:101EBC001442CBD09A0814001834A400104EA75921
:101ECC0003241C40E4000F26A640B743A026F605C9
:101EDC00B04287D00B4EB0420BD00B4EB0420AD062
:101EEC000A4EB04209D00A4EB04200D178E705261E
:101EFC0079E7012677E7022675E7032673E7F0BD3D
:101F0C00001802400004005000080050000C005063
:101F1C0000100050002A01D0816170478162FCE7FB
:101F2C00026893699B0701D50023936203689A6941
:101F3C00D20703D49A6901210A439A61704730B5DC
:101F4C00CB0709D54123C35C28221340282B01D091
:101F5C00F22302E01A3300E000238A0709D5442457
:101F6C001C434122825C28252A40282A0FD0F422C7
:101F7C0013430AB2002A0CDB10290DD020290ED0F5
:101F8C0040290FD001680A689A430A6030BD2300CB
:101F9C00EFE7B8221343EFE790221343EEE720223A
:101FAC001343EDE740221343ECE7000010B5041E89
:101FBC0059D04123C35C002B43D041232422E2544B
:101FCC002268136801218B431360636822682749D8
:101FDC000B4013612268936825490B409360E368BA
:101FEC00012B34D0A168226884231B020B4393601D
:101FFC00E368022B32D0226851681E4B0B435360AE
:10200C002268D3681A490B40D36023696269134371
:10201C00A269120221681343CB60E369216A22682A
:10202C000B4313602268136801210B4313600023D8
:10203C00636441221F31A15423630132A354002055
:10204C0010BD40330022C254FEF7CAFCB5E7A168AC
:10205C00226880231B020B439360C9E7236880220C
:10206C0012015A60C7E70120EAE7C046FFFFFFF004
:10207C00FF7FFFFF0080000210B5036899691A68A2
:10208C00436B002B00D0984710BD70477047000081
:10209C0010B5040003681A684221002060545104F2
:1020AC000CD51A6819490A401A604123E35C292BA4
:1020BC000BD04123E35C2A2B17D010BD1204F4D5AE
:1020CC001A6813490A401A60EFE718332822E254C1
:1020DC00203B236301212000FFF731FF4023002226
:1020EC00E2542000FFF7D1FFE7E717332822E25430
:1020FC001F3B236302212000FFF721FF4023002216
:10210C00E2542000FFF7C2FFD7E7C046FFBFFFFF36
:10211C00FF7FFFFF7047F8B504004123C35C282202
:10212C001340282B06D003680822DA6140230022D2
:10213C00C254F8BD006885692D0C273B1D4086698B
:10214C00360CFE210E4083689B059B0DC7680F4023
:10215C00E268022A24D1DA097240F839114211D10D
:10216C00A26C0132A264A26C022AE2D10022A26407
:10217C000231C161383162541A0029002000FFF786
:10218C00C9FFD6E7802109022000FFF7D8FE4023C3
:10219C000022E2543A0029002000FFF7BBFFC8E7F9
:1021AC00802109022000FFF7CAFE40230022E254DE
:1021BC00320029002000FFF7ADFFBAE7704700009E
:1021CC0010B50400164BC362002303634122202088
:1021DC00A0540132A3546363490713D523685A6A88
:1021EC00636A1A70636A01336362238D002B09D012
:1021FC00013B2385638D013B9BB26385636C042299
:10220C001343636407492000FFF799FE23681022EB
:10221C00DA6140230022E2542000FFF7CFFF10BD0B
:10222C000000FFFF038000007047704710B541238A
:10223C00C35C602B06D00023036340228354FFF75A
:10224C00F3FF10BD1F3B2022C25400230363203236
:10225C008354FFF7EAFFF4E710B504004123C35C95
:10226C000022422022543A48E0626285626C0A43A2
:10227C006264283BDBB2022B1BD803212000FFF742
:10228C005EFE41232822E254324B6363236BA26B24
:10229C00002A03D0112B1AD0212B18D0E26B002A64
:1022AC0003D0122B33D0222B31D02000FFF7BEFFEE
:1022BC0010BD29492000FFF742FE4123E35C602B4F
:1022CC0002D041232022E25400236363DEE722681C
:1022DC0013685B0403D5136820490B401360A06B93
:1022EC00FFF754FB01280ED0A36B1D4A9A634023C1
:1022FC000022E254A06BFFF79FFA0028D8D0A06B05
:10230C00836B9847D4E72000FFF790FFD0E7236852
:10231C001A68120403D51A6812490A401A60E06B55
:10232C00FFF734FB01280ED0E36B0D4A9A63402370
:10233C000022E254E06BFFF77FFA0028B8D0E06B84
:10234C00836B9847B4E72000FFF770FFB0E7C046F7
:10235C000000FFFFDD24000803800000FFBFFFFF2B
:10236C0083260008FF7FFFFF70B504000D00026894
:10237C0016684123C35CD9B22020D061212B0CD02C
:10238C0029290AD0222901D02A290CD14A49200016
:10239C00FFF7D5FD2223236305E048492000FFF712
:1023AC00CEFD212323632268516880231B020B433B
:1023BC0053602268536842490B4053602000FFF77A
:1023CC00AFFD730441D5226813683E490B4013607E
:1023DC00A36B002B03D01B685B689BB263856B07F8
:1023EC0011D504239D4323685A6A636A1A70636A81
:1023FC0001336362238D002B05D0013B2385638D54
:10240C00013B9BB26385638D9BB2002B03D0636C45
:10241C0004221343636400234222A3546363636C5A
:10242C00002B21D1E26A284B9A422AD14123E35C4A
:10243C00222B36D041232022E25400232363203266
:10244C00A3542000FFF721FE2AE03604C7D52268EA
:10245C0013681E490B401360E36B002BBFD01B6845
:10246C005B689BB26385BAE7616C2000FFF7F4FEF2
:10247C004123E35C282B13D129002000FFF7A0FE99
:10248C000EE02000FFF704FE0F4BE36241232022F5
:10249C00E254002323632032A3542000FFF78EFE66
:1024AC0070BD1F332022E254002323632032A35437
:1024BC002000FFF7EBFDF3E7028000000180000035
:1024CC0000E800FEFFBFFFFF0000FFFFFF7FFFFFE4
:1024DC00F8B504000D001600C76A4023C35C012B3D
:1024EC0000D195E040230122C2548B0601D5B306DE
:1024FC0017D4EB0640D5F3063ED5638D9BB2002B6B
:10250C0028D14133E35C282B0ED04123E35C292BEB
:10251C0013D023681022DA6140230022E2540020F9
:10252C00F8BDFFF721FFE4E780239B049F42ECD129
:10253C0029002000FFF744FEEEE7364B9F42E8D01F
:10254C0023681022DA612000FFF7EAFC2000FFF775
:10255C009FFDE1E723681022DA61636C0C3A1343A8
:10256C006364002F03D080235B049F42D4D1616C41
:10257C002000FFF771FECFE76B071ED573071CD544
:10258C00638D9BB2002B0DD023685A6A636A1A7054
:10259C00636A01336362238D013B2385638D013BA9
:1025AC009BB26385638D9BB2002BB5D1194B9F42B7
:1025BC00B2D02000FFF76CFDAEE72B0701D5330737
:1025CC0016D4AD07A8D5B607A6D5638D9BB2002B44
:1025DC0013D0626A236812789A62636A0133636269
:1025EC00638D013B9BB26385238D013B238593E770
:1025FC0029002000FFF78FFD8EE780235B049F42AC
:10260C0002D0002F00D087E72000FFF741FD83E7C1
:10261C00022085E70000FFFF70B50268936911681E
:10262C00DC0508D50C0606D5446C01252C43446406
:10263C0080246400D4615A0509D50A0607D5426C7A
:10264C0008242243426402688024E400D4619B0580
:10265C0009D5090607D5436C02221343436403686A
:10266C00FF32FF32DA61416C0B230B4200D170BD9B
:10267C00FFF7F2FDFBE710B5806A836B002B01D0EE
:10268C0000229A63C36B002B01D000229A63FFF7E0
:10269C00CDFD10BDF0B54123C35C202B20D12033E0
:1026AC00C35C012B1ED0402401220255412524235A
:1026BC0043550668336893433360066833680A4FA2
:1026CC003B403360066833680B43336001680B682A
:1026DC0013430B6020234355002303550020F0BD0A
:1026EC000220FCE70220FAE7FFEFFFFFF0B54123E1
:1026FC00C35C202B1ED12033C35C012B1CD0402487
:10270C00012202554125242343550668336893431F
:10271C00336006683368094F3B4009021943316046
:10272C0001680B6813430B602023435500230355AA
:10273C000020F0BD0220FCE70220FAE7FFF0FFFFCB
:10274C0070B58AB0041E00D16CE0374BC35C002B13
:10275C0009D0354B0322E25400232361206801F099
:10276C00EBFF00221BE0AF239B000022C25403F0BE
:10277C0025FBEEE791008B18DB00E31818003D30C9
:10278C0001250570013802700C3002801D003F35A8
:10279C0000202870D864186558650132D2B2606880
:1027AC008242E7D3002119E08A005318DB00E318BA
:1027BC001E007E36FF3600253570013E3170033623
:1027CC0035700D3635609133FF331D605218D200D1
:1027DC00A2189532FF3215600131C9B28842E3D894
:1027EC002068230010336A4662CB62C262CB62C29D
:1027FC0062CB62C21B6813606168A268E36801F077
:10280C00B1FF38230022E254074B0132E254636AD1
:10281C00012B02D000200AB070BD200000F0E3F8BC
:10282C000020F8E70120F6E7BD02000070B50400B7
:10283C00AF239B00C35C012B0DD0AF25AD00012352
:10284C004355006801F070FF206801F0C5FF0023BC
:10285C006355002070BD0220FCE770B50400AF2367
:10286C009B00C35C012B0DD0AF25AD00012343555C
:10287C00006801F061FF206801F0B6FF002363558A
:10288C00002070BD0220FCE7F8B507260E40B4000E
:10289C00A119C9007931FF3141180431A519ED0096
:1028AC0045192F009137FF373A602A009532FF32D5
:1028BC0013600432002313607E35FF352B70A4198E
:1028CC00E40004197D34FF342670002E04D1006816
:1028DC0001F0C0FF0020F8BD006801F0BBFFF9E774
:1028EC00F8B507260E40B500A919C90038314118B2
:1028FC000431AC19E40004192265636527006037C4
:10290C0001223A70E3650023A3653D342270AD19B2
:10291C00ED0045193C352E70002E04D1006801F0F5
:10292C0099FF0020F8BD006801F094FFF9E770B53D
:10293C0004000B00072008406268904230D84AB26D
:10294C00002A20DB8A005118C9007931FF31611847
:10295C000431D218D200A2187E32FF320023137039
:10296C0001238B700870AF239B00E35C012B19D003
:10297C00AF25AD0001236355206801F009FF00234A
:10298C006355002070BD83001918C90038316118D7
:10299C0004311B18DB00E3183D3301221A70DFE70A
:1029AC000120EFE70220EDE710B50C060DD507244A
:1029BC000C40A1000919C900383140180430002A14
:1029CC000BD182728380002010BD8C006118C9006D
:1029DC007931FF3140180430F1E701228272C38053
:1029EC001B0C0381EFE710B503680121BF22920095
:1029FC008150083A002484545A6D0A435A655A6D22
:102A0C0001310A435A65002010BD0000034A516889
:102A1C008023DB000B4353607047C04600700040BE
:102A2C0010B5104A136810490B4003431360802300
:102A3C009B00984201D0002010BD0C4B1B68580025
:102A4C00C01840000A49FDF757FB0130054B5B6984
:102A5C005B0503D5002803D00138F7E70020EBE72E
:102A6C000320E9E700700040FFF9FFFF00000020A1
:102A7C0040420F0070B582B0041E00D15EE20368C4
:102A8C00DB0739D5C14A916838230B40D168032242
:102A9C000A40102B26D0082B26D0636880225202C5
:102AAC0093427FD0A022D202934200D181E0B74B57
:102ABC001A68B7490A401A601A68B6490A401A607F
:102ACC006368002B00D180E0FEF748FD0500AF4B9A
:102ADC001B689B0310D4FEF741FD401B6428F6D9FC
:102AEC0003202CE2032AD6D1A84B1B689B0303D5E9
:102AFC006368002B00D124E223689B0731D5A34ADD
:102B0C00916838230B40D16803220A40102B6AD0FD
:102B1C00002B6BD19D4A1268520503D5E268002A3E
:102B2C0000D110E2994842689B490A406169090248
:102B3C000A434260002B0DD1036898490B40216970
:102B4C000B4303600368DB0A07221A40944BD34003
:102B5C00944A1360944B1868FEF7B4FC002800D01C
:102B6C00F3E123681B0700D481E0884B9A68382373
:102B7C001340182B73D0A369002B00D1B4E0834A07
:102B8C00136E01210B431366FEF7E8FC05007F4B27
:102B9C001B6E9B076BD4FEF7E1FC401B0228F6D999
:102BAC000320CCE1794A116880235B020B4313604C
:102BBC0086E7764B19688022D2020A431A6019689C
:102BCC00802252020A431A607AE7FEF7C7FC05001E
:102BDC006E4B1B689B038FD5FEF7C0FC401B642813
:102BEC00F6D90320ABE1022A92D193E7E368002BDC
:102BFC0022D0664A136869490B4021690B43136064
:102C0C00116880235B000B431360FEF7A7FC0500E3
:102C1C005E4B1B685B0506D4FEF7A0FC401B02282C
:102C2C00F6D903208BE159494B685B4A1340626922
:102C3C00120213434B6094E7544A13685B490B40F0
:102C4C001360FEF78BFC0500504B1B685B0588D5A9
:102C5C00FEF784FC401B0228F6D903206FE14B4B96
:102C6C001B6E9B0703D5A369002B00D16FE1236872
:102C7C005B0700D4A2E0454B9A6838231340202B05
:102C8C0045D0424BDB6BDB004AD4404BDA6B8021E6
:102C9C0049050A43DA63DB6B0B400193019B012569
:102CAC00434B1B68DB053DD5A368012B4ED0052B90
:102CBC0052D0364BDA6D01218A43DA65DA6D033175
:102CCC008A43DA65A368002B50D0FEF747FC060058
:102CDC002E4BDB6D9B076FD4FEF740FC801B354BF6
:102CEC009842F5D903202AE1284A136E01218B431F
:102CFC001366FEF733FC0500244B1B6E9B07B6D501
:102D0C00FEF72CFC401B0228F6D9032017E11F4BC1
:102D1C00DB6D9B0752D5A368002B4FD101200EE130
:102D2C000025BDE7224A116880235B000B4313602A
:102D3C00FEF714FC06001E4B1B68DB05B4D4FEF733
:102D4C000DFC801B0228F6D90320F8E00F4AD36D46
:102D5C0001210B43D365B5E70C4BDA6D04210A4313
:102D6C00DA65DA6D03390A43DA65ABE7FEF7F6FB91
:102D7C000600064BDB6D9B071ED5FEF7EFFB801B99
:102D8C000C4B9842F5D90320D9E0C0460010024004
:102D9C00FFFFFEFFFFFFFBFFFF80FFFFFFC7FFFFF3
:102DAC000024F4000000002008000020FFFEFFFFBC
:102DBC000070004088130000012D19D023689B0679
:102DCC002FD5E369002B19D06A4A11688023DB03E5
:102DDC000B431360FEF7C2FB0500664B1B681B021E
:102DEC001FD4FEF7BBFB401B0228F6D90320A6E03C
:102DFC00604AD36B60490B40D363DFE75D4A1368CD
:102E0C005E490B401360FEF7A9FB0500594B1B688C
:102E1C001B0206D5FEF7A2FB401B0228F6D90320A5
:102E2C008DE0236A002B00D193E0524A916838223E
:102E3C000A40102A5AD0022B12D04E4A136850491D
:102E4C000B401360FEF78AFB04004A4B1B689B0186
:102E5C0045D5FEF783FB001B0228F6D903206EE054
:102E6C00444A136846490B401360FEF777FB050094
:102E7C00404B1B689B0106D5FEF770FB401B0228DC
:102E8C00F6D903205BE03B4AD3683E491940636A9C
:102E9C00A06A0343E06A00020343206B0343606BA8
:102EAC000343A06B03430B43D360116880235B0483
:102EBC000B431360D16880235B050B43D360FEF793
:102ECC004DFB04002B4B1B689B0106D4FEF746FB05
:102EDC00001B0228F6D9032031E000202FE0254A00
:102EEC00D36829490B40D360002028E0012B32D055
:102EFC00204BDA6803231340616A8B422DD1702377
:102F0C001340A16A8B422AD1FE21C9011140E36A08
:102F1C001B02994225D1F8239B031340216B8B4252
:102F2C0021D1E0231B051340616B8B421DD1520F45
:102F3C005207A36B9A421AD1002000E0012002B084
:102F4C0070BD0120FBE70120F9E70120F7E7012024
:102F5C00F5E70020F3E70120F1E70120EFE701207E
:102F6C00EDE70120EBE70120E9E70120E7E701208D
:102F7C00E5E7C04600100240FFFFFFEFFFFFBFFF79
:102F8C00FFFFFFFE8C80C111FCFFFEEE10B52A4B3B
:102F9C009B6838221A4207D1274B1A68D20A07239A
:102FAC0013402648D84010BD234B9A683823134051
:102FBC00082B3BD0204B9A6838231340102B0DD094
:102FCC001D4B9A6838231340202B31D01A4B9A682A
:102FDC0038231340182B26D00020E4E7164AD1687A
:102FEC000D3B0B40D2681209072111400131032B14
:102FFC000FD01248FDF780F80F4BDA68120A7F23C6
:10300C00134058430C4BD968490F0131FDF774F844
:10301C00C9E70B48FDF770F8074BDA68120A7F23F3
:10302C0013405843EEE7FA20C001BCE70448BAE766
:10303C0080200002B7E7C046001002400024F400D4
:10304C0000127A0070B504000D00002800D1AAE02F
:10305C00574B1A68072313408B4221D323689A07D6
:10306C000ED55B0705D5534A9168E023DB010B4372
:10307C009360504A936850490B40A1680B4393608E
:10308C002368DB0754D56368012B20D0022B3BD07F
:10309C00002B3FD1474A126852051CD401206AE02C
:1030AC00434A136807218B432B431360FEF756FAF0
:1030BC0006003F4B1A6807231340AB42CED0FEF7F5
:1030CC004DFA801B3D4A9042F3D9032053E0394A14
:1030DC001268920369D537498A68072082431343E3
:1030EC008B60FEF73BFA0600324B9B6838221A4085
:1030FC006368DB009A421BD0FEF730FA801B2F4B23
:10310C009842F1D9032036E02A4A12689201E2D49F
:10311C00012030E0032B05D0264AD26D9207DAD479
:10312C00012028E0234A126E9207D4D4012022E019
:10313C001F4B1A6807231340AB421DD823685B074B
:10314C0006D51C4A93681E490B40E1680B439360FB
:10315C00FFF71CFF174B9A68120A0F231340194AEA
:10316C009B009A581F231340D840174B1860174BDD
:10317C001868FEF7A7F970BD0D4A136807218B4339
:10318C002B431360FEF7EAF90600094B1A68072374
:10319C001340AB42D2D0FEF7E1F9801B074B9842AB
:1031AC00F3D90320E7E70120E5E70120E3E7C04678
:1031BC000020024000100240FFF0FFFF88130000C7
:1031CC00FF8FFFFF8C5F000800000020080000202C
:1031DC00014B18687047C0460000002010B5FFF77F
:1031EC00F7FF064B9A68120B07231340044A9B0007
:1031FC009A581F231340D84010BDC04600100240FF
:10320C00CC5F0008F0B583B0040003689B0362D563
:10321C00AE4BDB6BDB001ED4AC4BDA6B802149056B
:10322C000A43DA63DB6B0B400193019B0126A84A2E
:10323C00116880235B000B431360FEF78FF90500C8
:10324C00A34B1B68DB0508D4FEF788F9401B02284A
:10325C00F6D9032502E00026E9E70025002D23D14D
:10326C009A4BD96DC02292000B001340114210D022
:10327C00226C9A420DD0954AD36D96490B40D06D75
:10328C00802149020143D165D16D93480140D1653C
:10329C00D365DB0710D4002D06D18C4AD36D8D4934
:1032AC000B40216C0B43D365012E15D1874AD36B90
:1032BC008A490B40D3630FE0FEF750F90700834BAC
:1032CC00DB6D9B07E7D4FEF749F9C01B844B984292
:1032DC00F5D90325DFE700252368DB0706D57B4AF4
:1032EC00536D03218B4361680B43536523689B0724
:1032FC0006D5764A536D0C218B43A1680B4353655D
:10330C0023685B0706D5714A536D30218B43E16806
:10331C000B4353652368DB0606D56C4A536D714924
:10332C000B4021690B4353652368DB0406D5674AC0
:10333C00536D68490B4061690B43536523689B05CA
:10334C0006D5624A536D68490B40A16A0B4353651D
:10335C0023685B0506D55D4A536D64490B40E16AF1
:10336C000B43536523689B0606D5584A536D604939
:10337C000B40A1690B43536523685B0606D5534A82
:10338C00536D5C490B40E1690B43536523685B0447
:10339C000BD54E4A536D9B009B08216B0B43536519
:1033AC00226B8023DB059A4262D023681B0306D56F
:1033BC00464A536D40218B43616B0B435365236825
:1033CC009B020BD5414A536D4B490B40A16B0B43F0
:1033DC005365A26B8023DB039A4250D023685B02B7
:1033EC000BD53A4A536D45490B40E16B0B43536582
:1033FC00E26B80235B049A4248D023681B0509D5F5
:10340C00324A936D03218B43216A0B439365236AE4
:10341C00012B40D023689B0409D52C4A936D0C21B9
:10342C008B43616A0B439365636A042B39D0236821
:10343C00DB010BD5254A936D2D490B40616C0B4379
:10344C009365626C80239B019A4230D023689B0168
:10345C000BD51E4A936D1F490B40A16C0B43936512
:10346C00A26C80235B009A4228D0280003B0F0BDE8
:10347C00164AD16880235B020B43D36095E7134A4D
:10348C00D16880235B040B43D360A7E70F4AD16854
:10349C000B43D360B1E7D16880235B020B43D3604D
:1034AC00B8E7D16880235B020B43D360BFE7074AC0
:1034BC00D16880235B040B43D360C7E7034AD16810
:1034CC0080235B040B43D360CFE7C046001002405F
:1034DC0000700040FFFCFFFFFFFFFEFFFFFFFFEF50
:1034EC0088130000FFF3FFFFFFFFF3FFFFFFCFFF89
:1034FC00FFCFFFFFFF3FFFFFFFFFBFFFFFFFFFFE01
:10350C0070B5041E00D178E0436A002B07D14268E5
:10351C000533FF339A4205D00023C36102E0002338
:10352C00036143610023A3625D33E35C002B5AD03B
:10353C005D230222E2542268136840218B431360FE
:10354C00E368E022D200934254D90022F021090111
:10355C008B4205D0E021C9008B4201D00023A3622D
:10356C006368822149000B40A1688420000201405D
:10357C000B432069022101400B4360690121084083
:10358C000343A0698025AD0028400343E56938203A
:10359C0028400343256A802028400343A06A8025E5
:1035AC00AD012840256803432B60608B0423034046
:1035BC00656A102028400343656B082028400343AC
:1035CC00E068F0252D012840034320681343436035
:1035DC002268D3690A480340D361002323665D3314
:1035EC00E154002070BD5C330022E2542000FDF752
:1035FC00D7FA9DE780225201A8E70120F2E7C046E6
:10360C00FFF7FFFF7047000030B585B0040001687C
:10361C0048688B6841221A40012A64D09A0701D568
:10362C00020666D4B0225200134265D0820663D5DE
:10363C005A060ED55D22A25C032A5FD0226E0425A9
:10364C002A43226600220092CA6800928A6800927D
:10365C00009A9A060CD5226E01252A432266002276
:10366C0002928A6802920A683F35AA430A60029A5B
:10367C00DB0509D5236E082213432366002303932D
:10368C0023689B680393039B236E002B34D0226822
:10369C005368E0218B4353605D230122E254800781
:1036AC0034D022685368DD398B435360A36D002BF3
:1036BC000AD0184A9A63A06DFEF7BEF8002803D012
:1036CC00236E402213432366636D002B14D0114AE2
:1036DC009A63606DFEF7B0F800280DD0236E40227F
:1036EC001343236608E0420698D5E36C2000984704
:1036FC0002E0236D2000984705B030BD00230193F4
:10370C00CB6801938B680193019BF5E72000FFF7D1
:10371C0079FFF1E72537000810B5806A00234622AF
:10372C008352C387FFF76EFF10BD30B5036A046A7E
:10373C000125AC4304628469EF35AC43120122438A
:10374C000A24A3430B438261036230BD30B5036A84
:10375C001024A34303628469036A054D2C401203B1
:10376C002243A024A343090119438261016230BDA5
:10377C00FF0FFFFF8368034A13400B4307221343D9
:10378C00836070478FFFCFFF70477047704770475B
:10379C007047000010B50400026813699B070FD531
:1037AC00D3689B070CD503235B4213610433037767
:1037BC0003689B699B076AD0FFF7E8FF0023237718
:1037CC00226813695B0712D5D3685B070FD50523F5
:1037DC005B4213610733237723689A69C0239B00EC
:1037EC001A425AD02000FFF7D1FF0023237722681A
:1037FC0013691B0710D5D3681B070DD509235B4232
:10380C0013610D3323772368DB699B074CD02000B1
:10381C00FFF7BCFF0023237722681369DB0612D560
:10382C00D368DB060FD511235B4213611933237761
:10383C002368DA69C0239B001A423CD02000FFF7B2
:10384C00A5FF0023237722681369DB0702D5D36811
:10385C00DB0737D4226813691B0602D5D3681B0615
:10386C0037D422681369DB0502D5D3681B0637D41D
:10387C00226813695B0602D5D3685B0636D42268CE
:10388C0013699B0602D5D3689B0636D410BDFFF78F
:10389C007CFF2000FFF77BFF90E72000FFF775FF10
:1038AC002000FFF774FFA0E72000FFF76EFF200059
:1038BC00FFF76DFFAEE72000FFF767FF2000FFF773
:1038CC0066FFBEE702235B4213612000FFF75CFF3B
:1038DC00C0E781235B421361200000F078F9C0E758
:1038EC00094B1361200000F073F9C1E741235B42DF
:1038FC0013612000FFF74CFFC1E721235B421361EA
:10390C00200000F063F9C1E7FFFEFFFF0368244AC3
:10391C00904209D08022D205904205D0214A904293
:10392C0002D0214A904203D1702293434A68134338
:10393C001B4A904215D08022D205904211D0194AD0
:10394C0090420ED0184A90420BD0184A904208D0A0
:10395C00174A904205D0174A904202D0164A90421C
:10396C0003D1164A1A40CB681343802293434A6909
:10397C00134303608B68C3620B688362084B9842E5
:10398C0008D00B4B984205D00A4B984202D00A4BF8
:10399C00984201D10B690363012343617047C04610
:1039AC00002C0140000400400008004000200040B2
:1039BC00004001400044014000480140FFFCFFFF73
:1039CC0070B5041E2AD03D23C35C002B20D03D25AE
:1039DC0002236355210001C9FFF798FF01234822F8
:1039EC00A3540A3AA3540132A3540132A354013212
:1039FC00A3540132A3540132A3540132A354013213
:103A0C00A3540132A3540132A3546355002070BD5A
:103A1C003C330022C254FDF749FAD8E70120F6E7FF
:103A2C0030B58468034D2C401B0213430B432343D6
:103A3C00836030BDFF00FFFF10B5040008003C237D
:103A4C00E35C012B00D177E03C230122E2540133EB
:103A5C000132E2542268936838490B409360016844
:103A6C0060294FD029D8402957D00CD9502922D1C0
:103A7C004168C2682068FFF758FE20685021FFF7A4
:103A8C0079FE002005E020290ED009D930290BD071
:103A9C0001203D230122E254013B0022E25410BDDF
:103AAC00002901D0102904D12068FFF763FE002003
:103ABC00EFE70120EDE70120EBE780225201914274
:103ACC0036D08022920191420DD181684268C36840
:103ADC002068FFF7A5FF226891688023DB010B4368
:103AEC0093600020D5E7702924D181684268C368AF
:103AFC002068FFF795FF2268936877210B4393604A
:103B0C000020C6E74168C2682068FFF71FFE2068E6
:103B1C006021FFF72FFE0020BBE74168C2682068D8
:103B2C00FFF703FE20684021FFF724FE0020B0E7DA
:103B3C000020AEE70120ACE70220B0E78800CEFF02
:103B4C0030B53C23C35C012B33D03C230122C2543F
:103B5C0001330132C254026853689568164CA24274
:103B6C0022D07024A3430C68234353600368124A89
:103B7C0093420CD08022D205934208D00F4A934234
:103B8C0005D00F4A934202D00E4A934204D18022B0
:103B9C0095438A682A439A603D230122C254013B13
:103BAC000022C254002030BD074C23404C682343F4
:103BBC00D7E70220F7E7C046002C01400004004084
:103BCC000008004000400140FFFF0FFF70477047A6
:103BDC007047000030B5EFF31084012282F3108897
:103BEC0001680B68124D2B400B6084F31088EFF3C7
:103BFC00108182F31088026893680E4C2340936006
:103C0C0081F31088C36E012B06D08C232022C25066
:103C1C000023C366436730BDEFF3108183F3108834
:103C2C00026813681024A343136081F31088ECE737
:103C3C00DFFEFFFFFEFFFFEF704710B5EFF31081C3
:103C4C00012383F31088026813684024A343136094
:103C5C0081F3108888232022C25000238367FFF74A
:103C6C00EBFF10BD704710B5806A00235E228352B3
:103C7C00083A8352FFF7F6FF10BD7047F8B5040001
:103C8C000268D36915689068BD491E000E400B424E
:103C9C0005D1990603D5A9062CD4C1002AD4002E2F
:103CAC0007D0B84906000E40084229D1B6490D424A
:103CBC0026D1E16E012900D1AAE0D90202D5410238
:103CCC0000D543E11A0605D52A0600D545E10002C8
:103CDC0000D542E15A0602D56A0600D544E11A0223
:103CEC0002D56A0000D543E1DB0102D5002D00DAD4
:103CFC0042E1F8BD636F002BFBD020009847F8E73A
:103D0C00D90707D5E90505D5012717629021625817
:103D1C003A4362509A0709D5C20707D52268022197
:103D2C0011628E31625804273A4362505A0709D502
:103D3C00C20707D52268042111628C316258022710
:103D4C003A4362501A070AD5AA0601D4002E06D0AF
:103D5C0022680826166290216258324362501A0576
:103D6C000AD56A0108D522688021090111629021C7
:103D7C0062582026324362509022A258002AB8D0B2
:103D8C009B0608D5AD0601D4C00004D5636F002B8B
:103D9C0001D0200098479023E25823689B685B066B
:103DAC0002D4282313422CD02000FFF713FF2368E2
:103DBC009B685B0621D5EFF31081012383F31088F8
:103DCC002268936840208343936081F3108880239A
:103DDC00E358002B0DD06D4A9A638023E058FDF711
:103DEC002BFD002800D184E78023E058836B984793
:103DFC007FE72000FFF736FF7BE72000FFF732FF5D
:103E0C0077E72000FFF72EFF90230022E25070E7A7
:103E1C00D90600D451E7E90600D44EE7102313620B
:103E2C0023689B685B0655D58023E25813685B6852
:103E3C009BB2002B00D15CE75C21615A994200D8FF
:103E4C0057E75E21635213681B689B060BD5022350
:103E5C0023675A33E15A0233E35AC91A89B2200054
:103E6C00FFF70BFF45E7EFF31080012383F3108876
:103E7C0021680A68464D2A400A6080F31088EFF3E7
:103E8C00108083F3108821688A689A438A6080F3D3
:103E9C001088EFF3108083F3108821688A6842350C
:103EAC00FF35AA438A6080F310888C222021A15010
:103EBC000022E266EFF3108183F310882268136806
:103ECC0010208343136081F310888023E058FDF7A2
:103EDC0077FCBCE75C23E35A5E22A15A591A89B2DB
:103EEC00A35A9BB2002B00D103E7002900D100E7B5
:103EFC00EFF31085012383F3108820680268254EA8
:103F0C003240026085F31088EFF3108583F310883C
:103F1C0020688268204E3240826085F310888C22A3
:103F2C002020A0500022E2666267EFF3108083F33A
:103F3C001088226813681025AB43136080F3108837
:103F4C00022323672000FFF798FED2E680235B0351
:103F5C001362200000F076FBCBE6A36F002B00D1A0
:103F6C00C7E620009847C4E62000FFF766FEC0E6CF
:103F7C00200000F069FBBCE6200000F064FBB8E612
:103F8C000F0800000100001020010004733C000821
:103F9C00FFFEFFFFDFFEFFFFFEFFFFEFF8B50400A3
:103FAC00016883680269134342691343C26913436E
:103FBC000A68AA48024013430B6022685368A84958
:103FCC000B40E1680B435360A1692268A54B9A42F0
:103FDC0004D0A54B9A4201D0236A19439368A34895
:103FEC0003400B4393602268D36A0F218B43616AB1
:103FFC000B43D36222689E4B9A421AD09D4B9A4235
:10400C005BD09D4B9A4269D09C4B9A4200D1BCE04C
:10401C009B4B9A4200D1BAE09A4B9A4200D1B8E03D
:10402C00904B9A426BD0904B9A4200D17FE0102378
:10403C000EE0954B596D03230B40022B00D18EE003
:10404C0037D8002B00D18CE0012B00D08BE0033350
:10405C0084498A4200D1AEE083498A4200D1AAE069
:10406C00E06980221202904200D119E1042B00D1A8
:10407C0059E100D949E1002B00D14DE1022B00D0D0
:10408C0041E18248626A824B5200D15AFCF734F803
:10409C0061684B08C018FCF72FF80200103A7D4BF2
:1040AC009A4200D94AE123680004000CD860002031
:1040BC00BFE0032B59D10533CAE7734B596D0C2361
:1040CC000B40082B53D005D8002B52D0042BBFD05B
:1040DC001023BDE70C2B4ED1043BB9E76A4B596D4D
:1040EC0030230B40202B48D005D8002B47D0102B69
:1040FC0047D10C3BACE7302B45D1283BA8E7624BB2
:10410C005B6DC02109010B40802109018B4242D01B
:10411C0007D8002B41D08021C9008B423FD104230A
:10412C0096E7C02109018B423BD1082390E7564BFF
:10413C005B6DC02189000B400139FF398B4232D0B5
:10414C0007D8002B31D00139FF398B422FD10423F2
:10415C007EE7C02189008B422BD1082378E702230C
:10416C0076E7002374E7102372E7102370E702232D
:10417C006EE700236CE710236AE7022368E700234D
:10418C0066E7102364E7102362E7002360E700234F
:10419C005EE700235CE702235AE7002358E710236D
:1041AC0056E7102354E7022352E7002350E710236D
:1041BC004EE710234CE7042B4BD034D8002B41D0C6
:1041CC00022B2ED1314D626A314B5200D75A390035
:1041DC002800FBF791FF666873009B19834200D996
:1041EC00A4E03303834200D2A2E03A00002328006B
:1041FC000021FCF7F7F8050E0B022B4302027008A6
:10420C0000218018594132000023FCF7EBF8224BB7
:10421C00C218224B9A4200D98CE02368D860002047
:10422C0007E0012005E0082B02D180252D02CAE70A
:10423C00012001236A22A352023AA352002363678E
:10424C00A367F8BDFEF7CAFF0500002DBBD1002007
:10425C00EFE7FEF79BFE0500F7E7C046F369FFCFDB
:10426C00FFCFFFFF0080004000840040FFF4FF11EF
:10427C00003801400044004000480040004C004021
:10428C0000500040003C0140001002400024F400AB
:10429C00EC5F0008EFFF000000FDFFFFFFFC0F00CC
:1042AC00042B2DD022D8002B24D0022B1CD1244837
:1042BC00626A244B5200D15AFBF71EFF4000616822
:1042CC004B08C018FBF718FF0200103A1E4B9A421D
:1042DC0032D882B20F239A434008083B0340134361
:1042EC002268D3600020A4E70120A2E7082BDFD0CE
:1042FC0001209EE7FEF772FF0028D9D1002098E735
:10430C00FEF744FEF8E7012093E7082B02D180204A
:10431C000002B7E601208CE7FEF760FF002800D012
:10432C00B0E6002085E7FEF731FEF7E7012080E7D5
:10433C0001207EE701207CE701207AE7012078E765
:10434C000024F400EC5F0008EFFF0000836ADB0739
:10435C0006D5026853682C490B40C16A0B43536065
:10436C00836A9B0706D50268536828490B40016B8A
:10437C000B435360836A5B0706D502685368244974
:10438C000B40416B0B435360836A1B0706D50268D5
:10439C00536820490B40816B0B435360836ADB06E7
:1043AC0006D5026893681C490B40C16B0B439360A4
:1043BC00836A9B0606D50268936818490B40016C0A
:1043CC000B439360836A5B060BD5026853681449F0
:1043DC000B40416C0B435360426C80235B039A424D
:1043EC000AD0836A1B0606D5026853680D490B4038
:1043FC00C16C0B4353607047026853680A490B4009
:10440C00816C0B435360ECE7FFFFFDFFFFFFFEFFEA
:10441C00FFFFFBFFFF7FFFFFFFEFFFFFFFDFFFFF54
:10442C00FFFFEFFFFFFFF7FFFFFF9FFFF8B5CE4643
:10443C00474680B506000D0017009946089B984624
:10444C003368DC692C40641B63425C41BC4257D12D
:10445C0043460133F4D0FDF781F84B46C01A404572
:10446C002ED84346002B2BD0326813685B07E7D558
:10447C00D3691B05E4D580231B011362EFF3108075
:10448C00012282F3108831680B68204C23400B60AA
:10449C0080F31088EFF3108082F3108831688B68FA
:1044AC0093438B6080F3108820238732B3500432FF
:1044BC00B3500432B35064330022F254032020E092
:1044CC00EFF31080012282F3108831680B680F4CD7
:1044DC0023400B6080F31088EFF3108082F3108878
:1044EC0031688B6893438B6080F31088202387326C
:1044FC00B3500432B35064330022F254032000E072
:10450C000020C0BCB946B046F8BDC0465FFEFFFFF8
:10451C0030B583B0040090230022C250FDF71EF882
:10452C00050023681B681B0710D423681B685B07F6
:10453C0019D420238822A3500432A3500023E3660D
:10454C002367083AA354002003B030BD80210C4BE4
:10455C0000930300002289032000FFF767FF002867
:10456C00E3D00320F0E78021054B00932B000022C1
:10457C00C9032000FFF75AFF0028DAD00320E3E735
:10458C00FFFFFF0110B5041E30D08823C358002B49
:10459C0022D088232422E2502268136801218B4305
:1045AC0013602000FFF7FAFC012814D0A36A002B3B
:1045BC0018D1226853680E490B40536022689368E7
:1045CC002A218B4393602268136829390B431360AB
:1045DC002000FFF79DFF10BD84330022C254FCF76E
:1045EC0089FDD6E72000FFF7B1FEE2E70120F2E7F4
:1045FC00FFB7FFFFF8B50400436E002B05D1013364
:10460C006A228352023A8352F8BD026895686D0E95
:10461C0007231D409268520F1340084FF85CC000EE
:10462C00074EF15CFBF7F2FD6A23E052785DC000A7
:10463C00715DFBF7EBFD6823E052E5E70C600008C9
:10464C0004600008704770477047000070B5842301
:10465C00C35C012B15D08424012606558825242300
:10466C004351026813681168B1431160064A134044
:10467C000022426601680B60202343510255002042
:10468C0070BD0220FCE7C046FFFFFFDFF8B5040059
:10469C000A008423C35C012B1BD0842501206055A8
:1046AC0088262423A35123681F6819688143196045
:1046BC0020688368DB00D908114381602000FFF774
:1046CC0099FF23681F602023A3510023635500200A
:1046DC00F8BD0220FCE70000F8B504000B008422B2
:1046EC00825C012A1BD08425012060558826242257
:1046FC00A251226817681168814311602268916881
:10470C0008480140194391602000FFF773FF2368AC
:10471C001F602023A351002363550020F8BD022005
:10472C00FCE7C046FFFFFFF100234364014B036429
:10473C000020704780BF0000036C024A13400364E2
:10474C00002070477F40FFFF002905D1036C5B0000
:10475C005B08036400207047026C80231B06134324
:10476C000364F7E784B010B5040003910492059339
:10477C0001220264036C934303640021FFF7E4FFFE
:10478C0000236364002010BC08BC04B01847000070
:10479C004B78002B0CD00B789B00C01803680B4A8D
:1047AC001340102253400A4A134303600020704701
:1047BC000B789B00C0180368064A134080225201F4
:1047CC005A40034B13430360F0E7C046BF8FFF070B
:1047DC00808000008FBFFF07826D80231B02134374
:1047EC008365002070470000836D024A1340836587
:1047FC0000207047FF7FFFFF70B5DC1CA40803206E
:10480C0005001D40184200D0013C114B9C466244EF
:10481C000CE008784B781B0203438878000418439B
:10482C00CB781B06034308C20431013C002CF0D1A9
:10483C00002D0BD020000B78C600B3401C43013078
:10484C000131013DADB2002DF5D1146070BDC046F3
:10485C000098004070B505000C004B78012B34D04B
:10486C008A7A002A00D000E38B690A69934200D847
:10487C00D5E29B1A8B612378DB00CB498C466344D1
:10488C0059680904090C59603E2A00D8CBE2510939
:10489C00D20600D101392378DB00C34A9446634425
:1048AC005A6889061143802212060A435A602378FB
:1048BC009B00ED182B68BD4A1340C02292015A4050
:1048CC00BB4B13432B60002070BD8E690A69964266
:1048DC0000D91600A17A00292BD0E17802294BD0FF
:1048EC00226A921B22622278910069180968490693
:1048FC0000D43FE2002B00D026E2D200AA4B9C460B
:10490C00624453681B041B0C53603E2E00D8F9E123
:10491C007209F30600D1013A2378DB00A2498C46D8
:10492C006344596892061143802212060A435A6066
:10493C0019E2B3B2A28861692800FFF75DFF237802
:10494C00DB00994A944663441A681204120C1A60EC
:10495C002278D2006244116836040E431660237824
:10496C009B00EB181A6893490A4030214A40904941
:10497C000A431A600020A7E7236A9A4200D3A1E1F8
:10498C0023789B00EB1819688B4A11408B4A0A4319
:10499C001A60236A9B1B236223789A00AA18126858
:1049AC00520600D4BFE06278002A3CD1DB007E4A7C
:1049BC00944663445A681204120C5A603E2E10D965
:1049CC007209F30600D1013A2378DB0076498C4654
:1049DC006344596892061143802212060A435A60B6
:1049EC0023E0002E11D12378DB006F4A94466344F8
:1049FC005A6873490A405A602378DB00634459684B
:104A0C00802212060A435A600FE07208F30700D5A1
:104A1C0001322378DB0064498C4663445968920662
:104A2C000A435A6001E0012A2DD02289B3B2616990
:104A3C002800FFF7E1FE63699B196361236A226911
:104A4C00934230D99B1B23626378002B51D123787E
:104A5C00DB00554A944663441A681204120C1A601F
:104A6C003E2E24D97209F30600D1013A2378DB00DB
:104A7C004D498C46634419689206114380221206F4
:104A8C000A431A6037E0DB00474A944663445A688D
:104A9C001204120C5A602378DB0063445A68310408
:104AAC000A435A60C1E7002222621E00CCE7002EA6
:104ABC0011D12378DB003C4A944663441A68404980
:104ACC000A401A602378DB006344196880221206BE
:104ADC000A431A600FE07208F30700D501322378FD
:104AEC00DB0031498C466344196892060A431A600C
:104AFC0001E0012B06D0E288B3B261692800FFF710
:104B0C007BFE2CE72378DB00274A944663441A6823
:104B1C001204120C1A602378DB0063441A68310407
:104B2C000A431A60E7E76278002A4BD1DB001E4A81
:104B3C00944663441A681204120C1A603E2E10D963
:104B4C007209F30600D1013A2378DB0016498C4632
:104B5C006344196892061143802212060A431A60B4
:104B6C0032E0002E11D12378DB000F4A94466344C7
:104B7C001A6813490A401A602378DB0063441968E9
:104B8C00802212060A431A601EE07208F30700D551
:104B9C0001322378DB0004498C4663441968920681
:104BAC000A431A6010E0C046009800408FBFFF0710
:104BBC0080800000BF8FFF078F8FFF078081000070
:104BCC00FFFFFF83012A2DD0E288B3B26169280070
:104BDC00FFF712FE63699B196361236A2269934292
:104BEC0030D99B1B23626378002B51D12378DB00D7
:104BFC00C44A944663445A681204120C5A603E2EFE
:104C0C0024D97209F30600D1013A2378DB00BD499F
:104C1C008C466344596892061143802212060A435B
:104C2C005A6037E0DB00B74A944663441A681204B2
:104C3C00120C1A602378DB0063441A6831040A43AF
:104C4C001A60C1E7002222621E00CCE7002E11D1AF
:104C5C002378DB00AB4A944663445A68AA490A405D
:104C6C005A602378DB0063445968802212060A4399
:104C7C005A600FE07208F30700D501322378DB008D
:104C8C00A0498C466344596892060A435A6001E075
:104C9C00012B06D02289B3B261692800FFF7ACFD65
:104CAC005DE62378DB00974A944663445A68120405
:104CBC00120C5A602378DB0063445A6831040A43AF
:104CCC005A60E7E722789200AA1810688F490840CA
:104CDC008F49014311602278D2008A498C46624484
:104CEC0011680904090C11602278D2006244116821
:104CFC00180401431160E2889BB261692800FFF738
:104D0C007BFD2CE6002E11D12378DB007D4A9446E6
:104D1C0063445A687C490A405A602378DB00634438
:104D2C005968802212060A435A601CE07208F30785
:104D3C0000D501322378DB0072498C4663445968F4
:104D4C0092060A435A600EE0D2006E4B9C466244B7
:104D5C0053681B041B0C53602378DB0063445A68B4
:104D6C0031040A435A602289B3B261692800FFF703
:104D7C0043FDF4E5002B3CD1D200624B9C466244CF
:104D8C0013681B041B0C13603E2E10D97209F3061A
:104D9C0000D1013A2378DB005A498C4663441968E8
:104DAC0092061143802212060A431A6030E0002E4C
:104DBC0011D12378DB00534A944663441A68524954
:104DCC000A401A602378DB006344196880221206BB
:104DDC000A431A601CE07208F30700D501322378ED
:104DEC00DB0048498C466344196892060A431A60F2
:104DFC000EE0D200434B9C46624413681B041B0C10
:104E0C0013602378DB0063441A6831040A431A6088
:104E1C00E288B3B261692800FFF7EEFC9FE500223F
:104E2C008A611A0027E5002A11D12378DB00354A64
:104E3C00944663445A6834490A405A602378DB002C
:104E4C0063445968802212060A435A602FE55108C0
:104E5C00D20700D501312378DB002A4A94466344FB
:104E6C005A6889060A435A6021E5CA78022A51D049
:104E7C00012A00D05AE189692269914200D8F5E0F3
:104E8C00891AA161002B1BD12378DB001D498C46AC
:104E9C00634419680904090C19603E2A00D8E9E03A
:104EAC005109D30600D101392378DB00154884461B
:104EBC006344186889060843802109060143196078
:104ECC006378002B00D01BE12378DB000D498C4666
:104EDC00634459680904090C59603E2A00D8EBE078
:104EEC005109D20600D101392378DB00054A9446DA
:104EFC0063445A6889061143802212060A435A6099
:104F0C00D5E4C04600980040FFFFFF838F8EFF075B
:104F1C0080800000002B1BD10B78DB00854A944667
:104F2C0063441A681204120C1A600B693E2B2FD9B9
:104F3C005A09DB0600D1013A2378DB007D498C4607
:104F4C006344196892061143802212060A431A60C0
:104F5C006378002B60D12378DB00764A9446634457
:104F6C005A681204120C5A6023693E2B32D95A0922
:104F7C00DB0600D1013A2378DB006E498C46634492
:104F8C00596892061143802212060A435A6045E082
:104F9C00002B11D10B78DB00664A944663441A68E7
:104FAC0065490A401A602378DB0063441968802243
:104FBC0012060A431A60CBE75A08DB0700D5013208
:104FCC002378DB005B498C466344196892060A43DC
:104FDC001A60BDE7002B11D12378DB00554A9446AB
:104FEC0063445A6854490A405A602378DB0063448E
:104FFC005968802212060A435A600FE05A08DB07F0
:10500C0000D501322378DB004A498C466344596849
:10501C0092060A435A6001E0012B15D0E369002B7C
:10502C0000D144E423789B00EB181A6843490A40EA
:10503C008A4202D0002A00D039E41968404A114053
:10504C00404A0A431A6032E42378DB00394A94461A
:10505C0063445A681204120C5A602378DB006344D0
:10506C005A68216909040A435A60D7E70022A261F1
:10507C000A0007E7002A11D12378DB002D498C4662
:10508C00634419682C48014019602378DB006344A1
:10509C001868802109060143196011E75108D307EC
:1050AC0000D501312378DB0022488446634418681C
:1050BC0089060143196003E7002A12D12378DB002B
:1050CC001C4A944663445A681B490A405A60237828
:1050DC00DB0063445968802212060A435A60FFF7CA
:1050EC00E6FB5108D20700D501312378DB00114AC9
:1050FC00944663445A6889060A435A60FFF7D7FB03
:10510C00012B01D0FFF7D3FB2378DB0009498C4638
:10511C00634459680904090C59602378DB00634423
:10512C00596812040A435A60FFF7C1FB0120FFF7CC
:10513C00CBFBC04600980040FFFFFF8340400000BF
:10514C008F8FFF07C08000001B230380004870472F
:10515C004800002000207047002070470A2303807D
:10516C000048704764000020B5239B00C358B0333F
:10517C009B001B58002B16D08322D2009A5C0A2A63
:10518C0012D00A218322D2009954083A0E20985446
:10519C0000220F481A540F481A540F481A540F483B
:1051AC0019540F495A54704702218322D200995442
:1051BC0000228220C0001A5405481A5405481A547B
:1051CC0005481A540548195405495A54EBE7C0468A
:1051DC001104000012040000130400001404000069
:1051EC0015040000B5239B00C358B0339B001B581B
:1051FC00002B22D08322D200995C8A1ED2B2012AC3
:10520C0005D9052903D0062901D0092915D1022178
:10521C008322D200995400228220C0001A540748DD
:10522C001A5407481A5407481A540748195407497E
:10523C005A5415395A5006495A50704711040000F7
:10524C0012040000130400001404000015040000F4
:10525C000404000010B5B5239B00C358B0339B0069
:10526C00C0184368062906D81868044C210000F0C1
:10527C008AFC200010BD0020FCE7C0460409002079
:10528C0010B582B004008278C3781B0213430278F5
:10529C00934215D96B46DA80A278E3781B0213434C
:1052AC006A46063212889A4207D26B46991D00F064
:1052BC004FFC4378212BEFD100E0002002B010BD51
:1052CC000020FBE770B50500B5239B00C358B03335
:1052DC009B001C58B4239B00C058FFF7D1FF002C37
:1052EC0014D0002812D0164B0022E25483785B07AE
:1052FC000DD506328323DB00E2540023114963549D
:10530C001149635411496354114BE25470BD082286
:10531C008323DB00E25400230A4963540A49635493
:10532C000A4963540A4BE254280000F002FCBFF314
:10533C004F8F084B084ADA60BFF34F8FC046FDE72A
:10534C0019040000110400001204000013040000F2
:10535C001404000000ED00E00400FA0510B582B062
:10536C00B5239B00C358B0339B001C58C3185A6814
:10537C00002C00D173E08323DB00E35C042B04D00E
:10538C00072B68D0032002B010BD8023DB00E1584E
:10539C0000293ED1354BE358012B49D0052B2BD19D
:1053AC002378212B17D0412B5BD160788123DB0034
:1053BC00E050A17809024018E050E1780904401847
:1053CC00E050217909064018E050D368984700282E
:1053DC002ED00320D7E763788122D200A350A17886
:1053EC0009025B18A350E17809045B18A3502179DA
:1053FC0009065B18A3501BE000231C4AA350043A77
:10540C00A3506A4613700133D380694600F0B1FB98
:10541C000EE001290CD9023989028123DB00E35803
:10542C00C9181369114AA2582000984700281AD1AC
:10543C0000230E4AA350043AA35003228321C9002F
:10544C0062540B4963540B4963540B4963540B4B23
:10545C00E254002097E7FFF735FF002093E7032085
:10546C0091E703208FE703208DE7C046040400007A
:10547C0011040000120400001304000014040000C6
:10548C00F8B50500B5239B00C358B0339B001C58DE
:10549C00C3185E68002C77D0CB88002B67D0832391
:1054AC00DB00E35C022B01D0092B58D14888802308
:1054BC00DB00E050CF883A1C9F4200D91A1C92B2F4
:1054CC00324BE25000281BD1032A17D90222832326
:1054DC00DB00E25400232E4963542E4963542E49B9
:1054EC0063542E4962542370213363702033A370AC
:1054FC0003222100280000F064FB45E00922E6E7C6
:10550C0001281BD909218323DB00E1540023204F00
:10551C00E355204FE355204FE355204BE15402381F
:10552C0080020C3BE358C0187369210098470100B6
:10553C00164BE258280000F044FB25E00F22832391
:10554C00DB00E2540023124823541248235412481F
:10555C002354124BE254280000F00BFB14E0002300
:10556C000A4AA350043AA35000F003FB0CE00222B9
:10557C008323DB00E254002305496354054963543B
:10558C0005496354054BE254F8BDC04604040000C1
:10559C0011040000120400001304000014040000A5
:1055AC0070B50400B5239B00C358B0339B001D5845
:1055BC00C3185E68B4239B00C058FFF761FE002D32
:1055CC0011D0002E0FD000280DD08323DB00EB5C14
:1055DC00032B09D0062B40D08223DB00E9180622CE
:1055EC00200000F0EEFA70BD2F4BEB58002B26D0AC
:1055FC0004228323DB00EA5400232C496B542C49EE
:10560C006B542C496B542C4BEA54143BEB58002B29
:10561C0002D12B78412B09D0B3698222D200AA186F
:10562C008121C900685801219847D5E7B3698222C6
:10563C00D200AA180B39685800219847CCE70522EC
:10564C008323DB00EA54002318496B5418496B542C
:10565C0018496B54184BEA54BEE7184BEB5C012B02
:10566C0012D0002BB8D183785B07B5D502228323E7
:10567C00DB00EA5400230D496B540D496B540D4962
:10568C006B540D4BEA54A7E706338322D200AB547C
:10569C00064A0121A954002205496A5405496A5455
:1056AC00054AAB5498E7C0460404000011040000FE
:1056BC00120400001304000014040000190400007C
:1056CC0010B5B5239B00C358B0339B001958002963
:1056DC0006D08323DB009C466144012200F071FA62
:1056EC0010BD000010B5B5239B00C358B0339B0010
:1056FC001B58002B38D0CA88002A1FD08322D20016
:10570C009A5C022A01D0052A15D14A888024E4002B
:10571C001A51C9880A1CA14200D9221C92B2144900
:10572C005A5003218324E4001955124C19551900C1
:10573C0000F055FA18E000F01CFA15E08322D200B4
:10574C009A5C052A01D0022A0FD10B4A01219954E7
:10575C000531013A9954002208481A5408481A5441
:10576C0008481A54034A995410BD00F002FAFBE79A
:10577C0004040000140400001904000011040000CB
:10578C00120400001304000070B505000E00B523D0
:10579C009B00C358B0339B001C58B4239B00C058CB
:1057AC00FFF76EFD002C2DD000282BD08323DB00BF
:1057BC00E25C931EDBB2012B05D9052A03D0062A25
:1057CC0001D0092A15D102228323DB00E2540023E5
:1057DC008221C90063540E4963540E4963540E4927
:1057EC0063540E4962540E4AA354153AA3500D4A01
:1057FC00A35083781B0706D5280000F09AF92800DF
:10580C0000F093F970BD7088FBF7AEFEFAE7C04666
:10581C001104000012040000130400001404000022
:10582C001504000004040000F0B583B004000D0062
:10583C00B5239B00C358B0339B0019586B4600220C
:10584C00DA80002900D198E02B78603216001E40D7
:10585C001A422CD0202E00D088E06E78062E21D84B
:10586C00B300474AD3589F462900FFF73BFF002659
:10587C0080E02900FFF704FE00267BE0FFF790FE96
:10588C00002677E0FFF770FC002673E0FFF718FFA7
:10589C0000266FE0FFF7A6FC00266BE02900FFF75F
:1058AC0073FF67E0290000F064F9032662E06F786B
:1058BC000B2F55D8BB00334AD3589F46A7239B00C8
:1058CC00C35C032B04D0290000F053F9032651E0EC
:1058DC0002226B46991D00F074F93E004AE06B8879
:1058EC001B0A212B46D1B4239B00C058FFF7C8FCE0
:1058FC00011E09D0EB881A1C092B00D9092292B27F
:10590C00200000F05EF935E02900200000F031F9AC
:10591C0003262FE0A7239B00C35C032B04D0290094
:10592C0000F027F9032625E0174B9C466144012221
:10593C0000F047F91EE0AE78002E0CD1A7239B0097
:10594C00C35C032B02D1104BCE5013E0290000F0A6
:10595C0010F903260EE0290000F00BF9032609E0EC
:10596C002900200000F005F9032603E0290000F0CF
:10597C0000F90326300003B0F0BD0326FAE7C04659
:10598C0014600008306000080C04000070B50400BE
:10599C00B5239B00C358B0339B001B58002B25D05C
:1059AC0000258022D2009D50114A9D500222832155
:1059BC00C9005A5408395D540E495A54B526B600DC
:1059CC008359B0339B00C3185B689B689847A359F5
:1059DC00B0339B00185900F097FAA359B0339B00D1
:1059EC001D51AF239B00E550002070BD0220FCE749
:1059FC00040400001404000070B504001F4800F0FB
:105A0C007FFA031E2FD0B52189006258B032920064
:105A1C001051AF229200A050002219481A5004389D
:105A2C0080252D051D5008381A5016481A50164856
:105A3C001A5402208325ED005855083D5A55134D34
:105A4C005A55134D5A55134D5A55134D5855134815
:105A5C001A546358B0339B00E41863685B6898472A
:105A6C00002809D170BDB5239B00E358B0339B00CF
:105A7C0000221A510220F5E70320F3E71C04000072
:105A8C000C040000040400001904000011040000C0
:105A9C00120400001304000014040000150400009C
:105AAC00002908D0B5239B00C358B0339B00C01805
:105ABC004160002070470320FCE710B5002814D08B
:105ACC000023AE24A40003510C3403510C340351B5
