:020000040800F2
:1000000000400220F10F0008E50C0008E70C000892
:1000100000000000000000000000000000000000E0
:10002000000000000000000000000000E90C0008D3
:100030000000000000000000EB0C0008ED0C0008C0
:10004000411000084110000841100008411000084C
:10005000411000084110000841100008411000083C
:10006000F50C00084110000841100008411000087C
:10007000411000084110000841100008411000081C
:10008000411000084110000841100008411000080C
:1000900041100008411000084110000841100008FC
:1000A00041100008411000084110000841100008EC
:0C00B00041100008411000084110000839
:1000BC0010B5064C2378002B07D1054B002B02D032
:1000CC00044800E000BF0123237010BD9001002004
:1000DC0000000000C8590008044B10B5002B03D0D9
:1000EC000349044800E000BF10BDC04600000000FA
:1000FC0094010020C85900080023C25C0133002A77
:10010C00FBD1581E7047000002B4714649084900E3
:10011C00095649008E4402BC7047C04602B4714671
:10012C0049084900095C49008E4402BC7047C0462E
:10013C0003B47146490840004900095E49008E44E9
:10014C0003BC7047002243088B4274D303098B42D3
:10015C005FD3030A8B4244D3030B8B4228D3030C8B
:10016C008B420DD3FF22090212BA030C8B4202D32D
:10017C001212090265D0030B8B4219D300E0090A55
:10018C00C30B8B4201D3CB03C01A5241830B8B425E
:10019C0001D38B03C01A5241430B8B4201D34B0347
:1001AC00C01A5241030B8B4201D30B03C01A5241AC
:1001BC00C30A8B4201D3CB02C01A5241830A8B4231
:1001CC0001D38B02C01A5241430A8B4201D34B021A
:1001DC00C01A5241030A8B4201D30B02C01A52417E
:1001EC00CDD2C3098B4201D3CB01C01A5241830932
:1001FC008B4201D38B01C01A524143098B4201D36C
:10020C004B01C01A524103098B4201D30B01C01A96
:10021C005241C3088B4201D3CB00C01A5241830810
:10022C008B4201D38B00C01A524143088B4201D33D
:10023C004B00C01A5241411A00D20146524110469D
:10024C007047FFE701B5002000F0F0F802BDC04692
:10025C000029F7D076E7704703460B437FD4002282
:10026C0043088B4274D303098B425FD3030A8B423E
:10027C0044D3030B8B4228D3030C8B420DD3FF22A8
:10028C00090212BA030C8B4202D31212090265D076
:10029C00030B8B4219D300E0090AC30B8B4201D329
:1002AC00CB03C01A5241830B8B4201D38B03C01A70
:1002BC005241430B8B4201D34B03C01A5241030BE7
:1002CC008B4201D30B03C01A5241C30A8B4201D398
:1002DC00CB02C01A5241830A8B4201D38B02C01A43
:1002EC005241430A8B4201D34B02C01A5241030ABA
:1002FC008B4201D30B02C01A5241CDD2C3098B429F
:10030C0001D3CB01C01A524183098B4201D38B011B
:10031C00C01A524143098B4201D34B01C01A5241BE
:10032C0003098B4201D30B01C01A5241C3088B4203
:10033C0001D3CB00C01A524183088B4201D38B00EE
:10034C00C01A524143088B4201D34B00C01A524190
:10035C00411A00D201465241104670475DE0CA0F67
:10036C0000D04942031000D34042534000229C4627
:10037C0003098B422DD3030A8B4212D3FC22890131
:10038C0012BA030A8B420CD3890192118B4208D307
:10039C00890192118B4204D389013AD0921100E069
:1003AC008909C3098B4201D3CB01C01A524183097D
:1003BC008B4201D38B01C01A524143098B4201D3AA
:1003CC004B01C01A524103098B4201D30B01C01AD5
:1003DC005241C3088B4201D3CB00C01A524183084F
:1003EC008B4201D38B00C01A5241D9D243088B42A5
:1003FC0001D34B00C01A5241411A00D20146634648
:10040C0052415B10104601D34042002B00D54942AB
:10041C00704763465B1000D3404201B5002000F0EA
:10042C0005F802BD0029F8D016E770477047C046A2
:10043C00002B11D1002A0FD1002900D1002802D0A5
:10044C000021C943080007B4024802A140180290D9
:10045C0003BDC046D9FFFFFF03B4684601B502983F
:10046C0000F006F8019B9E4602B00CBC7047C046DB
:10047C00F0B557464E464546DE46E0B504000D0045
:10048C009246994683B08B4230D82DD0494650467F
:10049C0000F0BAF829000600200000F0B5F8331A75
:1004AC009846203B34D49B4653465A46934042468A
:1004BC001F00534693401E00AF423BD8AF4200D1C1
:1004CC0079E05B46A41BBD41002B00DA76E00022EC
:1004DC0000230092019301235A4693400193012378
:1004EC0042469340009329E08242CFD90022002358
:1004FC00009201930C9B002B01D01C605D60009856
:10050C00019903B0F0BCBB46B246A946A046F0BD6B
:10051C0042469B4620239B1A5246DA404146130022
:10052C004A468A40170042461F43534693401E00DA
:10053C00AF42C3D900220023009201934346002B03
:10054C00D8D0FB0772081A4346467B080EE0AB4234
:10055C0001D1A2420CD8A41A9D41012024196D414D
:10056C000021013E24184D41002E06D0AB42EED99D
:10057C00013E24196D41002EF8D1009801995B467B
:10058C0000196941002B24DB2B005A464446D3400A
:10059C002A00E2401C005B461500002B2ADB2600DB
:1005AC009E40330026004746BE403200801A9941D7
:1005BC00009001919EE7A342BCD882E742462023DB
:1005CC0000219B1A0022009101920122DA40019233
:1005DC0085E7424620239B1A2A0046469A40230070
:1005EC00F340444613432A00E2401C005B461500CE
:1005FC00002BD4DA42462F002023260097409B1A6A
:10060C00DE403B003343CDE710B5002903D100F0A9
:10061C0007F8203002E0080000F002F810BDC046D8
:10062C001C2101231B04984201D3000C10391B0A16
:10063C00984201D3000A08391B09984201D30009DA
:10064C00043902A2105C40187047C0460403020231
:10065C0001010101000000000000000070B5002540
:10066C002C00074EB188306800F0E2FFA84001353D
:10067C000443E4B20836032DF4D1A020204370BD0E
:10068C00000000200F48104B082210B50D2103600C
:10069C0000234261073A43608360C3600382837422
:1006AC008261C161026242628262C262026343631E
:1006BC008363C36300F07CFD002801D000F09CFA3A
:1006CC0010BDC04614020020006400400F48104BBF
:1006DC00082210B50D21036000234261073A4360E4
:1006EC008360C360038283748261C161026242626F
:1006FC008262C262026343638363C36300F058FD8A
:10070C00002801D000F078FA10BDC046B0010020DE
:10071C000068004010B504009CB01422002104A80D
:10072C0004F0D0FC4C22002109A804F0CBFC236877
:10073C00314A93422FD1802309A89B04099302F0DC
:10074C00CFF9002801D000F057FA2C4B1A6801326F
:10075C001A602B4B012A08D18021DA6B49010A431C
:10076C00DA63DA6B0A400092009A08215A6B25482A
:10077C000A435A6302225B6B05920B4001930022E1
:10078C00019B0323069204930792089304A900F09B
:10079C0097FE1CB010BD1C4A9342FAD1802309A8C5
:1007AC009B04099302F09CF9002801D000F024FA74
:1007BC00124B1A6801321A60114B012A08D18021A0
:1007CC00DA6B49010A43DA63DA6B0A400292029A45
:1007DC000222596B0D48114359635B6B04A91340FA
:1007EC000393039B60230493002306930793033323
:1007FC0005920893CBE7C04600640040AC01002092
:10080C0000100240000C0050006800400004005032
:10081C00F0B58BB01422002105A804F053FC042180
:10082C000125384BE0245A6BA0270A435A635A6BB4
:10083C0024020A400092009A5A6B1C310A435A63F4
:10084C005A6B314E0A400192019A5A6B1E392A4357
:10085C005A635A6BFF052A400292029A5A6B2B4834
:10086C000A435A635A6B0A400392039A5A6B063135
:10087C000A435A635B6B00220B4004932100049BD8
:10088C0000F0DCFE38000022214900F0D7FE0022E7
:10089C003000204900F0D2FE0594002405A91B4825
:1008AC0006950794089400F00BFE1B4B380005A925
:1008BC0005930694079400F003FE154B380005A928
:1008CC00059306950794089400F0FAFD114B30003F
:1008DC0005A9059306950794089400F0F1FD0F4BBC
:1008EC00300005A905930694079400F0E9FDC02398
:1008FC00064805A905930694079400F0E1FD0BB09A
:10090C00F0BDC0460010024000040050000800502A
:10091C00108000008B100000030700001480000002
:10092C0010B5134B134C01222360134B2000636052
:10093C000023E260A36023616361A361E36123622E
:10094C0000F082FE002801D000F056F900212000B2
:10095C0000F0D8FE002801D000F04EF90021200054
:10096C0000F0F6FE002801D000F046F910BDC0469C
:10097C000058004078020020BC7D701010B50400B7
:10098C009AB01422002102A804F09CFB4C220021F6
:10099C0007A804F097FB174B22689A4228D14023F2
:1009AC0007A8079302F09CF8002801D000F024F966
:1009BC000222114C1148636B02A913436363636BEE
:1009CC0013400093009BC023DB010293122303937B
:1009DC000023049305930633069300F071FD8022E7
:1009EC00E36BD2031343E363E36B13400193019B6B
:1009FC001AB010BD00580040001002400004005016
:100A0C0030B5102595B03C22002105A804F05AFB06
:100A1C002A00002101A804F055FB8020800001F081
:100A2C00DDFC2123059380235B0206938023DB03EB
:100A3C000C9303230E931D33109380239B0211936D
:100A4C0080239B041293802302249B0505A80D94FC
:100A5C000F95139301F0EEFC002801D072B6FEE75F
:100A6C00072303900490210001A80193029401F044
:100A7C0079FF002801D072B6FEE715B030BD00003A
:100A8C00F0B50825534CA027A54400F0FDFAFFF75C
:100A9C00B7FFFFF7BDFEFFF7F5FDFFF717FEFFF7FA
:100AAC003FFF00F0ABF800F049F900F07DF900F0E1
:100ABC00B1F900F0CDF904F0A5F82A00464903A8D5
:100ACC0004F034FBFFF7CAFD444B040018000193FB
:100ADC0000F07CFC112380220593002392030B92DF
:100AEC003F4922000EA806930793089509930A9391
:100AFC000C930D9304F0C4FAFF05802139480902C8
:100B0C0000F096FD01284AD1012280213648890146
:100B1C0000F094FD80213800890000F089FD012847
:100B2C0046D1012280213048C90100F087FD802187
:100B3C002D4800F07DFD012842D1012280210025A5
:100B4C002948090200F07AFD1D210EA804F0AEF828
:100B5C00019803AA05A900F04FFC244C2A00244953
:100B6C004EA804F08DFAA1882068012200F066FDE1
:100B7C00AB009C4666461F4864232E224EA9805922
:100B8C0002F0A1FB0135A1882068002200F056FD7F
:100B9C000834042DE2D1642000F09CFAADE78021EA
:100BAC003800490000F044FD0128ADD00022ACE72C
:100BBC0040210D4800F03CFD0128B2D00022B1E7E5
:100BCC0080213800C90000F033FD0128B5D0002287
:100BDC00B4E7C046C4FDFFFF315A000814020020E0
:100BEC00E0590008000400500008005028000020C4
:100BFC00005A00081800002072B6FEE71048114B8E
:100C0C0010B503608223C0225B0043600023920076
:100C1C00C260013AFF3A8261FA3A83600361436130
:100C2C00C361036243628362FF3A03630833C262A7
:100C3C00436302F0A7F8002801D0FFF7DDFF10BDD9
:100C4C00CC0200200030014010B5040088B0142202
:100C5C00002103A804F036FA104B22689A421AD1EC
:100C6C0080210F4B49011A6CA0200A431A641A6C9C
:100C7C00C0050A4001210192019A5A6B0A435A633A
:100C8C005B6B0B400293029BE02303A90393DE3BB7
:100C9C00049300F015FC08B010BDC04600300140B4
:100CAC000010024007B501210A4BC0201A6CC0008D
:100CBC000A431A641A6C0A4080210092009ADA6B7B
:100CCC0049050A43DA63DB6B0B400193019B00F08F
:100CDC0013FA07BD00100240FEE7FEE770477047AD
:100CEC0010B500F0E5F910BD10B5024800F0F0FDAC
:100CFC0010BDC046881600200B490C4A0300521A3E
:100D0C000B4910B50868002801D10A48086008682A
:100D1C00C318934206D904F0DDF90C2303600120BB
:100D2C00404210BD0B60FCE7004000000040022078
:100D3C0030030020B01A00207047000010B5184B8B
:100D4C00184C0C222360E1235B026360002320001B
:100D5C00A360E36023616261A361E3612362636268
:100D6C00A36202F07FFB002801D0FFF745FF0021B2
:100D7C00200002F0F1FB002801D0FFF73DFF00211D
:100D8C00200002F009FC002801D0FFF735FF2000FD
:100D9C0002F0C4FB002801D0FFF72EFF10BDC046A7
:100DAC0000440040F004002010B5184B184C0C22E5
:100DBC002360E1235B02636000232000A360E360F7
:100DCC0023616261A361E36123626362A36202F047
:100DDC0049FB002801D0FFF70FFF0021200002F093
:100DEC00BBFB002801D0FFF707FF0021200002F019
:100DFC00D3FB002801D0FFF7FFFE200002F08EFB92
:100E0C00002801D0FFF7F8FE10BDC0460048004096
:100E1C005C0400200C480D4B10B50360E1235B0211
:100E2C000C224360002342618360C36003618361D1
:100E3C00C36103624362836202F014FB002801D099
:100E4C00FFF7DAFE10BDC046C8030020005000407A
:100E5C000C480D4B10B50360E1235B020C22436080
:100E6C00002342618360C36003618361C3610362D9
:100E7C004362836202F0F6FA002801D0FFF7BCFE51
:100E8C0010BDC04634030020003C014010B50400E6
:100E9C00A0B01422002108A804F014F94C2200215F
:100EAC000DA804F00FF92368474A934229D1022375
:100EBC000DA80D9301F014FE002801D0FFF79CFE45
:100ECC008021424B8902DA6BA0200A43DA63DA6B89
:100EDC00C0050A400092009A0122596B11435963D4
:100EEC005B6B08A913400193019B0C2308930A3BED
:100EFC00099300230C920A930B9300F0E1FA20B0B3
:100F0C0010BD334A934226D104230DA80D9301F052
:100F1C00E7FD002801D0FFF76FFE80212B4BC902A3
:100F2C00DA6B0A43DA63DA6B0A400292029A022203
:100F3C00596B114359635B6B099213400393039BE9
:100F4C00C0231B01089300230A930B9304332148FD
:100F5C000C9308A9D1E7204A93421AD180211B4B4C
:100F6C004900DA6B1D480A43DA63DA6B0A400492D3
:100F7C00049A5A6BF8390A435A635B6B0B4005931E
:100F8C00059B0C2308930A3B099301330C9308A986
:100F9C00B3E7134A9342B2D180210C4B8900DA6B30
:100FAC000A43DA63DA6B0A400692069A0222596BFC
:100FBC00114359635B6B099213400793079BC02342
:100FCC009B0008930823C2E7004400400010024035
:100FDC00004800400004005000500040000C00503D
:100FEC00003C01400D488546FFF7A6FE0C480D4914
:100FFC000D4A002302E0D458C4500433C4188C4268
:10100C00F9D30A4A0A4C002301E013600432A242CD
:10101C00FBD304F065F8FFF733FDFEE70040022038
:10102C000000002090010020485B00089001002087
:10103C00B01A0020FEE7000070B5104B05001978BF
:10104C00002901D1012070BDFA208000FFF77AF849
:10105C000B4C01002068FFF775F800F08FF8041EA8
:10106C00F0D1032DEED8020001202900404200F0FF
:10107C004FF8044B20001D60E5E7C0464C000020F3
:10108C0048000020500000208023084A5B001168B3
:10109C0010B50B4303201360FFF7CEFF041E03D1E2
:1010AC00FFF700FE200010BD0124FBE700200240EA
:1010BC00034A044B11681B785B1813607047C046D9
:1010CC00840500204C000020014B18687047C04676
:1010DC008405002070B50400FFF7F6FF0500631CC3
:1010EC0002D0044B1B78E418FFF7EEFF401BA04224
:1010FC00FAD370BD4C000020034A044913680B401E
:10110C00034313607047C04600000140FFF9FFFF26
:10111C0010B5FF2403220B0021000240D2009140A5
:10112C009B012340C943934000280ADBC0240B4A8F
:10113C00800880008018A40002590A401343035110
:10114C0010BD0F2210400838054A80088000801816
:10115C00C26911401943C161F2E7C04600E100E0E9
:10116C0000ED00E0002805DB1F2318401E3B8340E8
:10117C00014A13607047C04600E100E08022431E24
:10118C005204012093420DD2C021074A07485360F4
:10119C00036A09061B021B0A0B4303620020072388
:1011AC00906013607047C04610E000E000ED00E076
:1011BC00F8B5041E00D1CDE005005C352B78DAB211
:1011CC00002B04D103005D331A70FFF7A3FA102132
:1011DC002268082793698B439361FFF775FF06001C
:1011EC0023689A693A4200D0A8E001269A693243F2
:1011FC009A61FFF769FF070023689A69324200D1B0
:10120C00AAE0022299690A439A61674A934202D181
:10121C006168664A1160217C4022012900D0A4E05B
:10122C00996991439961627C012A00D0A1E08022E6
:10123C009969D2010A439A61A27C012A00D09CE0F0
:10124C009A695B490A409A619A695A48A1680240B6
:10125C00A4200A439A619A6982439A611A69943864
:10126C0082431A61E268012A00D08BE0986903324C
:10127C0002439A61A269E069013A01380002520600
:10128C000243206A013802436069013800040243BA
:10129C00DA61C022920091420ED1E26A216B013ACE
:1012AC000139090112020A43A16A01390A43616A30
:1012BC00013909040A43DA601900C0310A68E06B8D
:1012CC003D4E02430A603D4A981842425041D42296
:1012DC004042920010403A4A0433D96F8018626B36
:1012EC00314012040A432064DA6702007032D96F6D
:1012FC006264344EA26B314012060A43DA67030073
:10130C00B033A364D833E36498239B00C3182365DC
:10131C009E239B00C3186365D4239B00C118031D37
:10132C00D422994200D2D33A0021920003F0CAFE93
:10133C0000200123A06520662B700CE0FFF7C4FE93
:10134C00801B0A2800D84BE70123226E1343236627
:10135C0003232B700120F8BDFFF7B6FEC01B0A2833
:10136C0000D849E7236E3343F1E799690A439A6140
:10137C0059E79A6914490A405DE78022996952013C
:10138C000A4360E7002A00D174E7022A09D08026BC
:10139C009F693E439E611E6930431861032A00D049
:1013AC0068E72022986963E700640040006500400C
:1013BC00FFEFFFFFFFFCFFFFFFFFE0FF0098FFBF09
:1013CC0000B40040FFFFFFF0FFBFFFFF02005C32E4
:1013DC0011780300C8B2012908D1013111701968C4
:1013EC008A69824300208A61186670470422196E4C
:1013FC0001200A431A66F8E70300F7B55C331B7843
:10140C00022B58D105682B00C4331C68A40206D5E6
:10141C008023026E9B0013430366012036E01C6898
:10142C008E68A403A30F4C6800930F680B69002C03
:10143C002DD13343BF048E691F43CB69009C3343CA
:10144C004E6933430E6A36063343CE683604334353
:10145C0048266643446DA44666447360082337608F
:10146C0037005B429E1B154B08370193CC68A44692
:10147C006346019CE35C9C46BB1963450CD301237A
:10148C00009ACC3593402B6083650020FEBD3B4316
:10149C0080273343FF05CEE7D3781B069C46644672
:1014AC0093781B0423431478234354780432240286
:1014BC00234308C7DAE70823026EACE7005B000899
:1014CC000023F0B585B00A681400DC4001D105B0EA
:1014DC00F0BD012514009D402C4000942A4200D1FF
:1014EC0095E04A685F009446032264462240032438
:1014FC00BC40E4430194541E012C2ED88668019CF8
:10150C002640CC68BC403443846044680126AC431C
:10151C0025006446240934409C402C434460C56833
:10152C00019C25408C68BC402C43C460022A16D117
:10153C0007250F261D40AD00AE40DC08A4000419A1
:10154C000294246A03962600039CA64334000E6979
:10155C00AE402643029C266201E0032ADFD1BA404A
:10156C000468019D25402A43C02402606246A402FF
:10157C0022424CD0274A03259C08A400A4180F2211
:10158C001D40ED00AA40A027266EFF0596430022C1
:10159C00B84210D0204F0132B8420CD01F4F01324C
:1015AC00B84208D01E4F0132B84204D01D4A8218EE
:1015BC00571EBA410432AA40674632432266154C84
:1015CC00009A2668009DD2433543FF0201D43500B2
:1015DC001540674625606668009D3543BF0201D4FF
:1015EC0035001540674665600F4C009DE66F35432E
:1015FC00BF0301D4350015406746E5670B4C009ED0
:10160C00E56F2E43FF0301D415402E00E66701332E
:10161C0059E7C04600180240000400500008005072
:10162C00000C005000F0FFAF0818024004180240F4
:10163C0000690840431E9841C0B27047002A01D08F
:10164C00816170478162FCE770B504000120002CB9
:10165C004ED0250041352B78DAB2002B05D1230072
:10166C00403320001A70FFF789F9242301212B70D5
:10167C002368E0681A68A6688A431A601D49626884
:10168C000A401A619A681C490A409A60012807D1DD
:10169C008022120232439A605A681848024009E0CC
:1016AC008422120232439A600228F5D180225868B3
:1016BC00120102435A605868114A02435A60DA68B0
:1016CC0000200A40DA60616922690A43A1690902B3
:1016DC000A43DA60216AE2690A431A600122196836
:1016EC000A431A60202360642B70206342342070FC
:1016FC0070BDC046FFFFFFF0FF7FFFFFFFF7FFFF4E
:10170C0000800002F0B504004134227803000F0081
:10171C000220D6B2202A18D11D0040352A78012A81
:10172C0013D0242222701B68233A1968074891436E
:10173C001960196801400020196019683943196053
:10174C0019680A431A6026702870F0BDFFEFFFFF7E
:10175C000200F0B5413214780300E5B20220202CCF
:10176C0017D11C0040342678012E12D02230107074
:10177C001B6823381E68074F86431E601E680902CB
:10178C003E403143196019680843186000201570F9
:10179C002070F0BDFFF0FFFF0A2382B00193019B84
:1017AC00002B07D1054BC000C01800688001800DCC
:1017BC0002B07047019B013BF0E7C0460098004027
:1017CC000A2382B00193019B002B07D1054BC0006B
:1017DC00C01840688001800D02B07047019B013B2E
:1017EC00F0E7C0460098004073B504000120002CBF
:1017FC002FD0244D635DDAB2002B05D1A5239B00BD
:10180C002000E25403F0EAFA03236355206801F048
:10181C00EDFE002322001900012620791432984293
:10182C0018D10021220008005532FF328B421BD107
:10183C006B46227C1A70E3686168A268206801F02C
:10184C00DDFE0023637401336355237B012B15D01C
:10185C00002076BD137001335670D1701161516147
:10186C009161DBB22832DAE7117001315070D0701F
:10187C00106150619061C9B22832D7E7200000F0A6
:10188C008EFDE5E79502000070B5A525AD00435D22
:10189C0004000220012B09D001236355206801F0BC
:1018AC009DFE206802F096F80020605570BD70B562
:1018BC00A525AD00435D04000220012B07D00123B8
:1018CC0063552068617402F07FF80020605570BD8C
:1018DC00F0B5040087B0006802F083F80422C84B0E
:1018EC001B6813420DD0802580232D021B0205405E
:1018FC00184200D1B8E3802226681202736C13429E
:10190C0001D107B0F0BD0F22736C1A4000920F2268
:10191C00134200D0A2E0190001321140134221D130
:10192C003368B84A200013408022120213433360FC
:10193C00237DB54ADB009B181B68A26A9B019B0D9B
:10194C002363D318A36203F0A4FA637C002BD2D0D8
:10195C00E26A2168002ACED18020637C0343CB64E9
:10196C006274C8E7336880221F00120117401342CB
:10197C001BD0AA235B00E05CFFF722FF2200A7210B
:10198C005532FF3289000300D06161183000D288D3
:10199C0002F052FA21689D4B0A6820001A408023FD
:1019AC0013430B6003F060FAA5E71B04A3D5326860
:1019BC00964B25001A40802313433360AA235B0007
:1019CC00E05CFFF7FDFE5535FF35031EE8610ED0D8
:1019DC00696900290BD03000EA8802F02DFA6B6996
:1019EC00EA6939009B1820006B6103F046FA206805
:1019FC0003681A0500D57EE7C0229201134093427A
:101A0C0000D178E7804B5A68920192095A602A6992
:101A1C003E2A16D91F2551092A4055426A41891A76
:101A2C005A6889061143802212060A435A600368D9
:101A3C00774A1340C02292015A40764B13430360FD
:101A4C0059E7002A01D15968EDE7012551082A40D0
:101A5C0089185A68890611435960E8E7009B9B0076
:101A6C000493F3181A6803926A4692890192039AB6
:101A7C00120400D482E01968644A2825114080229F
:101A8C000A431A60009B5D4365192B002A006133E1
:101A9C00FF331B785532FF32002B0CD11078FFF737
:101AAC008FFE071E4FD02B005B33FF33FC351A889B
:101ABC00E96E3B0044E0137802932B005833FF335C
:101ACC001B78022B00D0DAE08023019ADB011A404C
:101ADC000592019A0298FC351A4200D1A0E0FFF75A
:101AEC005BFE2A6F0300070082420ED200222A6797
:101AFC00029A47489200B218116801408020800178
:101B0C00484044490143116002E0121A2A67EFD0A1
:101B1C00019A520608D5029A3F499200B2181068F1
:101B2C0008403E4901431160002B0CD02821009A3B
:101B3C00514361180A005D32FF32FC311288C96EC4
:101B4C00300002F079F92823009959436218FC32CD
:101B5C00506FC0195067D06EC019D066106F002836
:101B6C0003D0926E974200D3A8E0009A2000534312
:101B7C00E3185533FF33197803F07FF92368029388
:101B8C00039B1B0600D4B6E6029A049B944663445E
:101B9C001A681C490A40802109020A431A6028234A
:101BAC00009959436618F27D012A00D0B5E0009ADD
:101BBC00013253430022E3185A60731CDB7F9342BB
:101BCC0014D0039B5B0600D48AE0737D934200D053
:101BDC007BE0337D0C4ADB009B181A68920192095A
:101BEC001A608022196812060A431A602823009A88
:101BFC005343E318197D200003F04BF97BE6C046F4
:101C0C00A00001400F8FFF07009800408F0FFF07C7
:101C1C008FBFFF07808000008F8FFF07C080000000
:101C2C00FFF7CEFD2A6F0300070082420ED2059A01
:101C3C002A67029AD2489200B2181168014080209B
:101C4C0080014840CF490143116002E0121A2A6713
:101C5C00EFD0019A520608D4029ACB499200B218DE
:101C6C0010680840C94901431160002B00D16AE794
:101C7C002821009A514361180A005F325CE7029BED
:101C8C00C1499B00F31818680840C049014319600A
:101C9C0010788300F3181B685B0407D5FFF77CFDF5
:101CAC00071E00D14FE72B005D33FEE6FFF788FDE2
:101CBC00071E00D147E72B005F33F6E65531FF31A5
:101CCC002068611801F0BEFE58E7012B8ED1337DE0
:101CDC00AF4ADB009B181A6892B21A601A6884E744
:101CEC00737D002B0DD1337DA94ADB009B185A68FC
:101CFC00920192095A608022596812060A435A606E
:101D0C0074E7012B00D071E7337DA14ADB009B18EF
:101D1C005A6892B25A605A68F1E780230398039A82
:101D2C005B00357D18401A4219D1994AEB009B187B
:101D3C001B68F26A9B019B0D9A4202D82900F06243
:101D4C0059E7D21AF262B26A1431D218B262326B0B
:101D5C000298D3183363611801F074FECBE540236D
:101D6C00019F019A28001F401A4200D1B7E0FFF7EB
:101D7C0013FDF26A0023824200D9131A8022019FBC
:101D8C00D201F3621740002B3FD1009A2833534302
:101D9C00E3185B7D002B28D180217D4AEB009B183A
:101DAC001A680906920192091A601A680A431A60A5
:101DBC005A68920192095A605A6811435960290075
:101DCC00200003F066F8002F00D1B7E02823009A1A
:101DDC005343E3181A7D236892009B1819686A4ACA
:101DEC0011406C4A0A431A60A8E0012BE7D1684AFB
:101DFC00EB009B181A6892B21A601A681A605A683B
:101E0C0092B25A605A685A60D9E7002F08D0029AE9
:101E1C00AB00D31819685C4A11405E4A0A431A6039
:101E2C002822009B5A43A218170038373B78012B05
:101E3C0000D083E0916A09189162336B1B183363ED
:101E4C00566B536A9E4228D3F61A56632822009882
:101E5C004243A218527D002A36D14D4AED00AD18EE
:101E6C002A68920192092A603E2B20D91F20184023
:101E7C00464270415A09121A286892060243802081
:101E8C00000602432A60282200989BB24243A21803
:101E9C00928B029801F0A8FD50E0002E02D10300B5
:101EAC003E70D3E700233B7053633300CEE7002B27
:101EBC0003D1802228681206E3E701205A08184053
:101ECC00121892062868DCE7012ADCD1304AED00B2
:101EDC00AD182A6892B22A6028681A04D1E7FFF775
:101EEC006FFCF26A3B00824200D3131A8022019FDE
:101EFC00D201F3621740002B50D1009A2833534380
:101F0C00E3185B7D002B2AD18021214AEB009B1822
:101F1C001A680906920192091A601A680A431A6033
:101F2C005A68920192095A605A6811435960290003
:101F3C00200002F0AEFF002F00D147E72823009AC3
:101F4C0015495343E3181A7D236892009B181A68AD
:101F5C000A40302151400B4A0A431A60CBE4012B52
:101F6C00E5D10B4AEB009B181A6892B21A601A68FA
:101F7C001A605A6892B25A605A685A60D7E7C046DB
:101F8C008FBFFF07808000008F8FFF07C08000008D
:101F9C000098004080C00000BF8FFF07002F08D1C1
:101FAC00029AAB00D3181968714A1140714A0A435E
:101FBC001A602822009B5A43A218170038373B7826
:101FCC00012BBBD1916A09189162336B1B183363D7
:101FDC00566B536A9E4225D3F61A566328220098F4
:101FEC004243A218527D002A33D1634AED00AD184A
:101FFC006A68920192096A603E2B1DD91F20184015
:10200C00464270415A09121A6868920602438020AF
:10201C00000602436A60282200989BB24243A21831
:10202C00D28B36E7002E02D103003E70D6E7002398
:10203C0053633B703300D1E7002B03D180226868D7
:10204C001206E6E701205A08184012189206686832
:10205C00DFE7012ADFD1484AED00AD186A6892B279
:10206C006A6068681A04D4E743050CD522684349B2
:10207C00536C20000B40536402F01DFF290020001C
:10208C00FFF715FC3DE4430405D522683C49536C2D
:10209C000B40536435E4802301009B011940184226
:1020AC0003D022683749536CF2E7C30417D5236871
:1020BC00186C9043186408201A6C82431A64B3237A
:1020CC009B00E25C012A03D12000E15400F07AF974
:1020DC00200002F013FF22682B49536CD8E703054C
:1020EC0010D508212368186C01431964596C2748D2
:1020FC0001405964196C0A431A64200002F0ECFE8A
:10210C00FFF7FFFB03061ED523682148596C0140DD
:10211C00B32059648000215C0029EED1196C0A436C
:10212C001A640822196C0A4301211A643C222154B6
:10213C005B6D20009B081340B4229200A35000F06A
:10214C0041F9FFF7DEFB830509D522681149536C71
:10215C0020000B40536402F0A7FEFFF7D2FBC00532
:10216C0001D4FFF7CEFB22680B49536C90E7C046B5
:10217C008F8FFF0780C0000000980040FFFB00001D
:10218C00FFBF0000FFDF0000FFEF0000FFF70000C3
:10219C007FFF0000FFFD0000FFFE000070B5040093
:1021AC0007200D000840282141436DB26618002D10
:1021BC0018DA012514316118757508700A61CB7035
:1021CC00022B01D100230B71A525AD00635D02200C
:1021DC00012B06D001236355206801F025FA00205D
:1021EC00605570BD002555315636FF31FF366118EC
:1021FC003570E2E707220B000A40282151435BB2FD
:10220C0070B504004018002B12DA01231431611848
:10221C004375A5250A70AD00635D0220012B06D025
:10222C0001236355206801F005FB0020605570BD4B
:10223C00002355315630FF31FF3061180370E8E749
:10224C00F8B50724214021344C4306193700FC37DC
:10225C003B6733000025563355365534FF33FF3674
:10226C00FF347D67FA661D7031700119006801F04A
:10227C00E9FB2800F8BD07230B40282159434018DF
:10228C00FC30406F704770B50724214021344C431B
:10229C0006193500B26201223835F3622A70002526
:1022AC00143435633175736372750119006801F06C
:1022BC00C9FB280070BD072270B5037904000A40E1
:1022CC000120934219D348B22823002816DA53432D
:1022DC00190001201431E318611858750123A52544
:1022EC008B700A70AD00625D02209A4205D0635576
:1022FC00206801F00FFB0020605570BD4B431900A6
:10230C000020E31855315633FF31FF336118187034
:10231C00E4E70B000F2270B5017904001A4001208C
:10232C0091421BD3072228211A4051435BB26018FB
:10233C00002B14DA01231431611843750025A526EE
:10234C008D700A70B600A35D0220012B06D001230C
:10235C00A355206801F0FEFA2800A55570BD002396
:10236C0055315630FF31FF3061180370E6E730B558
:10237C0028240D060BD5072529404C43143400198D
:10238C0099B2002A07D10273C180002030BD4C43A2
:10239C005534FF34F3E7012283600273F5E70268DA
:1023AC000300B520012110B58000B3241950002082
:1023BC00A4001855536D194302235165516D0B43FD
:1023CC00536510BD704700008023034ADB00516841
:1023DC000B4353607047C0460070004010B5114C61
:1023EC001149236802000B40034323608023002023
:1023FC009B009A420ED10D4B0D4918680623584389
:10240C00FDF7A0FE8022431CD20061690800104039
:10241C00114200D110BD002B01D0013BF5E7032088
:10242C00F8E7C04600700040FFF9FFFF48000020AD
:10243C0040420F00F0B5040085B0002802D1012005
:10244C0005B0F0BD0368DB0714D423689B0760D488
:10245C0023681B0700D5C5E023685B0700D5F6E0B1
:10246C0023689B0600D564E1236A002B00D0A5E10C
:10247C000020E5E73822C44DAB681340EA68102B06
:10248C0009D1D3439B0708D12B689B03DDD5636827
:10249C00002BDAD1D3E7082BF6D0802263685202E6
:1024AC00934211D12A6813432B60FEF70DFE80274F
:1024BC000600BF022B683B42C7D1FEF705FE801B0E
:1024CC006428F7D90320BBE7A021C9028B4208D1AD
:1024DC0080232968DB020B432B602B681A432A608C
:1024EC00E3E72A68A9490A402A602A68A8490A40F1
:1024FC002A60002BD9D1FEF7E7FD80270600BF022A
:10250C002B683B42A1D0FEF7DFFD801B6428F7D976
:10251C00D8E738229C4DAB681340EA68102B28D1C1
:10252C0003210A40022A26D12A68520503D5E26803
:10253C00002A00D183E7696862699648120201405B
:10254C000A436A60002B0CD12B68934A93491340C1
:10255C00226913432B602B68914A9B045B0FDA4072
:10256C000A60904B1868FEF767FD002800D16FE7F2
:10257C0065E7002BD8D0E368002B20D02B68864A67
:10258C00802713402269FF0013432B6080232A68A5
:10259C005B0013432B60FEF797FD06002B683B4254
:1025AC0007D06A6863697B491B020A4013436B605E
:1025BC004EE7FEF789FD801B0228EFD982E72B68D6
:1025CC00794A802713402B60FEF77EFD0600FF0042
:1025DC002B683B4200D13BE7FEF776FD801B0228BF
:1025EC00F6D96FE73822684DAB681340182B08D129
:1025FC002B6E9B0700D42FE7A369002B00D02BE791
:10260C001DE7A2690123002A10D02A6E022713436A
:10261C002B66FEF759FD06002B6E3B4200D01BE7E4
:10262C00FEF752FD801B0228F6D94BE72A6E0227D3
:10263C009A432A66FEF748FD06002B6E3B4200D1FA
:10264C000AE7FEF741FD801B0228F6D93AE738224B
:10265C004D4DAB681340202B08D1EB6D9B0700D47C
:10266C00FEE6A368002B00D0FAE6E8E68022002103
:10267C00EB6B52050091134208D1EB6B1343EB63E8
:10268C00EB6B13400393039B012300938027474E6E
:10269C007F0033683B4215D0A368012B22D1EA6D31
:1026AC001343EB65FEF710FD02270600EB6D3B4272
:1026BC0038D0009B012B00D0D2E6EB6B3C4A134088
:1026CC00EB63CDE633683B433360FEF7FDFC0190D2
:1026DC0033683B42E0D1FEF7F7FC019BC01A02289D
:1026EC00F6D9EFE6EA6D052B05D1013B1343EB65FB
:1026FC00EA6D0123D4E701218A43EA65EA6D0331CF
:10270C008A43EA65002BCDD1FEF7DEFC02270600DA
:10271C00EB6D3B42CDD0FEF7D7FC264B801B98428D
:10272C00F6D9CFE6FEF7D0FC224B801B9842BDD9E0
:10273C00C8E6E369144D002B13D080232A68DB0311
:10274C0013432B60FEF7C0FC802706003F042B6868
:10275C003B4200D088E6FEF7B7FC801B0228F6D976
:10276C00B0E62B68144A802713402B60FEF7ACFCB4
:10277C0006003F042B683B4200D175E6FEF7A4FC33
:10278C00801B0228F6D99DE600100240FFFFFEFFD9
:10279C00FFFFFBFFFF80FFFFFFC7FFFF480000208C
:1027AC000024F40050000020FFFEFFFF00700040EA
:1027BC00FFFFFFEF88130000FFFFBFFF3821434DE1
:1027CC00AA680A40102A53D0414A022B3AD12B68EE
:1027DC00802713402B60FEF777FC0600BF042B68A4
:1027EC003B4229D1A16A636AEA680B4339498026C6
:1027FC000A401343226BB6041343626B1343A26B60
:10280C001343E26A12021343EB6080232A685B04D1
:10281C0013432B608023EA685B051343EB60FEF7E0
:10282C0053FC04002B68334200D021E6FEF74CFC2D
:10283C00001B0228F6D945E6FEF746FC801B022851
:10284C00CDD93FE62B68802613402B60FEF73CFC6D
:10285C000400B6042B68334204D1EB681E4A1340C3
:10286C00EB6005E6FEF730FC001B0228F2D929E6E6
:10287C00012B00D1E3E50322E868616A02408A4239
:10288C0000D0DCE57022A16A02408A4200D0D6E575
:10289C00FE21E26AC90101401202914200D0CEE54C
:1028AC00F822216B920302408A4200D0C7E5E02255
:1028BC00616B120502408A4200D0C0E5A36B400F49
:1028CC004007C01A431E9841C0B2B9E5001002403F
:1028DC00FFFFFFFE8C80C111FCFFFEEE382370B5AC
:1028EC001D4CA2681A4205D123681C489B045B0F3F
:1028FC00D84070BDA2681A40082A27D0A2681A4096
:10290C00102A17D1E368E168DB43E5684906490FF3
:10291C006F322D0A013115409B0709D11048FDF784
:10292C0011FCE1686843490F0131FDF70BFCE0E74E
:10293C000A48F4E7A2681A40202A09D0A2680020AD
:10294C001340182BD5D1FA20C001D2E70448D0E7A8
:10295C0080200002CDE7C046001002400024F400A5
:10296C0000127A00F7B504000D00002801D10120F7
:10297C00FEBD0727484E33683B408B422AD3226862
:10298C0093073BD4D20748D4072733683B40AB426C
:10299C000AD93368BB432B433360FEF795FB019098
:1029AC0033683B40AB4268D123683C4D5B076CD429
:1029BC00FFF794FFAB683A491B051B0F9B005B5854
:1029CC001F210B40D840374A374B10601868FEF770
:1029DC0033FBCDE73368BB430B433360FEF774FB2B
:1029EC00019033683B40AB42C9D0FEF76DFB019BB5
:1029FC00C01A2E4B9842F4D90320B9E72749530744
:102A0C0004D5E0238868DB0103438B608B6828487E
:102A1C000340A06803438B60B4E760681F4F032832
:102A2C0029D8FDF77BFB20021C243B689B039ED519
:102A3C000722BB6893430343BB60FEF745FB019041
:102A4C003823BA681A406368DB009A429CD0FEF7C0
:102A5C003BFB019BC01A154B9842F1D9CCE73B6864
:102A6C009B01E5D483E73B685B05E1D47FE73B6ED4
:102A7C009B07DDD47BE7FB6DFAE7FEF725FB019B9B
:102A8C00C01A0A4B98428BD9B6E7AB68094A134077
:102A9C00E2681343AB608BE7002002400010024059
:102AAC00C05A000848000020500000208813000085
:102ABC00FFF0FFFFFF8FFFFF064B07499B68074A9C
:102ACC005B045B0F9B005B581F2110680B40D840C8
:102ADC007047C04600100240A05A00084800002071
:102AEC00F0B50368040085B000209B0352D580220A
:102AFC00974D5205EB6B0090134208D1EB6B1343CF
:102B0C00EB63EB6B13400393039B01230093802730
:102B1C00904E7F0033683B433360FEF7D5FA01904B
:102B2C0033683B4228D0EA6DC02310009B00216C17
:102B3C00894E18401A4218D0814216D08022EB6D73
:102B4C00E86D190052020243EA65EA6D8348314090
:102B5C000240EA65E965DB0707D5FEF7B5FA070021
:102B6C000222EB6D134200D1E9E0EB6D226C334095
:102B7C0013430020EB6506E0FEF7A6FA019BC01A92
:102B8C000228CDD90320009B012B03D1EB6B744A97
:102B9C001340EB632368DA0706D503256C494A6DAD
:102BAC00AA4365682A434A659A0706D50C256849E5
:102BBC004A6DAA43A5682A434A655A0706D53025AB
:102BCC0063494A6DAA43E5682A434A65DA0606D585
:102BDC005F49644D4A6D2A4025692A434A65DA04E7
:102BEC0006D55B495C4D4A6D2A4065692A434A65A6
:102BFC009A0506D556495C4D4A6D2A40A56A2A436A
:102C0C004A655A0506D55249584D4A6D2A40E56A1F
:102C1C002A434A659A0606D54D49554D4A6D2A40B8
:102C2C00A5692A434A655A0606D54949514D4A6D4C
:102C3C002A40E5692A434A655A040FD54449256B55
:102C4C004A6D920092082A434A658022D205954229
:102C5C0004D18022CD6852022A43CA601A0306D5D9
:102C6C0040253B494A6DAA43656B2A434A659A0243
:102C7C000FD53749404E4A6DA56B32402A434A6501
:102C8C008022D203954204D18022CD6852042A437B
:102C9C00CA605A020DD52E4D384E696DE26B31402B
:102CAC0011436965802149048A4202D1E9680A43CB
:102CBC00EA601A050DD503262549256A8A6DB243AB
:102CCC002A438A65012D04D18022CD6852022A4301
:102CDC00CA609A040DD50C261D49656A8A6DB243EB
:102CEC002A438A65042D04D18022CD6852022A43DE
:102CFC00CA6080256D042B420DD015491C4F8A6D7E
:102D0C00666C3A4032438A6580229201964202D127
:102D1C00CA681543CD609B010FD50D4AA16C936D0C
:102D2C000D4C23400B43936580235B00994204D1E7
:102D3C008023D1685B040B43D36005B0F0BDFEF774
:102D4C00C3F90F4BC01B984200D809E71AE7C046DD
:102D5C000010024000700040FFFCFFFFFFFFFEFF71
:102D6C00FFFFFFEFFFF3FFFFFFFFF3FFFFFFCFFFBF
:102D7C00FFCFFFFFFF3FFFFFFFFFBFFFFFFFFFFE88
:102D8C0088130000F8B504000120002C67D0636A9A
:102D9C00002B65D1822261685200914200D0E36120
:102DAC0000232500A3625D352B78DAB2002B05D108
:102DBC0023005C3320001A70FDF746FF02234022EB
:102DCC002B702168E6680B689343E0220B60D200FD
:102DDC000023964248D9F02218001201964200D0E6
:102DEC00A36282228427636852001340A2683F02C8
:102DFC003A40022713432269A5693A401343012242
:102E0C00676917403B438027BF002F403B43E7696E
:102E1C00373217403B43276A4832174080223B43E6
:102E2C00A76A920117403B43102708220B60636A84
:102E3C002D0C3B40676B17403B43F0273F013E4056
:102E4C003343042635402B4303434B60CB6908487E
:102E5C0003400020CB61012320665D342370F8BD54
:102E6C000023236163619BE780204001B6E7C046E5
:102E7C00FFF7FFFF30B5EFF31084012282F31088C7
:102E8C000168134D0B682B400B6084F31088EFF333
:102E9C00108182F3108802680E4C93682340936073
:102EAC0081F31088C36E012B0AD1EFF3108183F3E9
:102EBC001088102402681368A343136081F31088F0
:102ECC00030020228C331A600023C366436730BD95
:102EDC00DFFEFFFFFEFFFFEFF8B504002569A168D8
:102EEC00036829436569C269294318688B4D1143EE
:102EFC0028400143196059688948A5690140E06878
:102F0C00014388485960834204D087498B4201D0E1
:102F1C00216A0D439968854E314029430F259960EC
:102F2C00D96AA943656A2943D96281498B421BD16D
:102F3C000321804B5B6D0B401800022B06D0082040
:102F4C008B4203D0013B59424B41980080231B021A
:102F5C009A4200D0B2E008285AD8FDF7DFF8D959C8
:102F6C008E59AC5959598F0073498B420FD10C2192
:102F7C00704B02205B6D0B40082BE7D002D8591E1A
:102F8C008B41E2E710200C2BE0D10838DEE76B49CF
:102F9C008B420BD13021674B02205B6D0B40202BF9
:102FAC00D4D0ECD91020302BEFD0CFE764498B4232
:102FBC0000D1A9E063498B4200D1A5E062498B4264
:102FCC0000D1A1E0834216D1C0228021594B1201BD
:102FDC005B6D090113408B421FD017D8002B19D100
:102FEC00FFF76AFD061E19D10020584BA36600237B
:102FFC006367A367F8BD4C4A934209D1C022802174
:10300C004C4B92005B6D89001340E4E7934231D046
:10301C000120EAE7FFF762FCE4E74D4E626A4D4B94
:10302C005200D75A30003900FDF78CF8032365683D
:10303C006B438342ECD82B038342E9D300233A0041
:10304C0030001900FDF7F4F90027060E0B0233438C
:10305C0002026E0892197B41100019002A003B00F5
:10306C00FDF7E6F93C4BC2183C4B9A42D0D823688A
:10307C00D860B9E780263602D0E7354A616A354B0D
:10308C0049001000C95AFDF75DF8656840006B08EF
:10309C00C0182900FDF756F80200314B103A9A423D
:1030AC00B6D80F23020000079A4393B2400F226850
:1030BC000343D36098E7FFF711FC2BE00828A7D84F
:1030CC00FDF722F816A605A61CA6A6A61F002048EA
:1030DC00626A204B5200D15AFDF734F865686B08D0
:1030EC00C0182900FDF72EF802001D4B103ABCE762
:1030FC00FFF7E2FC002800D176E7E9E7FFF7EEFBEB
:10310C00F8E780200002E3E780231B029A42EFD10C
:10311C00FFF7D2FC021E00D166E7AFE7F369FFCFE1
:10312C00FFCFFFFF0080004000840040FFF4FF1140
:10313C0000380140001002400044004000480040AC
:10314C00004C004000500040003C014001000100D8
:10315C000024F400105B000800FDFFFFFFFC0F00D3
:10316C00EFFF0000836A30B51A0706D50168284CBA
:10317C004A682240846B22434A60DA0706D501680C
:10318C00244C4A682240C46A22434A609A0706D5F6
:10319C000168214C4A682240046B22434A605A075A
:1031AC0006D501681D4C4A682240446B22434A6094
:1031BC00DA0606D501681A4C8A682240C46B224391
:1031CC008A609A0606D50168164C8A682240046CFF
:1031DC0022438A605A0610D50168134D4A68446C24
:1031EC002A4022434A6080225203944205D14A6805
:1031FC000E4C2240846C22434A601B0606D50268A2
:10320C000B4953680B40C16C0B43536030BDC04637
:10321C00FF7FFFFFFFFFFDFFFFFFFEFFFFFFFBFF39
:10322C00FFEFFFFFFFDFFFFFFFFFEFFFFFFF9FFF42
:10323C00FFFFF7FFF7B504000D001700009322689D
:10324C00D3692B405B1B59424B41BB4201D0002040
:10325C0026E0089B0133F3D0FDF736FF009BC01A24
:10326C00089B98422DD8002B2BD023681A68520744
:10327C00E5D52A004021403A8A43E0D0DA69082695
:10328C0011003140019132420BD020001E62FFF739
:10329C00F1FD230090331E60002301208434237041
:1032AC00FEBD8022D96912011142C8D01A622000D9
:1032BC00FFF7E0FD2300202290331A60019B843439
:1032CC0023700320ECE7F0B51700020087B08832BA
:1032DC000593136804000D000220202B39D101380E
:1032EC00002936D0002F34D08023A1685B0199428D
:1032FC0004D12369002B01D105422AD123000026D9
:10330C0090331E6021231360FDF7DEFE230054333F
:10331C001F80023303931F808023A26804905B01FB
:10332C009A4204D12369B34201D12E001D0023001F
:10333C0056331B889AB2002B0DD1059B20000093AD
:10334C004021049BFFF776FF20238834236000285C
:10335C000ED107B0F0BD059B002200938021200008
:10336C00049BFFF767FF002804D0202388342360D8
:10337C000320EEE72268002D0BD133880236DB05E3
:10338C00DB0D9362039B039A1B88013B9BB213805A
:10339C00CDE72B7801359362F4E70000030073B599
:1033AC000026040090331E60FDF78EFE2368050096
:1033BC001B681B071FD58021284B32000093890303
:1033CC0003002000FFF736FFB04214D0EFF310815A
:1033DC00012383F3108880202268136883431360D1
:1033EC0081F310882300202288331A6003200023E5
:1033FC008434237076BD260023688C361B685B07EB
:10340C0023D58021154B0022009320002B00C903EB
:10341C00FFF710FF002818D0EFF31080012282F381
:10342C00108821680E4D0B682B400B6080F31088C0
:10343C00EFF3108082F3108821688B6893438B60C4
:10344C0080F3108820233360D0E723002022002053
:10345C0088331A603260E0662067C8E7FFFFFF011F
:10346C00DFFEFFFF70B5041E01D1012070BD050009
:10347C0088352B68002B04D1020084321370FDF7C1
:10348C0005FD2423012122682B6013688B431360F4
:10349C00A36A002B02D02000FFF764FE2000FFF788
:1034AC001BFD0128E1D0236807495A6820000A4017
:1034BC002A215A609A688A439A60012219680A4341
:1034CC001A60FFF76BFFD1E7FFB7FFFFF7B50700F7
:1034DC00436E04006A37002B04D101203880683415
:1034EC002080F7BD03680B4E9A689B680A4D5B0FF2
:1034FC00F05CE95CC0000192FCF7AEFE019B3880E9
:10350C001B015B0FF05CE95CC000FCF7A5FE80B210
:10351C00E5E7C046305B0008285B000870B5040086
:10352C008434227803000220012A11D01D002422A9
:10353C00012688352A601A6811681068B04310603B
:10354C000448014000205866202311602B60207035
:10355C0070BDC046FFFFFFDFF8B5050084350B00DA
:10356C0029780222012915D0060001210468883629
:10357C0022323260276822688A432260A168C9001F
:10358C00C9081943A160FFF7A1FF2023002227607F
:10359C0033602A701000F8BDF8B5050084350A00B8
:1035AC0029780223012915D00600012104688836E8
:1035BC0022333360276823688B432360A168064B52
:1035CC0019401143A160FFF781FF2023276033606E
:1035DC0000232B701800F8BDFFFFFFF10300002043
:1035EC00014A58641A64704780BF0000036C024A99
:1035FC0013400364002070477F40FFFF84B010B578
:10360C000492012202640593036C04009343036447
:10361C00036C03919340D34003640020606410BC9E
:10362C0008BC04B018470000F7B50F78CE78BB0083
:10363C00C3181A687548024001200190032E08D85F
:10364C003000FCF76BFD023A3734802080000243D7
:10365C0001966F4C6F4D22431A601A686E482A40CF
:10366C003A4322431A60FA001218087B002867D1EB
:10367C00C8888008800084464878002825D0604699
:10368C001168090C090411601168014311601A6872
:10369C00520604D51968614A29400A431A60604DE4
:1036AC00012E0CD02022196829404A4009E0C02084
:1036BC00C000024300200190CBE78020F8E71A6895
:1036CC002A4022431A600198FEBD6046566809697B
:1036DC00360C360456605668064356605668B6017A
:1036EC00B60956603E291ED91F204E09014008001C
:1036FC0041424141761A5168B6060E4380210906B3
:10370C00314351601A68520404D51968454A29405E
:10371C000A431A60444A19681140C022002F00D095
:10372C0080229201C1E7002901D15668E6E7012009
:10373C004E08014076185168B6060E435660E1E714
:10374C001F68022E3CD12F40BC466046374F0743C2
:10375C001F6017683F0C3F0417600F891068BF0883
:10376C00BF000743176057683F0C3F0457604F89F1
:10377C005068BF08BF00074357604A78284F9446EB
:10378C00802260462849D20100281DD11E681642AD
:10379C0004D01E68234A2E4032431A601A6852061F
:1037AC0004D51A6815401D4A2A431A601A6811403C
:1037BC00C02292014A4022431A601A683A4080E7BC
:1037CC001B4807402743C3E71868104206D01A6805
:1037DC002A4094466046134A02431A601A685206FD
:1037EC0004D51A6815400D4A2A431A60012E0AD0D6
:1037FC0020221D683D406A4022431A601A680A4024
:10380C0014431C605FE71A683A40F5E78F89FF079D
:10381C00808000008F8FFF0700980040C080000060
:10382C00BF8FFF0780C000008FBFFF0780810000A3
:10383C008F8EFF07F0B50B780A7B9B00C0184E7873
:10384C002E4B002A1CD10268002E0ED0520605D534
:10385C0001682B4A11402B4A0A43026002682A492C
:10386C000A40134303600020F0BD520405D50168E3
:10387C00234A1140254A0A43026002682449EFE7B3
:10388C0080211F4A204D224CC901002E1AD10668F6
:10389C000E4204D006681D49164031430160016890
:1038AC00184E490603D50168114031430160016887
:1038BC000A4016430660026822401A4302600268FE
:1038CC002A40CEE70768114E0F4203D00168114021
:1038DC00314301600168490604D50768094917405E
:1038EC003943016001680A401643066002682A40A9
:1038FC001A43026002682240B3E7C0468080000091
:10390C008F8FFF07C0800000BF8FFF0780C00000B3
:10391C008FBFFF070B7849789B000B4AC018002912
:10392C0008D00168094B194010234B401343036026
:10393C00002070470168064B194080235B014B4007
:10394C001A430260F4E7C04680800000BF8FFF0777
:10395C008FBFFF070B7B002B19D10B784A789B008C
:10396C00C0180368002A14D05B0605D50268104BFA
:10397C001A40104B13430360CB78012B07D00E4A2F
:10398C000368134020225A400C4B13430360002061
:10399C0070475B0405D50268054B1A40084B13436E
:1039AC000360084A03681340C0229201EBE7C0464B
:1039BC008F8FFF07C0800000BF8FFF078080000043
:1039CC0080C000008FBFFF07002901D18023C36492
:1039DC00002070478023826D1B02134383650020F7
:1039EC007047406C70470000F0B50324D81C23408E
:1039FC001C00651EAC418008001B114C8000121984
:103A0C0016000D18A9420ED1002B0BD000210C0072
:103A1C006E5CCF00BE40013134438EB2B342F7D15D
:103A2C0012181460F0BD4C780F7824023C438F7848
:103A3C003F042743CC78043124063C4310C6E1E70D
:103A4C0000980040F0B54D7806000C000B7B85B05B
:103A5C00012D00D00DE10F698D69BD4200D93D00EB
:103A6C0062690192002B1ED1ABB2E2883000019941
:103A7C00FFF7BAFF2378C74ADB009B181A682D049E
:103A8C0092B21A601A6815431D602378C24A9B00D3
:103A9C00F3181968114030224A40C0490A431A6091
:103AAC00002005B0F0BD2278BA499000D20052181F
:103ABC00E178236A3018022900D0C3E09F4200D37A
:103ACC00B0E00768B64B29041F40B64B03913B434B
:103ADC000360236A5B1B2362036840209C4661469B
:103AEC0003400293019B5F19ABB201424ED0506868
:103AFC00290480B250605068084350606289019973
:103B0C003000FFF771FF236A2169002267618B4245
:103B1C0001D95A1B2B0022626278002A2AD1227802
:103B2C009C49D200521811688901890911603E2BF9
:103B3C0013D91F201840454268415909091A1068C9
:103B4C0089060143802000060143116022899BB243
:103B5C0039003000FFF748FF97E7002B03D1802195
:103B6C0010680906F0E70120590818400918890661
:103B7C001068E9E7012AE9D122788649D200521867
:103B8C00116889B2116010681904DDE71068290406
:103B9C0080B21060106808431060228930000199CF
:103BAC00FFF722FF236A22696761934202D95B1BEC
:103BBC0002932B00029A22626278002A26D1227884
:103BCC007449D200521851688901890951603E2B01
:103BDC000FD91F201840454268415909091A5068ED
:103BEC0089060143802000060143516062899BB223
:103BFC00AEE7002B03D1802150680906F4E70120C1
:103C0C0059081840091889065068EDE7012AEDD1CA
:103C1C0022786049D2005218516889B251605068BC
:103C2C001904E1E70568604F5C493D400D430560B0
:103C3C00106880B2106015681804284310609BB29D
:103C4C0022890DE05B1B23620068ABB22F04400697
:103C5C0008D5506880B25060506838435060628913
:103C6C00019976E7106880B2106015683D431560C5
:103C7C00E6E7002B2FD18A6909698A4201D9531AC8
:103C8C000A00A36123784349DB005B18596889015A
:103C9C00890959603E2A09D91F2051090240504216
:103CAC004241891A5A688906114303E0002A00D060
:103CBC00B6E05968802212060A435A6023783B4AC0
:103CCC009B00F61833681340C02292015A40334BC4
:103CDC0013433360E4E6CB78022B6DD10978002DC9
:103CEC0029D12C4ACB009B181A68920192091A60B0
:103CFC0022693E2A32D91F3515406F427D41500949
:103D0C00401B1D688006284380252D06284318601B
:103D1C0058688001800958603E2A2CD91F20104019
:103D2C005509424250412D1A5868AA060243802078
:103D3C00000602435A60E369002BBFD08B00F318D6
:103D4C001A681B490A408A4201D0002AB6D1196868
:103D5C00134A1140174A0A431A60AFE7002A03D1ED
:103D6C0080201D680006D1E7012550081540401938
:103D7C0080061D68CAE7002A03D180225868120603
:103D8C00D7E7012550082A4080185A68800610434E
:103D9C005860D0E700980040BF8FFF07808000007C
:103DAC008F8FFF07808100008F8EFF078FBFFF076B
:103DBC0040400000C08000000120834200D070E62B
:103DCC008A690B6900219A4201D9D11A1A00A161A2
:103DDC00002D00D072E723781649DB005B181968B8
:103DEC008901890919603E2A0DD91F2010404542CE
:103DFC0068415109091A1868890601438020000698
:103E0C000143196042E7002A03D180211868090692
:103E1C00F6E7012051081040091889061868EFE7E9
:103E2C0001205108024089185A68890611435960CB
:103E3C0044E7C04600980040F0B50324D81C23404A
:103E4C00114C800812191C00651EAC411600001B99
:103E5C0084000D19A9420DD1002B0AD0121910683B
:103E6C0000220400D100CC40AC54013291B28B4200
:103E7C00F7D1F0BD01CE070A08704F70070C000E89
:103E8C008F70C8700431E5E700980040B523B0226C
:103E9C009B00C35892009B00C31870B59C5803201C
:103EAC00002C09D004329B58002B04D08025AD0087
:103EBC00605DFF2801D1002070BD044A9B68210081
:103ECC00A25C9847FF236355F5E7C046010200004A
:103EDC000A23038000487047D0000020F8B5124D2B
:103EEC0082210700280000F0A8FB01210600280011
:103EFC0000F0A3FB81210400280000F09EFB002EA3
:103F0C0001D01023B371002C03D040232371002364
:103F1C006371002803D040230371002343714323B2
:103F2C0028003B80F8BDC0465400002010B5FFF7B8
:103F3C00D5FF10BDF8B5124D82210700280000F006
:103F4C007CFB01210600280000F077FB8121040096
:103F5C00280000F072FB002E01D01023B371002C4E
:103F6C0003D00023237102336371002803D0002394
:103F7C00037102334371432328003B80F8BDC046D4
:103F8C005400002070B5B526B60083590400B03338
:103F9C009B001D580320002D11D0200001F062F869
:103FAC00832381229B00E850E918A3599200B03377
:103FBC009B00E4186368A858DB689847002070BD24
:103FCC00B2239B00F7B5C2580C33C3580E009B00AC
:103FDC00C3180193B02301999B00CF580400032010
:103FEC00002F16D00F23142533405D436519A869A3
:103FFC0000280FD028214B43D318596AFCF728F915
:10400C000A1E07D10B00A9612000310001F018F83D
:10401C000020FEBD852300229B00FA50019AB0338C
:10402C00D3581B69002BF3D084228220920080008D
:10403C00B918385832009847EAE70000B523B02287
:10404C00F0B59B00C35885B09B00C31892009E58D6
:10405C0002AA0D00511D0022040002A8871D0A703F
:10406C003A80964259D02A78944660226046104095
:10407C0001906046104233D0019A202A49D1EA8837
:10408C006878002A25D0614649B2002910DAB1219E
:10409C0089005B5831009B689847EB881A1C072BEA
:1040AC0000D90722310092B2200000F064FD0DE02F
:1040BC0080239B00F054131C402A00D940239AB251
:1040CC001A4B31002000F25400F06BFD002005B0BB
:1040DC00F0BDB12189005B5829009B689847F5E732
:1040EC0068780B2815D8FCF70FF806F11414141483
:1040FC00141414140E1AA7239B00E35C032B08D191
:10410C0002223900D0E7A7239B00E35C0122032B9A
:10411C00CAD02900200000F007FD0320D7E7A72311
:10412C009B00E35C032BD1D0F3E7C04601020000F7
:10413C0070B504000025812100F04BFF0121200007
:10414C00258700F046FFBC23B5265B00E552822193
:10415C00200000F03EFFB022B600A359E5649B009E
:10416C00E31892009A58AA4211D0B12292009B589F
:10417C005B689847A359B0339B00185900F07EFF39
:10418C00A359B0339B001D51AF239B00E550002079
:10419C0070BDF8B504008720800000F06BFFB526D9
:1041AC000500B600002805D1A359B0339B00185167
:1041BC0002204DE087220021920000F083FFA359DA
:1041CC00B0339B001D51AF239B00E550237C002B8B
:1041DC003FD1802381219B000222200000F0EDFEC4
:1041EC000121802321879B000222200000F0E5FEA4
:1041FC00BC2301265B00E652230010224E331A80AA
:10420C0082210D3A0823200000F0D7FE23004C3306
:10421C001E80812300279B00EF50D033E358B0332E
:10422C009B00E3185B681B68984785239B00EF5045
:10423C000433EF50143BEA58BA42B9D0237CBB424A
:10424C0011D180239B003100200000F002FF0020E0
:10425C00F8BD402381210222200000F0AEFE012196
:10426C0040232187C0E74023EDE70300032000290A
:10427C0007D0B522002092009A58B03292009B18B9
:10428C0059607047B5239B00C358B0339B001B5833
:10429C000320002B06D0822080001950842100209E
:1042AC0089005A507047B5239B00C358B0339B000C
:1042BC001B580320002B03D0812200209200995020
:1042CC007047B5239B00C35810B5B0339B001A58E8
:1042DC000323002A11D0852189005458023B002C5D
:1042EC000BD1535084239B00D3580C395258883926
:1042FC00C362FF3900F0A4FE2300180010BDB523E3
:10430C009B00C35810B5B0339B001A580323002AE6
:10431C000BD081239B00D258037C002B07D1802328
:10432C009B00012100F095FE0023180010BD4023D6
:10433C00F7E7030010B50320002B14D0AE240020A7
:10434C00A40018510C3418510C341851814202D06D
:10435C00AD2080001950A721012089005854180065
:10436C001A7000F0DFFD10BD13B56B460400981DEC
:10437C0000230380033300290FD0AE239B00E150B0
:10438C00CB6A002B03D09847B4239B00E050B62295
:10439C009200A3580133A3500023180016BD10B58A
:1043AC0000F002FE10BDAE239B00C25810B5131EC8
:1043BC0002D0136898470300180010BDAE239B0071
:1043CC00C35810B55B689847002800D0032010BD77
:1043DC00164B70B5C5180400280000F091FBA523FE
:1043EC0001229B00E2501C33E25A183BE2500F4B67
:1043FC00E15C1F230B40012B08D0022B0BD0002BB0
:10440C000ED12900200000F037F970BD29002000E2
:10441C0000F092FAF9E72900200000F0C2FAF4E764
:10442C007F232000994300F0DDFDEEE7AA02000097
:10443C0070B50400100000292AD1A5239B00E35875
:10444C00032B0FD125005535FF35AB68EA68934235
:10445C000AD99B1AAB609A4200D91A0001002000BD
:10446C0000F0AFFB002070BDA7239B00E35C032B87
:10447C000AD1AE239B00E3581B69002B04D0B52254
:10448C0092002000A1509847200000F0A2FBE9E721
:10449C00A7239B00E35C032BE4D1AE239B00E358E2
:1044AC009B69002BDED0B52200209200A05020008A
:1044BC009847D8E770B50D0004001100002D44D1C9
:1044CC00A5239B00C358022B0DD1C369026A9342EA
:1044DC0012D99A1AC26100F05CFB2B002A00290049
:1044EC00200000F0B6FDA8239B00E25C002A01D05E
:1044FC000022E254002070BD93420DD18269934298
:10450C000AD8A626B60083599A4205D22A00290059
:10451C0000F03FFBA551E0E7A7239B00E35C032BD6
:10452C000BD1AE239B00E358DB68002B05D0B522E2
:10453C00002192002000A15098478021200000F01B
:10454C0051FD200000F051FBCDE7A7239B00C35C7D
:10455C00032BCFD1AE239B00C3585B69002BC9D072
:10456C00B52200219200815029009847C3E7F8B585
:10457C00A723012200219B00C254083BC1501033D9
:10458C004160C150043BC1541833C35804008B42E2
:10459C0018D10026002240231100200000F00DFD50
:1045AC00B22301275B00E75223004025FC335D66F4
:1045BC0000222B008021200000F0FFFC3000A7849B
:1045CC002562F8BD5B68002BE3D098470028E0D04B
:1045DC000326DFE70174002070470000A722920039
:1045EC00835C0349DBB2435404238354002070479B
:1045FC009D020000A7229200835C042B03D1034B85
:10460C00C35CDBB2835400207047C0469D0200009F
:10461C00A72310B59B00C35C032B08D1AE239B00D2
:10462C00C358002B03D0DB69002B00D09847002027
:10463C0010BD002070470020704710B5C2788378F9
:10464C0012021A4303789A4201D8002010BD047854
:10465C000019E31844789BB2052CF4D184788C4271
:10466C00F1D1F3E710B50400802100F0BBFC002170
:10467C00200000F0B7FC10BDF7B560220B780D00E0
:10468C0013401900921820390400114206D0002B57
:10469C0010D02000FFF7E6FF002509E0B5239B00B2
:1046AC00C3582900AE339B001B589B6898470500E4
:1046BC002800FEBD68780928EBD8FBF739FD01010D
:1046CC002801EAFF1801EAFF76000A00EAFFEA0077
:1046DC00980000236A46D3806B88180A0138062894
:1046EC00D7D8FBF711FD04202FD6D6495500AD23A2
:1046FC009B00E358207C1B686A46911D9847E9880B
:10470C00002900D1A8E06B46DA88002AC1D00B1C26
:10471C00914200D9131C6946CB8001009AB220004B
:10472C0000F029FAB8E7AE23227C9B00E358002A5C
:10473C0006D19B6A6A46901D984702234370DEE7B8
:10474C00DB6AF7E7D8B20528A3D8AD239B00E35862
:10475C00FBF7E4FC03080A0C0E105B68002B98D0E6
:10476C00207CC9E79B68F9E7DB68F7E71B69F5E78D
:10477C005B69F3E79B69F1E7237C002B00D088E7AA
:10478C00AE236A469B00E358901D5B6B9847B6E7D7
:10479C00237C002B00D07CE7AE236A469B00E358B9
:1047AC00901D1B6B98470723C8E7AB88002B00D0E4
:1047BC006FE7EB88002B00D06BE76D887F2D00D95D
:1047CC0067E7A726B600A35D032B00D161E7584B22
:1047DC00EDB2E5542900200000F029FC200000F087
:1047EC00F8F90223002D00D10123A35554E7A97831
:1047FC00504D2970012904D92000FFF733FF032500
:10480C0056E7A726B600A35DDFB2022B09D0032F13
:10481C001AD02000FFF726FF20002978FFF7CEFDE5
:10482C00EDE7002918D0012120006160FFF7BBFDE6
:10483C0005002000002D03D0FFF714FFA75537E724
:10484C0000F0C7F90323D0E7002909D10223200087
:10485C00A3556160FFF7B2FD200000F0BAF91BE729
:10486C0061680129F8D0C9B22000FFF7A7FD2978AB
:10487C0020006160FFF797FD051EEDD02000FFF7CB
:10488C00F1FE61682000C9B2FFF798FD0223A35521
:10489C000EE7EA88012A00D0FBE6A7239B00E15C27
:1048AC00CBB2022907D8002B00D1F2E6002321005D
:1048BC00A360083133E7211D032B00D12FE7E8E675
:1048CC00A7239B00E35C013B022B00D9E1E6EB88BC
:1048DC00022B00D0DDE6A9239B00E2580123002A1D
:1048EC0000D0023321000222E3600C3117E76B8801
:1048FC00012B03D1A9229200A350ADE7022B00D0CB
:10490C00C7E6A822AB8892001B0AA354A4E7A723EE
:10491C009B00E35C013B022B00D9BAE66B88012BB0
:10492C0000D0B9E6A92300229B00E25094E7C046D0
:10493C009E0200008805002060230A7870B51340A1
:10494C0004000E00520601D5402B25D1A7239B0055
:10495C00E35C013B022B1FD83179200001291CD8C4
:10496C00FFF767FE032500280CD1AE239B00E3580C
:10497C009B68002B06D0B5229200A050310020007D
:10498C0098470500F388002B04D1002D02D120009C
:10499C0000F01FF9280070BD2000FFF763FE002512
:1049AC00F8E770B50B788A880E0060210B40040084
:1049BC00180049182038D5B208425ED0002B03D01D
:1049CC002000FFF74FFE42E07378012B41D0032B00
:1049DC0026D0002BF4D1A7239B00E35CD9B2022B89
:1049EC0000D168E00329EBD10F2314262B4073432D
:1049FC00E318120600D46FE09B8C002BE0D07F23D1
:104A0C002B4001335E43A619802D00D171E02900A3
:104A1C00200000F0F9FA002800D16FE0012369E0D2
:104A2C00A7239B00E35CDAB2022B38D0032AC7D150
:104A3C007388002B08D16B0606D0F388002B03D1AA
:104A4C002900200000F0CEFA200000F0C2F800206F
:104A5C0070BDA7239B00E35CDAB2022B1FD0032AA4
:104A6C00AED17388002BF2D16B0603D02900200045
:104A7C0000F0C1FA200000F0ACF829002000FFF78C
:104A8C00DAFD0028E3D1B5239B00E0501C3BE35832
:104A9C009B68002BDBD0310020009847D8E76B06D1
:104AAC0000D18DE72900200000F09CFA8021200025
:104ABC0000F098FACBE76D0600D081E72100553164
:104ACC00FF31120601D54139FF39002302220B6058
:104ADC00200000F050F8BAE76533FF331B88002B39
:104AEC0000D16DE76E435536FF36A619002D00D068
:104AFC008DE70023336002223100E9E73060FAE7EA
:104B0C000B7803704B784370CB788A781B02134375
:104B1C0043804B790A791B0213438380CB798A79C2
:104B2C001B021343C380704710B50400802100F0B2
:104B3C0059FA0021200000F055FA10BD70B50400A0
:104B4C000D00160000280DD0FBF7D6FAC3B20133C6
:104B5C005B0033802B70032300216B70013B2278A8
:104B6C00002A00D170BDEA545A1CD2B2023301346F
:104B7C00A954DBB2F3E71300A52210B5022492006E
:104B8C0084500A0083610021C36100F059FA0020AF
:104B9C0010BD10B513000A00002100F051FA0020DE
:104BAC0010BD1300A52210B50324920084500200FE
:104BBC00FC32D36513660A00002100F04AFA00208B
:104BCC0010BD10B513000A00002100F042FA0020BD
:104BDC0010BDA52304229B0010B5C25000231A005F
:104BEC00190000F02DFA002010BDA52305229B0012
:104BFC0010B5C25000231A00190000F02AFA002048
:104C0C0010BD000010B5114C002220001049FFF718
:104C1C0090FB002801D0FBF7EFFF20000D49FFF7B8
:104C2C00A3FB002801D0FBF7E7FF20000A49FFF7A0
:104C3C001CFB002801D0FBF7DFFF2000FFF7AFFBC8
:104C4C00002801D0FBF7D8FF10BDC0468C05002012
:104C5C002401002098000020DC0000200020704778
:104C6C00002070470020704710B5054C0100200053
:104C7C00FFF719FB2000FFF742FB002010BDC046D8
:104C8C008C05002010B5064C002220000549FFF7CA
:104C9C00F9FA20000449FFF706FB002010BDC046BE
:104CAC008C05002068080020681000200A00AF2145
:104CBC0010B5084C890003006058A83941580120F0
:104CCC00002906D119002000FFF7DCFA2000FFF7BD
:104CDC00F8FA10BD8C050020122301480B80704798
:104CEC0010010020042301480B8070470C010020A8
:104CFC0070B5002652008A18050FECB2230037332A
:104D0C00092D00D8073B0B704E70023100018A420E
:104D1C00F2D170BD1A2310B50B800A4B18680A4BE0
:104D2C001B68C01800280AD0084B08221C680849C8
:104D3C00FFF7DEFF042220000649FFF7D9FF0648E3
:104D4C0010BDC0469075FF1F9875FF1F9475FF1F0F
:104D5C00F200002002010020F000002010B5044CED
:104D6C000A0021000348FFF7E9FE200010BDC046F1
:104D7C00681200203A5A000810B5044C0A002100B1
:104D8C000348FFF7DBFE200010BDC0466812002070
:104D9C003E5A000810B5044C0A0021000348FFF7E6
:104DAC00CDFE200010BDC04668120020525A0008EB
:104DBC0010B5044C0A0021000348FFF7BFFE200089
:104DCC0010BDC046681200205D5A0008002802D0B1
:104DDC00022801D0032070470120FCE710B5040025
:104DEC0096B04C22002103A800F06CF91B4B2268F2
:104DFC009A422DD1802303A85B040393FDF770FE28
:104E0C00002801D0FBF7F8FE8022154C9201E36BD1
:104E1C001343E363E36B134080220193019BE36B29
:104E2C005205134216D1E36B1343E363E36B134058
:104E3C000293029BFDF7C8FAE36B0A4A1340E36343
:104E4C00002208201100FCF763F90820FCF78AF90E
:104E5C0016B010BDFDF7B8FAF2E7C046005C004092
:104E6C0000100240FFFFFFEFA72310B59B00C118F5
:104E7C004033C058FFF7ACFA10BD28234B43C3187E
:104E8C00FC33DA6EB72310B59B00C058FFF7D0FA8D
:104E9C0010BD28234B43C3189A6AB72310B59B0047
:104EAC00C058FFF707FB10BDB72310B59B00C058C7
:104EBC00FFF7AEFB10BD70B5C3790400022B01D017
:104ECC00FBF79AFEB725AD0001216059FFF782FB75
:104EDC006059FFF74CFB70BDB72310B504009B0065
:104EEC00C058FFF77BFBE37A002B04D00623024A61
:104EFC0011690B43136110BD00ED00E010B5C37ACE
:104F0C000400002B06D00621054A13698B4313615C
:104F1C00FBF776FDB7239B00E058FFF76BFB10BD4A
:104F2C0000ED00E0B72370B504001C489B00C45092
:104F3C001B4BB22503601B4BAD0083800223C37156
:104F4C004372002360514381C3600374FCF74CFC33
:104F5C00002801D0FBF750FE0022605911001823E5
:104F6C00FDF705FA6059582300228021FDF7FFF95F
:104F7C006059C02300228121FDF7F9F9882360597B
:104F8C00002201215B00FDF7F2F980236059002219
:104F9C0082215B00FDF7EBF9002070BD8816002024
:104FAC00005C004008080000B22310B59B00C058FC
:104FBC00FCF76AFCFFF70AFF10BD10B514001A00CD
:104FCC002300B224A4000059FDF7E8F8FFF7FEFE19
:104FDC0010BDB22310B59B00C058FDF70BF9FFF7BD
:104FEC00F5FE10BDB22310B59B00C058FDF763F958
:104FFC00FFF7ECFE10BDB22310B59B00C058FDF7B7
:10500C0088F9FFF7E3FE10BDB2239B00C35848B2EA
:10501C002822002805DA7F2001404A439B18987DFE
:10502C0070474A439B185733FF331878F8E7B2237D
:10503C0010B59B00C058FCF73AFCFFF7C7FE10BD3B
:10504C0010B5B224A4000059FDF71DF9FFF7BEFE00
:10505C0010BD10B5B224A4000059FDF7F1F8FFF70C
:10506C00B5FE10BDB22310B59B00C058FDF703F977
:10507C0010BD000000487047681400207047000005
:10508C000EB410B500240C499DB01FAB02900690D5
:10509C000791049109480A4904CB0591006802A9BB
:1050AC0001931B9400F0A8F9029B1C701DB010BC5E
:1050BC0008BC03B01847C046FFFFFF7F400100202B
:1050CC000802FFFF03008218934200D17047197049
:1050DC000133F9E7014B18687047C04640010020C6
:1050EC0070B500260C4C0D4D641BA410A64209D1C2
:1050FC00002600F063FC0A4C0A4D641BA410A64267
:10510C0005D170BDB300EB5898470136EEE7B300FC
:10511C00EB5898470136F2E7405B0008405B00080B
:10512C00445B0008405B000870477047002310B5D3
:10513C009A4200D110BDCC5CC4540133F8E7000096
:10514C0070B505000C1E10D0043C2368002B00DA4F
:10515C00E418280000F0E0F81D4A1368002B05D174
:10516C0063601460280000F0DFF870BDA34208D91A
:10517C00206821188B42F3D119685B6809182160EB
:10518C00EEE71A005B68002B01D0A342F9D9116835
:10519C005018A0420BD12068091850181160834296
:1051AC00E0D118685B68411811605360DAE7A042DF
:1051BC0002D90C232B60D5E7206821188B4203D130
:1051CC0019685B680918216063605460CAE7C046BF
:1051DC00AC1A002070B50F4E0D0031680400002988
:1051EC0002D100F095FB30602900200000F090FB0C
:1051FC00431C03D101256D42280070BD0323C51C3F
:10520C009D43A842F8D0291A200000F081FB013000
:10521C00F2D1EFE7A81A0020F7B50322CB1C934379
:10522C00083305001F000C2B34D20C27B94233D89D
:10523C00280000F071F8374E33681C00002C2FD179
:10524C0039002800FFF7C6FF0400431C5FD1346807
:10525C000094009B002B4AD1002C52D023682800CC
:10526C00E3180099019300F053FB019B834248D152
:10527C0023682800FF1A3900FFF7ACFF013040D03B
:10528C002368DB19236033685A68002A33D1009BEA
:10529C00336019E0002BC9DA0C232B600020FEBD13
:1052AC002168C91B20D40B290AD9E2192760A34213
:1052BC0004D1326063681160536005E05A60F9E70D
:1052CC006268A3420ED13260280000F02DF8200055
:1052DC0007220B30231D9043C21A9842DFD01B1AB1
:1052EC00A350DCE75A60EFE723006468A6E7009C54
:1052FC0063680093ADE71A005B68A342FBD10023FF
:10530C00DAE70C2328002B6000F00EF8C6E70760E4
:10531C00DAE7C046AC1A002010B50248FFF704FFCC
:10532C0010BDC046A41A002010B50248FFF7FDFEC0
:10533C0010BDC046A41A0020F0B58E6885B01F00C1
:10534C000C000B6802900392BE4230D80C21625EB6
:10535C009021C9000A4228D0032021695B1A0193CD
:10536C00636943430198DD0FED187B1C1B186D100E
:10537C00AB4200D91D00520528D529000298FFF731
:10538C004BFF061E2CD0019A2169FFF7CFFEA28994
:10539C00184B1A4080231343A381019B2661F618F6
:1053AC0026603E006561ED1AA560BE4200D93E0044
:1053BC0032000399206800F099FA0020A3689B1B27
:1053CC00A36023689B19236005B0F0BD2A000298E6
:1053DC0000F0BBFA061EE0D121690298FFF7B0FE7F
:1053EC000C230120029A40421360A28934331343E8
:1053FC00A381E9E77FFBFFFFF0B5A1B003901D008F
:10540C008B890F0016001B0611D50B69002B0ED1D2
:10541C004021FFF701FF38603861002805D10C23CB
:10542C00039A136001204042CFE040237B610023AC
:10543C0008AC6361203363761033A376079535008F
:10544C002B78002B01D0252B48D1AB1B0593B542F3
:10545C000BD0320039000398FFF76EFF013000D1FA
:10546C00AEE06369059A9B1863612B78002B00D121
:10547C00A6E0012200235242626004A95432521861
:10548C006E1C2360E360A3601370A365544B05226C
:10549C0018003178059300F04DFA751C00281FD1C7
:1054AC002268D30604D5532304A95B182021197054
:1054BC00130704D5532304A95B182B2119703378D7
:1054CC002A2B16D0350000210A20E3682A786E1C9E
:1054DC00303A092A50D9002911D117E00135AFE72C
:1054EC00059B2268C01A0123834013432E002360BE
:1054FC00CCE7079B191D1B680791002B01DB0B9355
:10550C0004E05B42E3600223134323602B782E2BD1
:10551C000CD16B782A2B34D1079B02351A1D1B68D2
:10552C000792002B01DA01235B4209932D4E0322D3
:10553C003000297800F0FEF9002806D04023801BAB
:10554C0083402268013513432360297806222648BC
:10555C006E1C217600F0EEF9002838D0234B002B7E
:10556C0022D10722079B07339343083307936369C0
:10557C00049A9B18636162E74343350001219B1831
:10558C00A4E700230A201900013563602A786E1CF9
:10559C00303A092A03D9002BC8D00991C6E74143F8
:1055AC00350001238918F1E707AA009221003A007F
:1055BC000F4B039800E000BF0490049B0133D6D13D
:1055CC00BB890D985B0600D52CE721B0F0BD07AA6E
:1055DC00009221003A00064B039800F07BF8EBE7B1
:1055EC006B5A0008715A0008755A00080000000038
:1055FC0045530008F7B5160001938A680B690C0037
:10560C000090934200DA1300220033604332127888
:10561C00002A01D00133336023689B0602D533681E
:10562C00023333602268062315001D401A4227D02E
:10563C00230043331B785A1E93412268920630D4C0
:10564C00220001990098089D4332A847013025D0CB
:10565C000622236800251340042B05D13368E56826
:10566C00ED1AEB43DB171D40A3682269934201DD61
:10567C009B1AED180026B54220D1002010E0013510
:10568C00E36832689B1AAB42D2DD220001230199F8
:10569C000098089F1932B8470130F0D101204042E0
:1056AC00FEBD3020E1184331087021005A1C4531F1
:1056BC000978A218433202331170C1E7220001238A
:1056CC0001990098089F1A32B8470130E6D001368C
:1056DC00D1E70000F0B58BB006920A004332079375
:1056EC00059003920A7E0C00109B782A09D8622A36
:1056FC000BD8002A00D1BAE07A490491582A00D17B
:10570C008EE0250042352A7022E0100063381528FF
:10571C00F7D8FAF70DFD16001F00F6FFF6FFF6FF9F
:10572C00F6FF1F00F6FFF6FFF6FFF6FF9F003600B0
:10573C007E00F6FFF6FFB000F6FF3600F6FFF6FF30
:10574C00820025001A684235111D196013682B70F0
:10575C0001239EE018680968021D0D060BD506682A
:10576C001A60002E03DA2D23039A764213705D4BD8
:10577C000A27049318E006681A604906F1D536B278
:10578C00EFE70868196840C9050602D4400600D541
:10579C00B6B21960534B0A2704936F2A00D1023F0B
:1057AC002300002243331A706368A360002B06DBCE
:1057BC0004212268039D8A43226033430CD0039D4D
:1057CC0030003900FAF744FD049B013D5B5C2B7003
:1057DC00330006009F42F3D9082F09D12368DB0759
:1057EC0006D5626823699A4202DC3023013D2B7096
:1057FC00039B5B1B2361079B210000930598069B71
:10580C0009AAFFF7F7FE013048D1012040420BB046
:10581C00F0BD202209680A432260782232490491A3
:10582C00210045310A701968226840C9100602D45B
:10583C00500600D5B6B21960D30702D52023134306
:10584C002360002E01D01027AAE72022236893435F
:10585C002360F8E71A680D68101D49691860136811
:10586C002E0601D5196002E06D06FBD519800023C8
:10587C00039D2361BFE71A68111D1960156800218B
:10588C002800626800F056F8002801D0401B6060C8
:10589C00636823610023039A1370ACE72A00236921
:1058AC0006990598079DA8470130AED023689B0741
:1058BC0015D4099BE0689842A9DA1800A7E72200E2
:1058CC00012306990598079E1932B04701309CD0E8
:1058DC000135E368099A9B1AAB42F0DCE9E7002535
:1058EC00F7E7C0467C5A00088D5A000810B588426C
:1058FC0002D98B18984208D300239A4207D0CC5C6B
:10590C00C4540133F9E78B5C8354013AFBD210BDCC
:10591C00002370B5064D040008002B60FBF7ECF972
:10592C00431C03D12B68002B00D0236070BDC046F4
:10593C00A01A0020C9B28218904201D100207047F1
:10594C0003788B42FBD00130F6E7F7B506000C006C
:10595C001500002905D11100FFF75EFC04002000A2
:10596C00FEBD002A03D1FFF7EBFB2C00F7E700F09C
:10597C001CF80700854202D84308AB42EFD329003C
:10598C003000FFF749FC0190002801D1019CE6E7AB
:10599C002A00BD4200D93A0021000198FFF7C6FB4E
:1059AC0021003000FFF7CCFBF0E70B1F1B68181F22
:1059BC00002B01DA0B58C01870470000F8B5C04630
:1059CC00F8BC08BC9E467047F8B5C046F8BC08BC8D
:0459DC009E4670472C
:1059E0004452565F424F4152445F4944205B20304D
:1059F0007825303258205D3A20434443200D0A0078
:105A000048656C6C6F2066726F6D206472762062E0
:105A10006F6172643A2055415254205472616E7322
:105A2000706F7274205B253032645D2121210D0A74
:105A300000010203040506070800414353004143E7
:105A400053205669727475616C20436F6D506F728C
:105A5000740043444320436F6E66696700434443C8
:105A600020496E7465726661636500232D302B20BA
:105A700000686C4C0065666745464700303132333C
:105A800034353637383941424344454600303132A7
:105A90003334353637383961626364656600000037
:105AA00000000000000000000000000000000000F6
:105AB00001000000020000000300000004000000DC
:105AC00000000000000000000000000000000000D6
