:020000040800F2
:1000000000400220B50F0008A90C0008AB0C000846
:1000100000000000000000000000000000000000E0
:10002000000000000000000000000000AD0C00080F
:100030000000000000000000AF0C0008B10C000838
:10004000051000080510000805100008051000083C
:10005000051000080510000805100008051000082C
:10006000B90C00080510000805100008051000086C
:10007000051000080510000805100008051000080C
:1000800005100008051000080510000805100008FC
:1000900005100008051000080510000805100008EC
:1000A00005100008051000080510000805100008DC
:0C00B000051000080510000805100008ED
:1000BC0010B5064C2378002B07D1054B002B02D032
:1000CC00044800E000BF0123237010BD780100201C
:1000DC0000000000145A0008044B10B5002B03D08C
:1000EC000349044800E000BF10BDC04600000000FA
:1000FC007C010020145A00080023C25C0133002A42
:10010C00FBD1581E7047000002B4714649084900E3
:10011C00095649008E4402BC7047C04602B4714671
:10012C0049084900095C49008E4402BC7047C0462E
:10013C0003B47146490840004900095E49008E44E9
:10014C0003BC7047002243088B4274D303098B42D3
:10015C005FD3030A8B4244D3030B8B4228D3030C8B
:10016C008B420DD3FF22090212BA030C8B4202D32D
:10017C001212090265D0030B8B4219D300E0090A55
:10018C00C30B8B4201D3CB03C01A5241830B8B425E
:10019C0001D38B03C01A5241430B8B4201D34B0347
:1001AC00C01A5241030B8B4201D30B03C01A5241AC
:1001BC00C30A8B4201D3CB02C01A5241830A8B4231
:1001CC0001D38B02C01A5241430A8B4201D34B021A
:1001DC00C01A5241030A8B4201D30B02C01A52417E
:1001EC00CDD2C3098B4201D3CB01C01A5241830932
:1001FC008B4201D38B01C01A524143098B4201D36C
:10020C004B01C01A524103098B4201D30B01C01A96
:10021C005241C3088B4201D3CB00C01A5241830810
:10022C008B4201D38B00C01A524143088B4201D33D
:10023C004B00C01A5241411A00D20146524110469D
:10024C007047FFE701B5002000F0F0F802BDC04692
:10025C000029F7D076E7704703460B437FD4002282
:10026C0043088B4274D303098B425FD3030A8B423E
:10027C0044D3030B8B4228D3030C8B420DD3FF22A8
:10028C00090212BA030C8B4202D31212090265D076
:10029C00030B8B4219D300E0090AC30B8B4201D329
:1002AC00CB03C01A5241830B8B4201D38B03C01A70
:1002BC005241430B8B4201D34B03C01A5241030BE7
:1002CC008B4201D30B03C01A5241C30A8B4201D398
:1002DC00CB02C01A5241830A8B4201D38B02C01A43
:1002EC005241430A8B4201D34B02C01A5241030ABA
:1002FC008B4201D30B02C01A5241CDD2C3098B429F
:10030C0001D3CB01C01A524183098B4201D38B011B
:10031C00C01A524143098B4201D34B01C01A5241BE
:10032C0003098B4201D30B01C01A5241C3088B4203
:10033C0001D3CB00C01A524183088B4201D38B00EE
:10034C00C01A524143088B4201D34B00C01A524190
:10035C00411A00D201465241104670475DE0CA0F67
:10036C0000D04942031000D34042534000229C4627
:10037C0003098B422DD3030A8B4212D3FC22890131
:10038C0012BA030A8B420CD3890192118B4208D307
:10039C00890192118B4204D389013AD0921100E069
:1003AC008909C3098B4201D3CB01C01A524183097D
:1003BC008B4201D38B01C01A524143098B4201D3AA
:1003CC004B01C01A524103098B4201D30B01C01AD5
:1003DC005241C3088B4201D3CB00C01A524183084F
:1003EC008B4201D38B00C01A5241D9D243088B42A5
:1003FC0001D34B00C01A5241411A00D20146634648
:10040C0052415B10104601D34042002B00D54942AB
:10041C00704763465B1000D3404201B5002000F0EA
:10042C0005F802BD0029F8D016E770477047C046A2
:10043C00002B11D1002A0FD1002900D1002802D0A5
:10044C000021C943080007B4024802A140180290D9
:10045C0003BDC046D9FFFFFF03B4684601B502983F
:10046C0000F006F8019B9E4602B00CBC7047C046DB
:10047C00F0B557464E464546DE46E0B504000D0045
:10048C009246994683B08B4230D82DD0494650467F
:10049C0000F0BAF829000600200000F0B5F8331A75
:1004AC009846203B34D49B4653465A46934042468A
:1004BC001F00534693401E00AF423BD8AF4200D1C1
:1004CC0079E05B46A41BBD41002B00DA76E00022EC
:1004DC0000230092019301235A4693400193012378
:1004EC0042469340009329E08242CFD90022002358
:1004FC00009201930C9B002B01D01C605D60009856
:10050C00019903B0F0BCBB46B246A946A046F0BD6B
:10051C0042469B4620239B1A5246DA404146130022
:10052C004A468A40170042461F43534693401E00DA
:10053C00AF42C3D900220023009201934346002B03
:10054C00D8D0FB0772081A4346467B080EE0AB4234
:10055C0001D1A2420CD8A41A9D41012024196D414D
:10056C000021013E24184D41002E06D0AB42EED99D
:10057C00013E24196D41002EF8D1009801995B467B
:10058C0000196941002B24DB2B005A464446D3400A
:10059C002A00E2401C005B461500002B2ADB2600DB
:1005AC009E40330026004746BE403200801A9941D7
:1005BC00009001919EE7A342BCD882E742462023DB
:1005CC0000219B1A0022009101920122DA40019233
:1005DC0085E7424620239B1A2A0046469A40230070
:1005EC00F340444613432A00E2401C005B461500CE
:1005FC00002BD4DA42462F002023260097409B1A6A
:10060C00DE403B003343CDE710B5002903D100F0A9
:10061C0007F8203002E0080000F002F810BDC046D8
:10062C001C2101231B04984201D3000C10391B0A16
:10063C00984201D3000A08391B09984201D30009DA
:10064C00043902A2105C40187047C0460403020231
:10065C000101010100000000000000000F48104BD8
:10066C0008220D2110B5036000234261C161073AD5
:10067C000B3943608360C3600382837482610162BF
:10068C0042628262C262026343638363C36300F0AB
:10069C0071FD002801D000F091FA10BDFC01002082
:1006AC00006400400F48104B08220D2110B5036068
:1006BC0000234261C161073A0B3943608360C36018
:1006CC00038283748261016242628262C26202634B
:1006DC0043638363C36300F04DFD002801D000F039
:1006EC006DFA10BD980100200068004010B50400A0
:1006FC009CB01422002104A804F00AFD4C22002115
:10070C0009A804F005FD2368314A93422FD18023B8
:10071C0009A89B04099302F02FFA002801D000F0DD
:10072C004DFA2C4B1A6801321A602B4B012A08D156
:10073C008021DA6B49010A43DA63DA6B0A400092D2
:10074C00009A08215A6B25480A435A6302225B6BB4
:10075C0005920B4001930022019B03230692049304
:10076C000792089304A900F08DFE1CB010BD1C4A22
:10077C009342FAD1802309A89B04099302F0FCF957
:10078C00002801D000F01AFA124B1A6801321A60D4
:10079C00114B012A08D18021DA6B49010A43DA6333
:1007AC00DA6B0A400292029A0222596B0D481143ED
:1007BC0059635B6B04A913400393039B602304935D
:1007CC00002306930793033305920893CBE7C046A7
:1007DC00006400409401002000100240000C005006
:1007EC000068004000040050F0B58BB014220021CA
:1007FC0005A804F08DFC04210125384BE0245A6B2C
:10080C00A0270A435A635A6B24020A400092009AAA
:10081C005A6B1C310A435A635A6B314E0A4001928F
:10082C00019A5A6B1E392A435A635A6BFF052A40A8
:10083C000292029A5A6B2B480A435A635A6B0A402B
:10084C000392039A5A6B06310A435A635B6B00227C
:10085C000B4004932100049B00F0D2FE38000022D0
:10086C00214900F0CDFE00223000204900F0C8FEE6
:10087C000594002405A91B4806950794089400F0DC
:10088C0001FE1B4B380005A905930694079400F054
:10089C00F9FD154B380005A90593069507940894A6
:1008AC0000F0F0FD114B300005A905930695079457
:1008BC00089400F0E7FD0F4B300005A90593069452
:1008CC00079400F0DFFDC023064805A905930694A4
:1008DC00079400F0D7FD0BB0F0BDC04600100240ED
:1008EC000004005000080050108000008B10000025
:1008FC00030700001480000010B5134B134C0122A9
:10090C002360134B200063600023E260A36023612B
:10091C006361A361E361236200F078FE002801D0DB
:10092C0000F04CF90021200000F0C6FE002801D098
:10093C0000F044F90021200000F0E4FE002801D072
:10094C0000F03CF910BDC046005800406002002089
:10095C00BC7D701010B504009AB01422002102A8BE
:10096C0004F0D6FB4C22002107A804F0D1FB174B56
:10097C0022689A4228D1402307A8079302F0FCF87A
:10098C00002801D000F01AF90222114C1148636BB7
:10099C0002A913436363636B13400093009BC02352
:1009AC00DB01029312230393002304930593063374
:1009BC00069300F067FD8022E36BD2031343E363DD
:1009CC00E36B13400193019B1AB010BD005800401B
:1009DC00001002400004005030B5102595B03C22A8
:1009EC00002105A804F094FB2A00002101A804F0C2
:1009FC008FFB8020800001F03DFD21230593802397
:100A0C005B0206938023DB030C9303230E931D33AD
:100A1C00109380239B02119380239B0412938023B9
:100A2C0002249B0505A80D940F95139301F04EFD20
:100A3C00002801D072B6FEE7072303900490210032
:100A4C0001A80193029401F0D9FF002801D072B6DD
:100A5C00FEE715B030BD0000F0B5CFB000F0F6FAEF
:100A6C00FFF7BAFFFFF7C0FEFFF7F8FDFFF71AFE1E
:100A7C00FFF742FF00F0A4F800F042F900F076F91D
:100A8C0000F0AAF900F0C6F904F0DCF8082243499A
:100A9C0003A804F071FB424BA0271800019300F04F
:100AAC0077FC8022112312030892802205930023E5
:100ABC0092030693079309930A930B920C930D934D
:100ACC00FF0580213748090200F094FD01284AD126
:100ADC00012280213448890100F092FD80213800E8
:100AEC00890000F087FD012846D1012280212E4883
:100AFC00C90100F085FD80212B4800F07BFD012809
:100B0C0042D10122802100252748090200F078FDFE
:100B1C002821264804F0EAF8019803AA05A900F058
:100B2C004DFC234C2A0023490EA804F0CFFAA188CF
:100B3C002068012200F064FDAB009C4666461E480E
:100B4C0064232E220EA9805902F0F2FB0135A188F4
:100B5C002068002200F054FD0834042DE2D16420FA
:100B6C0000F09AFAADE780213800490000F042FD10
:100B7C000128ADD00022ACE740210B4800F03AFD33
:100B8C000128B2D00022B1E780213800C90000F062
:100B9C0031FD0128B5D00022B4E7C046865A0008C2
:100BAC00FC01002000040050000800502C5A0008E2
:100BBC0010000020555A00080000002072B6FEE715
:100BCC001048114BE02210B503608223D200C260A2
:100BDC0080225B004360002392008261FA3A8360BA
:100BEC0003614361C361036243628362FF3A03633F
:100BFC000833C262436302F011F9002801D0FFF7F9
:100C0C00DDFF10BDB40200200030014010B504001F
:100C1C0088B01422002103A804F07AFA104B226841
:100C2C009A421AD180210F4B49011A6CA0200A4319
:100C3C001A641A6CC0050A4001210192019A5A6B80
:100C4C000A435A635B6B0B400293029BE02303A99C
:100C5C000393DE3B049300F015FC08B010BDC046B6
:100C6C00003001400010024007B501210A4BC020A2
:100C7C001A6CC0000A431A641A6C0A408021009254
:100C8C00009ADA6B49050A43DA63DB6B0B4001937C
:100C9C00019B00F013FA07BD00100240FEE7FEE7CF
:100CAC007047704710B500F0E5F910BD10B502485B
:100CBC0000F010FE10BDC046701600200B490C4A07
:100CCC000300521A0B4910B50868002801D10A48D4
:100CDC0008600868C318934206D904F021FA0C2363
:100CEC0003600120404210BD0B60FCE70040000097
:100CFC000040022018030020C01A0020704700009A
:100D0C0010B5184B184C0C222360E1235B02636076
:100D1C0000232000A360E36023616261A361E361AF
:100D2C0023626362A36202F0A1FB002801D0FFF7EB
:100D3C0045FF0021200002F013FC002801D0FFF732
:100D4C003DFF0021200002F02BFC002801D0FFF712
:100D5C0035FF200002F0E6FB002801D0FFF72EFF44
:100D6C0010BDC04600440040D804002010B5184BFC
:100D7C00184C0C222360E1235B02636000232000EB
:100D8C00A360E36023616261A361E3612362636238
:100D9C00A36202F06BFB002801D0FFF70FFF0021CC
:100DAC00200002F0DDFB002801D0FFF707FF002137
:100DBC00200002F0F5FB002801D0FFF7FFFE200019
:100DCC0002F0B0FB002801D0FFF7F8FE10BDC046C2
:100DDC0000480040440400200C480D4B10B5036043
:100DEC00E1235B020C224360002342618360C360F9
:100DFC0003618361C36103624362836202F036FB69
:100E0C00002801D0FFF7DAFE10BDC046B003002069
:100E1C00005000400C480D4B10B50360E1235B0201
:100E2C000C224360002342618360C36003618361D1
:100E3C00C36103624362836202F018FB002801D095
:100E4C00FFF7BCFE10BDC0461C030020003C014057
:100E5C0010B50400A0B01422002108A804F058F921
:100E6C004C2200210DA804F053F92368474A934201
:100E7C0029D102230DA80D9301F07EFE002801D08C
:100E8C00FFF79CFE8021424B8902DA6BA0200A43BB
:100E9C00DA63DA6BC0050A400092009A0122596BA2
:100EAC00114359635B6B08A913400193019B0C23FD
:100EBC0008930A3B099300230C920A930B9300F0BE
:100ECC00E1FA20B010BD334A934226D104230DA879
:100EDC000D9301F051FE002801D0FFF76FFE802129
:100EEC002B4BC902DA6B0A43DA63DA6B0A400292C3
:100EFC00029A0222596B114359635B6B099213409E
:100F0C000393039BC0231B01089300230A930B93A9
:100F1C00043321480C9308A9D1E7204A93421AD1F3
:100F2C0080211B4B4900DA6B1D480A43DA63DA6BEC
:100F3C000A400492049A5A6BF8390A435A635B6B61
:100F4C000B400593059B0C2308930A3B0993013333
:100F5C000C9308A9B3E7134A9342B2D180210C4BEE
:100F6C008900DA6B0A43DA63DA6B0A400692069A56
:100F7C000222596B114359635B6B0992134007931F
:100F8C00079BC0239B0008930823C2E70044004042
:100F9C000010024000480040000400500050004087
:100FAC00000C0050003C01400D488546FFF7A6FEA2
:100FBC000C480D490D4A002302E0D458C4500433A8
:100FCC00C4188C42F9D30A4A0A4C002301E013607E
:100FDC000432A242FBD304F0A9F8FFF73DFDFEE773
:100FEC000040022000000020780100209C5B0008DB
:100FFC0078010020C01A0020FEE7000070B5104BED
:10100C0005001978002901D1012070BDFA2080005B
:10101C00FFF798F80B4C01002068FFF793F800F0ED
:10102C008FF8041EF0D1032DEED802000120290008
:10103C00404200F04FF8044B20001D60E5E7C0462D
:10104C003400002030000020380000208023084AA3
:10105C005B00116810B50B4303201360FFF7CEFF44
:10106C00041E03D1FFF700FE200010BD0124FBE796
:10107C0000200240034A044B11681B785B18136074
:10108C007047C0466C05002034000020014B1868E6
:10109C007047C0466C05002070B50400FFF7F6FFE2
:1010AC000500631C02D0044B1B78E418FFF7EEFF1D
:1010BC00401BA042FAD370BD34000020034A0449FF
:1010CC0013680B40034313607047C0460000014097
:1010DC00FFF9FFFF10B5FF2403220B002100024093
:1010EC00D20091409B012340C943934000280ADB66
:1010FC00C0240B4A800880008018A40002590A40C2
:10110C001343035110BD0F2210400838054A8008C4
:10111C0080008018C26911401943C161F2E7C046D2
:10112C0000E100E000ED00E0002805DB1F23184083
:10113C001E3B8340014A13607047C04600E100E04B
:10114C008022431E5204012093420DD2C021074A33
:10115C0007485360036A09061B021B0A0B43036210
:10116C0000200723906013607047C04610E000E039
:10117C0000ED00E0F8B5041E00D1CDE005005C35B3
:10118C002B78DAB2002B04D103005D331A70FFF711
:10119C00ADFA10212268082793698B439361FFF7FE
:1011AC0075FF060023689A693A4200D0A8E0012630
:1011BC009A6932439A61FFF769FF070023689A69BD
:1011CC00324200D1AAE0022299690A439A61674A25
:1011DC00934202D16168664A1160217C4022012948
:1011EC0000D0A4E0996991439961627C012A00D0F6
:1011FC00A1E080229969D2010A439A61A27C012A5A
:10120C0000D09CE09A695B490A409A619A695A48F5
:10121C00A1680240A4200A439A619A6982439A61A8
:10122C001A69943882431A61E268012A00D08BE073
:10123C009869033202439A61A269E069013A013864
:10124C00000252060243206A0138024360690138E9
:10125C0000040243DA61C022920091420ED1E26A8C
:10126C00216B013A0139090112020A43A16A0139C1
:10127C000A43616A013909040A43DA601900C03172
:10128C000A68E06B3D4E02430A603D4A98184242A0
:10129C005041D4224042920010403A4A0433D96F54
:1012AC008018626B314012040A432064DA67020032
:1012BC007032D96F6264344EA26B314012060A430D
:1012CC00DA670300B033A364D833E36498239B003C
:1012DC00C31823659E239B00C3186365D4239B000E
:1012EC00C118031DD422994200D2D33A0021920096
:1012FC0003F00EFF00200123A06520662B700CE08C
:10130C00FFF7C4FE801B0A2800D84BE70123226E8E
:10131C001343236603232B700120F8BDFFF7B6FEA1
:10132C00C01B0A2800D849E7236E3343F1E79969BB
:10133C000A439A6159E79A6914490A405DE7802289
:10134C00996952010A4360E7002A00D174E7022A26
:10135C0009D080269F693E439E611E693043186107
:10136C00032A00D068E72022986963E700640040F4
:10137C0000650040FFEFFFFFFFFCFFFFFFFFE0FFFA
:10138C000098FFBF00B40040FFFFFFF0FFBFFFFF5E
:10139C0002005C3211780300C8B2012908D1013176
:1013AC00117019688A69824300208A611866704737
:1013BC000422196E01200A431A66F8E70300F7B5F8
:1013CC005C331B78022B58D105682B00C4331C6886
:1013DC00A40206D58023026E9B00134303660120F2
:1013EC0036E01C688E68A403A30F4C6800930F684A
:1013FC000B69002C2DD13343BF048E691F43CB697D
:10140C00009C33434E693343CE6833430E6A360631
:10141C00334348266643446DA446664473600823F0
:10142C00376037005B429E1B154B08370193CC6825
:10143C00240CA4466346019CE35C9C46BB196345A3
:10144C000CD30123009ACC3593402B60836500208C
:10145C00FEBD3B4380273343FF05CEE7D3781B0605
:10146C009C46644693781B04234314782343547896
:10147C0004322402234308C7D9E70823026EACE7E1
:10148C00545B00080023F0B585B00A681400DC40FA
:10149C0001D105B0F0BD012514009D402C400094F5
:1014AC002A4200D195E04A685F00944603226446C4
:1014BC0022400324BC40E4430194541E012C2ED83A
:1014CC008668019C2640CC68BC40344384604468E8
:1014DC000126AC4325006446240934409C402C432F
:1014EC004460C568019C25408C68BC402C43C4609A
:1014FC00022A16D107250F261D40AD00AE40DC0890
:10150C00A40004190294246A03962600039CA643A3
:10151C0034000E69AE402643029C266201E0032A89
:10152C00DFD1BA400468019D25402A43C0240260E3
:10153C006246A40222424CD0274A03259C08A400F0
:10154C00A4180F221D40ED00AA40A027266EFF050F
:10155C0096430022B84210D0204F0132B8420CD032
:10156C001F4F0132B84208D01E4F0132B84204D08E
:10157C001D4A8218571EBA410432AA4067463243AC
:10158C002266154C009A2668009DD2433543FF0213
:10159C0001D435001540674625606668009D3543CB
:1015AC00BF0201D435001540674665600F4C009DA5
:1015BC00E66F3543BF0301D4350015406746E56738
:1015CC000B4C009EE56F2E43FF0301D415402E00FB
:1015DC00E667013359E7C04600180240000400508A
:1015EC0000080050000C005000F0FFAF081802403B
:1015FC000418024000690840431E9841C0B270476D
:10160C00002A01D0816170478162FCE770B504004B
:10161C000120002C3FD0250041352B78DAB2002B6D
:10162C0005D12300403320001A70FFF793F92423CF
:10163C0001212B702368E0681A68A6688A431A6037
:10164C001A4962680A401A619A6819490A409A60F4
:10165C00012821D18022120232439A605868154A1F
:10166C0002435A60DA6800200A40DA606169226934
:10167C000A43A16909020A43DA60216AE2690A4352
:10168C001A60012219680A431A60202360642B70C7
:10169C0020634234207070BD8422120232439A605F
:1016AC000228DBD1802212015A60D7E7FFFFFFF03E
:1016BC00FF7FFFFF00800002F0B504004134227868
:1016CC0003000F000220D6B2202A18D11D0040358D
:1016DC002A78012A13D0242222701B68233A196815
:1016EC000748914319601968014000201960196876
:1016FC003943196019680A431A6026702870F0BDC6
:10170C00FFEFFFFF0200F0B5413214780300E5B2A1
:10171C000220202C17D11C0040342678012E12D028
:10172C00223010701B6823381E68074F86431E60DA
:10173C001E6809023E40314319601968084318605D
:10174C00002015702070F0BDFFF0FFFF0A2382B05F
:10175C000193019B002B07D1054BC000C0180068FA
:10176C008001800D02B07047019B013BF0E7C04641
:10177C00009800400A2382B00193019B002B07D1F3
:10178C00054BC000C01840688001800D02B0704746
:10179C00019B013BF0E7C04600980040F0B5040007
:1017AC008BB00120002C37D0364D635DDAB2002BA4
:1017BC0005D1AF239B002000E25403F02FFB032341
:1017CC00002663552068266101F014FF01273300C1
:1017DC00300061688B4221D30022282610009142F0
:1017EC0039D823006A46103343CB43C243CB43C2A0
:1017FC0043CB43C21B681360A268E368616820682E
:10180C0001F000FF2300002238331A7001236355C6
:10181C00636A012B32D000200BB0F0BD3D2628228C
:10182C00B4465A43A2189444664637703C26B446D4
:10183C009444664633704826B446944466463380D6
:10184C003F26B4469444664601333070DBB2D06414
:10185C0010655065BEE733005343E3181F007E3715
:10186C00FF3738709533013F3A70F870FF3301320F
:10187C00103738607860D2B21860B0E7200000F002
:10188C00DBFDC8E7BD02000070B5AF25AD00435DC0
:10189C0004000220012B09D001236355206801F0BC
:1018AC00A1FE206802F0A0F80020605570BD70B554
:1018BC00AF25AD00435D04000220012B09D00123AC
:1018CC006355230038331970206802F087F8002024
:1018DC00605570BDF0B5040087B0006802F08BF85D
:1018EC000422D34B1B6813420ED0802580232D027B
:1018FC001B020540184201D100F0F0FB8022266843
:10190C001202736C134201D107B0F0BD0F270F22E6
:10191C00736C1F40134200D0ABE019000132114030
:10192C00134225D13368C34A20001340802212028F
:10193C001343336023003C331B78BF4ADB009B18F6
:10194C001B68226D9B019B0DA365D318236503F0C7
:10195C00C1FA230038331A78002ACFD0616D206881
:10196C000029CBD180251A782A43C2641970C5E7A7
:10197C00336880221F001201174013421BD0BE2374
:10198C005B00E05CFFF7F6FE2200B1217D32FF32F6
:10199C0089000300D06161183000928802F06CFA63
:1019AC002168A64B0A6820001A40802313430B6061
:1019BC0003F07AFAA2E71B04A0D532689F4B2500EE
:1019CC001A40802313433360BE235B00E05CFFF7B7
:1019DC00D1FE7D35FF35031EE8610ED06969002903
:1019EC000BD03000AA8802F047FA6B69EA6939001B
:1019FC009B1820006B6103F060FA206803681A05DD
:101A0C0000D57BE7C02292011340934200D175E7C9
:101A1C00894B5A6892B25A602A693E2A16D91F25F8
:101A2C0051092A4055426A41891A8A0680215D680B
:101A3C0009062A430A435A600368814A1340C022AC
:101A4C0092015A407F4B1343036057E7002A07D19A
:101A5C005A687D490A405A60802259681206E9E7A3
:101A6C00012551082A4089185A6889061143596082
:101A7C00E2E7BB000193F3181A6804926A46128AD3
:101A8C000292049A120400D48CE0282519686B4A3F
:101A9C007D431140802265190A431A602B002A00ED
:101AAC008733FF331B787D32FF32002B0ED1107839
:101ABC00FFF760FE0190002851D02B008133913547
:101ACC00FF33FF351A882968030045E01378039328
:101ADC002B008033FF331B78022B00D0E8E08023EF
:101AEC00029ADB011A400592029A95350398FF354C
:101AFC001A4200D1AEE0FFF729FE2A6803000190DC
:101B0C0082420ED200222A60039A4D489200B218EB
:101B1C00116801408020800148404A49014311600E
:101B2C0002E0121A2A60EFD0029A520608D5039AE4
:101B3C0046499200B21810680840454901431160AB
:101B4C00002B0CD02821794361180A008332913183
:101B5C00FF32FF3112880968300002F08DF928231A
:101B6C0019007943621815009935FF352868019ED4
:101B7C00083D8019A86028688019286010009530ED
:101B8C00FF300068002805D08D32FF321268964273
:101B9C0000D3AEE07B43E3187D33FF33200019788C
:101BAC0003F08BF923680193049B1B0600D4A5E674
:101BBC00019ABB00944663441A681E490A4080216E
:101BCC0009020A432821794366181A6033003F330F
:101BDC001B78012B00D0C0E0002373653300463323
:101BEC001B78002B1AD03300049A3D331B78520615
:101BFC0000D491E0002B00D082E03C3633780E4AC2
:101C0C00DB009B181A68104992B21A601A680A40D5
:101C1C001A608022196812060A431A6028237B4333
:101C2C00E3183C331978200003F054F966E6C046FB
:101C3C00A00001400F8FFF07009800408F0FFF0797
:101C4C008FBFFF0780800000FFFFFF838F8FFF0790
:101C5C00C0800000FFF78EFD2A68030001908242CD
:101C6C000ED2059A2A60039AD7489200B2181168CE
:101C7C000140802080014840D4490143116002E0BA
:101C8C00121A2A60EFD0029A520608D4039AD0494D
:101C9C009200B21810680840CE4901431160002B25
:101CAC0000D15CE72821794361180A0085324EE7A0
:101CBC00039BC7499B00F31818680840C5490143AA
:101CCC00196010788300F3181B685B0408D5FFF7C4
:101CDC003DFD0190002800D141E72B008333EEE657
:101CEC00FFF748FD0190002800D138E72B00853321
:101CFC00E5E67D31FF312068611801F0ADFE51E75A
:101D0C00012B8BD13C363378B34ADB009B181A6815
:101D1C0092B21A601A6880E7002B11D13C363378E6
:101D2C00AD4ADB009B185A68AC4992B25A605A68AB
:101D3C000A405A608022596812060A435A606DE7BD
:101D4C00012B00D06AE73C363378A34ADB009B18A2
:101D5C005A6892B25A605A68F0E733003C331D78E7
:101D6C0080230498049A5B0018401A4219D19A4AAD
:101D7C00EB009B181B68726D9B019B0D9A4202D85D
:101D8C00290070654FE7D21A7265326D3C31D2185A
:101D9C003265B26D0198D318B365611801F05CFE21
:101DAC00ACE54023029A28001A400392029A1A4288
:101DBC0000D1C2E0FFF7CAFC736D0022834200D948
:101DCC001A1A282380267B430299F601E318314026
:101DDC000E005A65002A40D13D331B78002B2DD1C3
:101DEC007D4AEB009B181A687C4892B21A601A68FC
:101DFC0002401A6080221968120611431960596852
:101E0C0089B2596059680140596059680A435A604F
:101E1C002900200003F05EF8002E00D1C2E0282338
:101E2C007B43E3183C331A78236892009B1819689B
:101E3C00674A11406A4A0A431A60B3E0012BE7D1A2
:101E4C00654AEB009B181A6892B21A601A681A60FD
:101E5C005A6892B25A605A68D9E7002908D0019A98
:101E6C00AB00D31819685A4A11405D4A0A431A60EC
:101E7C00602328229C467A43A218944463461B781C
:101E8C00012B00D08EE0936D116D1B189365D66DF0
:101E9C00D36C091811659E4227D3F61AD6652822F1
:101EAC007A43A2183D321278002A3BD14A4AED00FF
:101EBC00AD182A6892B22A603E2B22D91F201840F6
:101ECC00464270415A09121A286892060243802031
:101EDC00000602432A6028227A43A2189BB20432DD
:101EEC00D28F019801F08AFD5CE0002E03D163468D
:101EFC001E700300D3E7002360460370D3653300E4
:101F0C00CDE7002B07D12A68344802402A60802292
:101F1C0028681206DDE701205A08184012189206AC
:101F2C002868D6E7012AD6D12B4AED00AD182A68CD
:101F3C0092B22A6028681A04CBE7FFF71BFC736D7A
:101F4C00039A834200D31A1A282380267B430299D2
:101F5C00F601E31831400E005A65002A53D13D3387
:101F6C001B78002B40D11C4AEB009B181A681B48AD
:101F7C0092B21A601A6802401A608022196812061E
:101F8C0011431960596889B2596059680140596008
:101F9C0059680A435A602900200002F09BFF002E6A
:101FAC0000D13CE728237B43E3183C331A782368A1
:101FBC0092009B181A680B490A4030215140034A81
:101FCC000A431A609AE4C0468FBFFF078080000066
:101FDC008F8FFF07C080000000980040FFFFFF8339
:101FEC0080C00000BF8FFF07012BD4D17E4AEB00CD
:101FFC009B181A6892B21A601A681A605A6892B2E0
:10200C005A605A68C6E7002908D1019AAB00D31868
:10201C001968764A1140764A0A431A6060232822CE
:10202C009C467A43A218944463461B78012BB9D181
:10203C00936D116D1B189365D66DD36C09181165D2
:10204C009E4223D3F61AD66528227A43A2183D3233
:10205C001278002A37D1644AED00AD186A6892B242
:10206C006A603E2B1ED91F201840464270415A0907
:10207C00121A6868920602438020000602436A60C6
:10208C0028227A43A2189BB2063229E7002E03D1EC
:10209C0063461E700300D7E70023D36562461370B6
:1020AC003300D1E7002B07D16A68524802406A60BE
:1020BC00802268681206E1E701205A0818401218BD
:1020CC0092066868DAE7012ADAD1474AED00AD18C2
:1020DC006A6892B26A6068681A04CFE743050DD546
:1020EC0022684549536C20000B40536402F004FFF6
:1020FC0029002000FFF7DBFBFFF706FC430406D5A5
:10210C0022683E49536C0B405364FFF7FDFB802360
:10211C0001009B011940184203D022683849536CC6
:10212C00F1E7C30417D52368186C90431864082092
:10213C001A6C82431A64BD239B00E25C012A03D112
:10214C002000E15400F08BF9200002F0F9FE226827
:10215C002C49536CD7E7030510D508212368186C5C
:10216C0001431964596C284801405964196C0A439D
:10217C001A64200002F0D2FEFFF7C6FB03061ED540
:10218C0023682248596C0140BD2059648000215CB1
:10219C000029EED1196C0A431A640822196C0A43FF
:1021AC0001211A643C2221545B6D20009B081340D2
:1021BC00BE229200A35000F052F9FFF7A5FB830555
:1021CC0009D522681249536C20000B40536402F06D
:1021DC008CFEFFF799FBC00501D4FFF795FB226835
:1021EC000C49536C8FE7C046009800408F8FFF0757
:1021FC0080C00000FFFFFF83FFFB0000FFBF00005B
:10220C00FFDF0000FFEF0000FFF700007FFF000082
:10221C00FFFD0000FFFE000070B5040007200E005B
:10222C0008402821414376B26518002E1DDA01269C
:10223C003C3161183D352E700A614A780870CB70BC
:10224C00002A00D08881022B01D10023CB72AF254C
:10225C00AD00635D0220012B06D00123635520687D
:10226C0001F0E6F90020605570BD7D31FF317E35FF
:10227C0000266118FF35DEE7072270B50A4004001E
:10228C0008002821514340B26318002813DA0120BA
:10229C003C3161183D33AF251870AD000A70635D99
:1022AC000220012B06D001236355206801F0CCFAE3
:1022BC000020605570BD7D31FF317E3300206118E8
:1022CC00FF33E8E770B50724214021344C4305194E
:1022DC002E009136FF3632602A009532FF321360A1
:1022EC002B0000269933FF337D357D341E60FF357E
:1022FC001B3BFF341E7029700119006801F0ACFB08
:10230C00300070BD07230B402821594340189930E9
:10231C00FF300068704770B50724282521404D43D5
:10232C004419260022650122603663653270E3652C
:10233C0000262300A6653D333C353C341A702170D1
:10234C004119006801F088FB300070BD072243681A
:10235C0070B50A40040001209A421AD848B22823CA
:10236C00002817DA5343190001203C31E318611897
:10237C003D331870AF2501230A708B70AD00625D80
:10238C0002209A4205D06355206801F0CDFA002056
:10239C00605570BD4B431900E3187D31FF317E331E
:1023AC0000206118FF33E4E70F220B000A4041685C
:1023BC0070B5040001208A421CD828210630184030
:1023CC0041435BB26218002B15DA01233C316118D2
:1023DC003D320025AF261370B60008708D70A35DDA
:1023EC000220012B06D00123A355206801F0BCFA72
:1023FC002800A55570BD7D31FF317E320023611858
:10240C00FF32E6E730B528240D060BD50725294009
:10241C004C433C34001999B2002A07D18272818056
:10242C00002030BD4C437D34FF34F3E701221B0CFC
:10243C008272C1800381F3E702680300BF2001218F
:10244C0010B58000BD2419500020A4001855536D00
:10245C00194302235165516D0B43536510BD7047F1
:10246C008023034ADB0051680B4353607047C0461E
:10247C000070004010B5114C1149236802000B404C
:10248C0003432360802300209B009A420ED10D4B06
:10249C000D49186806235843FDF754FE8022431C4F
:1024AC00D200616908001040114200D110BD002B10
:1024BC0001D0013BF5E70320F8E7C046007000406F
:1024CC00FFF9FFFF3000002040420F00F0B5040080
:1024DC0085B0002802D1012005B0F0BD0368DB07F0
:1024EC0014D423689B0760D423681B0700D5C5E070
:1024FC0023685B0700D5F6E023689B0600D564E1F2
:10250C00236A002B00D0A5E10020E5E73822C44D5A
:10251C00AB681340EA68102B09D1D3439B0708D151
:10252C002B689B03DDD56368002BDAD1D3E7082B2E
:10253C00F6D0802263685202934211D12A68134369
:10254C002B60FEF7A3FD80270600BF022B683B42E1
:10255C00C7D1FEF79BFD801B6428F7D90320BBE78E
:10256C00A021C9028B4208D180232968DB020B43CE
:10257C002B602B681A432A60E3E72A68A9490A40B2
:10258C002A602A68A8490A402A60002BD9D1FEF794
:10259C007DFD80270600BF022B683B42A1D0FEF7D1
:1025AC0075FD801B6428F7D9D8E738229C4DAB68A1
:1025BC001340EA68102B28D103210A40022A26D1A5
:1025CC002A68520503D5E268002A00D183E76968BE
:1025DC0062699648120201400A436A60002B0CD1D2
:1025EC002B68934A93491340226913432B602B6841
:1025FC00914A9B045B0FDA400A60904B1868FEF717
:10260C00FDFC002800D16FE765E7002BD8D0E3680C
:10261C00002B20D02B68864A802713402269FF00AC
:10262C0013432B6080232A685B0013432B60FEF757
:10263C002DFD06002B683B4207D06A6863697B4915
:10264C001B020A4013436B604EE7FEF71FFD801B15
:10265C000228EFD982E72B68794A802713402B6038
:10266C00FEF714FD0600FF002B683B4200D13BE750
:10267C00FEF70CFD801B0228F6D96FE73822684D57
:10268C00AB681340182B08D12B6E9B0700D42FE797
:10269C00A369002B00D02BE71DE7A2690123002AB8
:1026AC0010D02A6E022713432B66FEF7EFFC0600B0
:1026BC002B6E3B4200D01BE7FEF7E8FC801B022888
:1026CC00F6D94BE72A6E02279A432A66FEF7DEFC00
:1026DC0006002B6E3B4200D10AE7FEF7D7FC801BAD
:1026EC000228F6D93AE738224D4DAB681340202B1F
:1026FC0008D1EB6D9B0700D4FEE6A368002B00D03D
:10270C00FAE6E8E680220021EB6B520500911342B9
:10271C0008D1EB6B1343EB63EB6B13400393039BFD
:10272C00012300938027474E7F0033683B4215D02E
:10273C00A368012B22D1EA6D1343EB65FEF7A6FCCF
:10274C0002270600EB6D3B4238D0009B012B00D0DA
:10275C00D2E6EB6B3C4A1340EB63CDE633683B436C
:10276C003360FEF793FC019033683B42E0D1FEF7F7
:10277C008DFC019BC01A0228F6D9EFE6EA6D052BF9
:10278C0005D1013B1343EB65EA6D0123D4E701212D
:10279C008A43EA65EA6D03318A43EA65002BCDD1A1
:1027AC00FEF774FC02270600EB6D3B42CDD0FEF722
:1027BC006DFC264B801B9842F6D9CFE6FEF766FCE3
:1027CC00224B801B9842BDD9C8E6E369144D002BFF
:1027DC0013D080232A68DB0313432B60FEF756FCCF
:1027EC00802706003F042B683B4200D088E6FEF7AA
:1027FC004DFC801B0228F6D9B0E62B68144A8027C2
:10280C0013402B60FEF742FC06003F042B683B4252
:10281C0000D175E6FEF73AFC801B0228F6D99DE63E
:10282C0000100240FFFFFEFFFFFFFBFFFF80FFFFDA
:10283C00FFC7FFFF300000200024F4003800002008
:10284C00FFFEFFFF00700040FFFFFFEF881300004A
:10285C00FFFFBFFF3821434DAA680A40102A53D00E
:10286C00414A022B3AD12B68802713402B60FEF78C
:10287C000DFC0600BF042B683B4229D1A16A636A98
:10288C00EA680B43394980260A401343226BB6048D
:10289C001343626B1343A26B1343E26A120213439A
:1028AC00EB6080232A685B0413432B608023EA6867
:1028BC005B051343EB60FEF7E9FB04002B68334226
:1028CC0000D021E6FEF7E2FB001B0228F6D945E614
:1028DC00FEF7DCFB801B0228CDD93FE62B68802657
:1028EC0013402B60FEF7D2FB0400B6042B68334276
:1028FC0004D1EB681E4A1340EB6005E6FEF7C6FBFD
:10290C00001B0228F2D929E6012B00D1E3E50322B2
:10291C00E868616A02408A4200D0DCE57022A16A54
:10292C0002408A4200D0D6E5FE21E26AC90101408C
:10293C001202914200D0CEE5F822216B92030240A4
:10294C008A4200D0C7E5E022616B120502408A4240
:10295C0000D0C0E5A36B400F4007C01A431E98413E
:10296C00C0B2B9E500100240FFFFFFFE8C80C11120
:10297C00FCFFFEEE382370B51D4CA2681A4205D13F
:10298C0023681C489B045B0FD84070BDA2681A409A
:10299C00082A27D0A2681A40102A17D1E368E168E8
:1029AC00DB43E5684906490F6F322D0A01311540AA
:1029BC009B0709D11048FDF7C5FBE1686843490F37
:1029CC000131FDF7BFFBE0E70A48F4E7A2681A40C3
:1029DC00202A09D0A26800201340182BD5D1FA2048
:1029EC00C001D2E70448D0E780200002CDE7C04602
:1029FC00001002400024F40000127A00F7B5040025
:102A0C000D00002801D10120FEBD0727484E336878
:102A1C003B408B422AD3226893073BD4D20748D43D
:102A2C00072733683B40AB420AD93368BB432B437F
:102A3C003360FEF72BFB019033683B40AB4268D10F
:102A4C0023683C4D5B076CD4FFF794FFAB683A49A5
:102A5C001B051B0F9B005B581F210B40D840374AAE
:102A6C00374B10601868FEF7C9FACDE73368BB43E3
:102A7C000B433360FEF70AFB019033683B40AB42DB
:102A8C00C9D0FEF703FB019BC01A2E4B9842F4D918
:102A9C000320B9E72749530704D5E0238868DB01F5
:102AAC0003438B608B6828480340A06803438B600A
:102ABC00B4E760681F4F032829D8FDF72FFB2002CD
:102ACC001C243B689B039ED50722BB68934303439E
:102ADC00BB60FEF7DBFA01903823BA681A406368D2
:102AEC00DB009A429CD0FEF7D1FA019BC01A154B21
:102AFC009842F1D9CCE73B689B01E5D483E73B686E
:102B0C005B05E1D47FE73B6E9B07DDD47BE7FB6D78
:102B1C00FAE7FEF7BBFA019BC01A0A4B98428BD915
:102B2C00B6E7AB68094A1340E2681343AB608BE726
:102B3C000020024000100240145B0008300000200E
:102B4C003800002088130000FFF0FFFFFF8FFFFF0D
:102B5C00064B07499B68074A5B045B0F9B005B585D
:102B6C001F2110680B40D8407047C046001002402F
:102B7C00F45A000830000020F0B50368040085B05A
:102B8C0000209B0352D58022974D5205EB6B009091
:102B9C00134208D1EB6B1343EB63EB6B13400393C2
:102BAC00039B012300938027904E7F0033683B43A7
:102BBC003360FEF76BFA019033683B4228D0EA6D24
:102BCC00C02310009B00216C894E18401A4218D06B
:102BDC00814216D08022EB6DE86D1900520202433F
:102BEC00EA65EA6D834831400240EA65E965DB0736
:102BFC0007D5FEF74BFA07000222EB6D134200D10A
:102C0C00E9E0EB6D226C334013430020EB6506E0EA
:102C1C00FEF73CFA019BC01A0228CDD90320009B79
:102C2C00012B03D1EB6B744A1340EB632368DA0777
:102C3C0006D503256C494A6DAA4365682A434A6543
:102C4C009A0706D50C2568494A6DAA43A5682A43FC
:102C5C004A655A0706D5302563494A6DAA43E5688B
:102C6C002A434A65DA0606D55F49644D4A6D2A4007
:102C7C0025692A434A65DA0406D55B495C4D4A6DE1
:102C8C002A4065692A434A659A0506D556495C4D22
:102C9C004A6D2A40A56A2A434A655A0506D5524907
:102CAC00584D4A6D2A40E56A2A434A659A0606D56C
:102CBC004D49554D4A6D2A40A5692A434A655A0625
:102CCC0006D54949514D4A6D2A40E5692A434A6562
:102CDC005A040FD54449256B4A6D920092082A4339
:102CEC004A658022D205954204D18022CD685202D9
:102CFC002A43CA601A0306D540253B494A6DAA43AC
:102D0C00656B2A434A659A020FD53749404E4A6D86
:102D1C00A56B32402A434A658022D203954204D1E6
:102D2C008022CD6852042A43CA605A020DD52E4D1A
:102D3C00384E696DE26B314011436965802149045D
:102D4C008A4202D1E9680A43EA601A050DD50326C6
:102D5C002549256A8A6DB2432A438A65012D04D11F
:102D6C008022CD6852022A43CA609A040DD50C26E3
:102D7C001D49656A8A6DB2432A438A65042D04D1C4
:102D8C008022CD6852022A43CA6080256D042B42F2
:102D9C000DD015491C4F8A6D666C3A4032438A65DA
:102DAC0080229201964202D1CA681543CD609B01E4
:102DBC000FD50D4AA16C936D0D4C23400B439365BD
:102DCC0080235B00994204D18023D1685B040B43C0
:102DDC00D36005B0F0BDFEF759F90F4BC01B9842FC
:102DEC0000D809E71AE7C046001002400070004006
:102DFC00FFFCFFFFFFFFFEFFFFFFFFEFFFF3FFFFF7
:102E0C00FFFFF3FFFFFFCFFFFFCFFFFFFF3FFFFFF2
:102E1C00FFFFBFFFFFFFFFFE88130000F8B50400A3
:102E2C000120002C67D0636A002B65D18222616877
:102E3C005200914200D0E36100232500A3625D356E
:102E4C002B78DAB2002B05D123005C3320001A70EA
:102E5C00FDF7DCFE022340222B702168E6680B682C
:102E6C009343E0220B60D2000023964248D9F02213
:102E7C0018001201964200D0A36282228427636854
:102E8C0052001340A2683F023A40022713432269C2
:102E9C00A5693A4013430122676917403B438027D9
:102EAC00BF002F403B43E769373217403B43276A4B
:102EBC004832174080223B43A76A920117403B439C
:102ECC00102708220B60636A2D0C3B40676B174080
:102EDC003B43F0273F013E403343042635402B4310
:102EEC0003434B60CB69084803400020CB610123AE
:102EFC0020665D342370F8BD0023236163619BE77A
:102F0C0080204001B6E7C046FFF7FFFFF8B504008C
:102F1C002569A168036829436569C2692943186852
:102F2C008B4D114328400143196059688948A569A4
:102F3C000140E068014388485960834204D08749C6
:102F4C008B4201D0216A0D439968854E314029434B
:102F5C000F259960D96AA943656A2943D9628149C9
:102F6C008B421BD10321804B5B6D0B401800022B55
:102F7C0006D008208B4203D0013B59424B419800AC
:102F8C0080231B029A4200D0B2E008285AD8FDF7E1
:102F9C00C5F8D9598E59AC5959598F0073498B4280
:102FAC000FD10C21704B02205B6D0B40082BE7D02E
:102FBC0002D8591E8B41E2E710200C2BE0D10838C7
:102FCC00DEE76B498B420BD13021674B02205B6DE6
:102FDC000B40202BD4D0ECD91020302BEFD0CFE7E6
:102FEC0064498B4200D1A9E063498B4200D1A5E032
:102FFC0062498B4200D1A1E0834216D1C0228021CC
:10300C00594B12015B6D090113408B421FD017D82D
:10301C00002B19D1FFF79CFD061E19D10020584B2F
:10302C00A36600236367A367F8BD4C4A934209D19A
:10303C00C02280214C4B92005B6D89001340E4E769
:10304C00934231D00120EAE7FFF794FCE4E74D4EC0
:10305C00626A4D4B5200D75A30003900FDF772F8B6
:10306C00032365686B438342ECD82B038342E9D37B
:10307C0000233A0030001900FDF7DAF90027060E9C
:10308C000B02334302026E0892197B4110001900A7
:10309C002A003B00FDF7CCF93C4BC2183C4B9A4242
:1030AC00D0D82368D860B9E780263602D0E7354AF5
:1030BC00616A354B49001000C95AFDF743F8656841
:1030CC0040006B08C0182900FDF73CF80200314B9A
:1030DC00103A9A42B6D80F23020000079A4393B2D3
:1030EC00400F22680343D36098E7FFF743FC2BE0C3
:1030FC000828A7D8FDF708F816A605A61CA6A6A6AC
:10310C001F002048626A204B5200D15AFDF71AF872
:10311C0065686B08C0182900FDF714F802001D4BF8
:10312C00103ABCE7FFF714FD002800D176E7E9E779
:10313C00FFF720FCF8E780200002E3E780231B0266
:10314C009A42EFD1FFF704FD021E00D166E7AFE70C
:10315C00F369FFCFFFCFFFFF0080004000840040E9
:10316C00FFF4FF1100380140001002400044004001
:10317C0000480040004C004000500040003C014022
:10318C00010001000024F400645B000800FDFFFF57
:10319C00FFFC0F00EFFF0000836A30B5DA0706D59D
:1031AC000168284C4A682240C46A22434A609A0744
:1031BC0006D50168244C4A682240046B22434A60BD
:1031CC005A0706D50168214C4A682240446B2243B9
:1031DC004A601A0706D501681D4C4A682240846B68
:1031EC0022434A60DA0606D501681A4C8A682240E6
:1031FC00C46B22438A609A0606D50168164C8A680D
:10320C002240046C22438A605A0610D50168134D83
:10321C004A68446C2A4022434A60802252039442FA
:10322C0005D14A680E4C2240846C22434A601B062E
:10323C0006D502680B4953680B40C16C0B435360B5
:10324C0030BDC046FFFFFDFFFFFFFEFFFFFFFBFF92
:10325C00FF7FFFFFFFEFFFFFFFDFFFFFFFFFEFFF32
:10326C00FFFF9FFFFFFFF7FFF8B504000D001700ED
:10327C001E002268D3692B405B1B59424B41BB4259
:10328C0001D0002029E0069B0133F3D0FDF7FEFEB0
:10329C00069B801B984201D8002B1FD1EFF31080A6
:1032AC00012282F310882168204D0B682B400B60A3
:1032BC0080F31088EFF3108082F3108821688B68FC
:1032CC0093438B6080F3108823001F3288331A607D
:1032DC005A600023032084342370F8BD23681A68D5
:1032EC005207C6D58022D96912011142C1D01A6287
:1032FC00EFF31080012282F3108821680B4D0B68CC
:10330C002B400B6080F31088EFF3108082F3108851
:10331C0021688B6893438B6080F3108822002023F4
:10332C008832136053609360D3E7C0465FFEFFFFA3
:10333C00F0B51700020087B08832059313680400BB
:10334C000D000220202B45D10138002942D0002F3E
:10335C0040D08023A1685B01994204D12369002BE2
:10336C0001D1054236D12300002690331E60212363
:10337C001360FDF78BFE230054331F80023303933D
:10338C001F808023A26804905B019A4204D12369B8
:10339C00B34201D12E001D00230056331B889AB274
:1033AC00002B0CD1059B402100932000049BFFF7C0
:1033BC005BFF00280DD12023883423600AE0059B95
:1033CC000022009380212000049BFFF74DFF002872
:1033DC0002D0032007B0F0BD2268002D0BD133883A
:1033EC000236DB05DB0D9362039B039A1B88013BC2
:1033FC009BB21380D0E72B7801359362F4E7000081
:10340C00030073B50026040090331E60FDF73EFEEA
:10341C00236805001B681B0719D423681B685B070E
:10342C000AD58021104B0022009320002B00C903E9
:10343C00FFF71AFF002815D1220000202023883224
:10344C0013605360E0662067843420700BE08021A9
:10345C00054B32000093890303002000FFF704FFA3
:10346C000028DAD0032076BDFFFFFF0170B5041EE3
:10347C0001D1012070BD050088352B68002B04D1CB
:10348C00020084321370FDF7E3FC2423012122682F
:10349C002B60136820008B431360FFF737FD012866
:1034AC00E7D0A36A002B02D02000FFF775FE23683B
:1034BC0007495A6820000A402A215A609A688A43B0
:1034CC009A60012219680A431A60FFF799FFD1E745
:1034DC00FFB7FFFFF7B50700436E04006A37002BF8
:1034EC0004D10120388068342080F7BD03680B4E6E
:1034FC009A689B680A4D5B0FF05CE95CC000019216
:10350C00FCF7AAFE019B38801B015B0FF05CE95CA9
:10351C00C000FCF7A1FE80B2E5E7C046845B000862
:10352C007C5B000870B50400843422780300022010
:10353C00012A11D01D002422012688352A601A6820
:10354C0011681068B04310600448014000205866B0
:10355C00202311602B60207070BDC046FFFFFFDF81
:10356C00F8B5050084350B0029780222012915D005
:10357C0006000121046888362232326027682268EE
:10358C008A432260A168C900C9081943A160FFF7EA
:10359C00A1FF20230022276033602A701000F8BDA1
:1035AC00F8B5050084350A0029780223012915D0C5
:1035BC0006000121046888362233336027682368AB
:1035CC008B432360A168064B19401143A160FFF7A0
:1035DC0081FF20232760336000232B701800F8BD77
:1035EC00FFFFFFF103000020014A58641A64704782
:1035FC0080BF0000036C024A134003640020704734
:10360C007F40FFFF84B010B5049201220264059341
:10361C00036C040093430364036C03919340D34005
:10362C0003640020606410BC08BC04B018470000A0
:10363C00F7B50F78CE78BB00C3181A6877480240EC
:10364C0001200190032E08D83000FCF767FD023BE7
:10365C0038358020800002430196714C714D224315
:10366C001A601A6870482A403A4322431A60FA00DA
:10367C001218887A002800D06AE0888880088000B8
:10368C0084464878002825D060461168090C090446
:10369C0011601168014311601A68520604D519684B
:1036AC00624A29400A431A60614D012E0CD0202237
:1036BC00196829404A4009E0C020C000024300209C
:1036CC000190CAE78020F8E71A682A4022431A6062
:1036DC000198FEBD604656680969360C3604566082
:1036EC005668064356605668B6B256603E291ED9D7
:1036FC001F204E090140080041424141761A516891
:10370C00B6060E4380210906314351601A685204F3
:10371C0004D51968474A29400A431A60464A196871
:10372C001140C022002F00D080229201C2E7002954
:10373C0005D15168414E314051605668E2E7012095
:10374C004E08014076185168B6060E435660DDE708
:10375C001F68022E3CD12F40BC466046384F0743B1
:10376C001F6017683F0C3F041760CF881068BF08B4
:10377C00BF000743176057683F0C3F0457600F8921
:10378C005068BF08BF00074357604A78284F9446DB
:10379C00802260462849D20100281DD11E6816429D
:1037AC0004D01E68234A2E4032431A601A6852060F
:1037BC0004D51A6815401D4A2A431A601A6811402C
:1037CC00C02292014A4022431A601A683A407DE7AF
:1037DC001C4807402743C3E71868104206D01A68F4
:1037EC002A4094466046134A02431A601A685206ED
:1037FC0004D51A6815400D4A2A431A60012E0AD0C6
:10380C0020221D683D406A4022431A601A680A4013
:10381C0014431C605CE71A683A40F5E78F89FF0790
:10382C00808000008F8FFF0700980040C080000050
:10383C00BF8FFF0780C000008FBFFF07FFFFFF8314
:10384C00808100008F8EFF07F0B50B788A7A9B0081
:10385C00C0184E782E4B002A1CD10268002E0ED0B8
:10386C00520605D501682B4A11402B4A0A430260C7
:10387C0002682A490A40134303600020F0BD520439
:10388C0005D50168234A1140254A0A4302600268A3
:10389C002449EFE780211F4A204D224CC901002EFC
:1038AC001AD106680E4204D006681D4916403143F1
:1038BC0001600168184E490603D501681140314377
:1038CC00016001680A4016430660026822401A43F0
:1038DC00026002682A40CEE70768114E0F4203D0FF
:1038EC0001681140314301600168490604D507683D
:1038FC00094917403943016001680A4016430660C4
:10390C0002682A401A43026002682240B3E7C046AC
:10391C00808000008F8FFF07C0800000BF8FFF07E3
:10392C0080C000008FBFFF070B7849789B000B4AC3
:10393C00C018002908D00168094B194010234B40CE
:10394C0013430360002070470168064B1940802325
:10395C005B014B401A430260F4E7C04680800000D4
:10396C00BF8FFF078FBFFF078B7A002B19D10B7806
:10397C004A789B00C0180368002A14D05B0605D552
:10398C000268104B1A40104B13430360CB78012B89
:10399C0007D00E4A0368134020225A400C4B1343A5
:1039AC000360002070475B0405D50268054B1A4084
:1039BC00084B13430360084A03681340C02292016A
:1039CC00EBE7C0468F8FFF07C0800000BF8FFF075B
:1039DC008080000080C000008FBFFF07002901D14C
:1039EC008023C364002070478023826D1B02134325
:1039FC00836500207047406C70470000F0B50324CD
:103A0C00D81C23401C00651EAC418008001B114CC7
:103A1C008000121916000D18A9420ED1002B0BD0E4
:103A2C0000210C006E5CCF00BE40013134438EB2DD
:103A3C00B342F7D112181460F0BD4C780F78240201
:103A4C003C438F783F042743CC78043124063C4315
:103A5C0010C6E1E700980040F0B54D7806000C0068
:103A6C008B7A85B0012D00D013E10F698D69BD42B1
:103A7C0000D93D0062690192002B1ED1ABB2A28825
:103A8C0030000199FFF7BAFF2378CA4ADB009B1874
:103A9C001A682D0492B21A601A6815431D602378B7
:103AAC00C54A9B00F3181968114030224A40C3499B
:103ABC000A431A60002005B0F0BD2278BD49900081
:103ACC00D2005218E178236A3018022900D0C9E0DC
:103ADC009F4200D3B6E00768B94B29041F40B94B8D
:103AEC0003913B430360236A5B1B23620368402002
:103AFC009C46614603400293019B5F19ABB20142A5
:103B0C0051D05068290480B250605068084350600E
:103B1C00228901993000FFF771FF236A2169002285
:103B2C0067618B4201D95A1B2B0022626278002AF2
:103B3C002DD122789F49D2005218116889B2116098
:103B4C003E2B13D91F201840454268415909091AC8
:103B5C001068890601438020000601431160E28849
:103B6C009BB239003000FFF749FF98E7002B07D1D3
:103B7C001168954801401160802110680906ECE736
:103B8C00012059081840091889061068E5E7012A30
:103B9C00E5D122788749D2005218116889B2116098
:103BAC0010681904D9E71068290480B210601068F5
:103BBC0008431060E28830000199FFF71FFF236A69
:103BCC0022696761934202D95B1B02932B00029A14
:103BDC0022626278002A29D122787649D2005218C2
:103BEC00516889B251603E2B0FD91F2018404542B5
:103BFC0068415909091A506889060143802000065A
:103C0C000143516022899BB2ABE7002B07D151686D
:103C1C006D4801405160802150680906F0E7012091
:103C2C0059081840091889065068E9E7012AE9D1B2
:103C3C0022786049D2005218516889B2516050689C
:103C4C001904DDE70568614F5C493D400D43056093
:103C5C00106880B2106015681804284310609BB27D
:103C6C00E2880DE05B1B23620068ABB22F044006B8
:103C7C0008D5506880B25060506838435060228933
:103C8C0001996FE7106880B2106015683D431560AC
:103C9C00E6E7002B32D18A6909698A4201D9531AA5
:103CAC000A00A36123784349DB005B18596889B289
:103CBC0059603E2A09D91F20510902405042424105
:103CCC00891A5A688906114307E0002A00D0C5E01A
:103CDC005A683D490A405A605968802212060A43C4
:103CEC005A6023783A4A9B00F61833681340C02276
:103CFC0092015A40314B13433360DBE6CB78022BF5
:103D0C0075D10978002D27D12A4ACB009B181A6847
:103D1C0092B21A6022693E2A31D91F3515406F4282
:103D2C007D415009401B1D688006284380252D06C7
:103D3C0028431860586880B258603E2A30D91F203A
:103D4C0010405509424250412D1A5868AA060243A8
:103D5C008020000602435A60E369002BC1D08B001F
:103D6C00F3181A681B490A408A4201D0002AB8D1BC
:103D7C001968134A1140184A0A431A60B1E7002A1D
:103D8C0007D11868104D2840186080201D68000667
:103D9C00CEE7012550081540401980061D68C7E77D
:103DAC00002A1BD15A68084802405A608022586881
:103DBC001206CFE700980040BF8FFF0780800000FD
:103DCC008F8FFF0780810000FFFFFF838F8EFF071F
:103DDC008FBFFF0740400000C08000000125500845
:103DEC002A4080185A68800610435860B4E70120B6
:103DFC00834200D05FE68A690B6900219A4201D99F
:103E0C00D11A1A00A161002D00D06AE72378184955
:103E1C00DB005B18196889B219603E2A0DD91F2086
:103E2C001040454268415109091A18688906014336
:103E3C00802000060143196038E7002A07D1196871
:103E4C000C4801401960802118680906F2E701202E
:103E5C0051081040091889061868EBE70120510831
:103E6C00024089185A6889061143596039E7C046DF
:103E7C0000980040FFFFFF83F0B50324D81C2340BB
:103E8C00114C800812191C00651EAC411600001B59
:103E9C0084000D19A9420DD1002B0AD012191068FB
:103EAC0000220400D100CC40AC54013291B28B42C0
:103EBC00F7D1F0BD01CE070A08704F70070C000E49
:103ECC008F70C8700431E5E700980040B523B0222C
:103EDC009B00C35892009B00C31870B59C580320DC
:103EEC00002C09D004329B58002B04D08025AD0047
:103EFC00605DFF2801D1002070BD044A9B68210041
:103F0C00A25C9847FF236355F5E7C0460102000009
:103F1C000A23038000487047B8000020F8B5124D02
:103F2C0082210700280000F0A8FB012106002800D0
:103F3C0000F0A3FB81210400280000F09EFB002E62
:103F4C0001D01023B371002C03D040232371002324
:103F5C006371002803D04023037100234371432372
:103F6C0028003B80F8BDC0463C00002010B5FFF790
:103F7C00D5FF10BDF8B5124D82210700280000F0C6
:103F8C007CFB01210600280000F077FB8121040056
:103F9C00280000F072FB002E01D01023B371002C0E
:103FAC0003D00023237102336371002803D0002354
:103FBC00037102334371432328003B80F8BDC04694
:103FCC003C00002070B5B526B60083590400B03310
:103FDC009B001D580320002D11D0200001F068F823
:103FEC00832381229B00E850E918A3599200B03337
:103FFC009B00E4186368A858DB689847002070BDE4
:10400C00B2239B00F7B5C2580C33C3580E009B006B
:10401C00C3180193B02301999B00CF5804000320CF
:10402C00002F16D00F23142533405D436519A86962
:10403C0000280FD028214B43D318D96CFCF708F972
:10404C000A1E07D10B00A9612000310001F01EF8F7
:10405C000020FEBD852300229B00FA50019AB0334C
:10406C00D3581B69002BF3D084228220920080004D
:10407C00B918385832009847EAE70000B523B02247
:10408C00F0B59B00C35885B09B00C31892009E5896
:10409C0002AA0D00511D0022040002A8871D0A70FF
:1040AC003A80964259D02A78944660226046104055
:1040BC0001906046104233D0019A202A49D1EA88F7
:1040CC006878002A25D0614649B2002910DAB1215E
:1040DC0089005B5831009B689847EB881A1C072BAA
:1040EC0000D90722310092B2200000F064FD0DE0EF
:1040FC0080239B00F054131C402A00D940239AB211
:10410C001A4B31002000F25400F06BFD002005B07A
:10411C00F0BDB12189005B5829009B689847F5E7F1
:10412C0068780B2815D8FBF7EFFF06F1141414145C
:10413C00141414140E1AA7239B00E35C032B08D150
:10414C0002223900D0E7A7239B00E35C0122032B5A
:10415C00CAD02900200000F007FD0320D7E7A723D1
:10416C009B00E35C032BD1D0F3E7C04601020000B7
:10417C0070B504000025812100F051FF01212000C1
:10418C00258700F04CFFBC23B5265B00E55282214D
:10419C00200000F044FFB022B600A359E5649B0058
:1041AC00E31892009A58AA4211D0B12292009B585F
:1041BC005B689847A359B0339B00185900F084FFF3
:1041CC00A359B0339B001D51AF239B00E550002039
:1041DC0070BDF8B504008720800000F071FFB52693
:1041EC000500B600002805D1A359B0339B00185127
:1041FC0002204DE087220021920000F089FFA35994
:10420C00B0339B001D51AF239B00E550237C002B4A
:10421C003FD1802381219B000222200000F0F3FE7D
:10422C000121802321879B000222200000F0EBFE5D
:10423C00BC2301265B00E652230010224E331A8069
:10424C0082210D3A0823200000F0DDFE23004C33C0
:10425C001E80812300279B00EF50D033E358B033EE
:10426C009B00E3185B681B68984785239B00EF5005
:10427C000433EF50143BEA58BA42B9D0237CBB420A
:10428C0011D180239B003100200000F008FF00209A
:10429C00F8BD402381210222200000F0B4FE012150
:1042AC0040232187C0E74023EDE7030003200029CA
:1042BC0007D0B522002092009A58B03292009B1879
:1042CC0059607047B5239B00C358B0339B001B58F3
:1042DC000320002B06D0822080001950842100205E
:1042EC0089005A507047B5239B00C358B0339B00CC
:1042FC001B580320002B03D08122002092009950E0
:10430C007047B5239B00C35810B5B0339B001A58A7
:10431C000323002A11D0852189005458023B002C1C
:10432C000BD1535084239B00D3580C3952588839E5
:10433C00C362FF3900F0AAFE2300180010BDB5239C
:10434C009B00C35810B5B0339B001A580323002AA6
:10435C000BD081239B00D258037C002B07D18023E8
:10436C009B00012100F09BFE0023180010BD402390
:10437C00F7E7030010B50320002B14D0AE24002067
:10438C00A40018510C3418510C341851814202D02D
:10439C00AD2080001950A721012089005854180025
:1043AC001A7000F0E1FD10BD13B56B460400981DAA
:1043BC0000230380033300290FD0AE239B00E15070
:1043CC00CB6A002B03D09847B4239B00E050B62255
:1043DC009200A3580133A3500023180016BD10B54A
:1043EC0000F008FE10BDAE239B00C25810B5131E82
:1043FC0002D0136898470300180010BDAE239B0031
:10440C00C35810B55B689847002800D0032010BD36
:10441C00164B70B5C5180400280000F091FBA523BD
:10442C0001229B00E2501C33E25A183BE2500F4B26
:10443C00E15C1F230B40012B08D0022B0BD0002B6F
:10444C000ED12900200000F037F970BD29002000A2
:10445C0000F092FAF9E72900200000F0C2FAF4E724
:10446C007F232000994300F0E3FDEEE7AA02000051
:10447C0070B50400100000292AD1A5239B00E35835
:10448C00032B0FD125005535FF35AB68EA689342F5
:10449C000AD99B1AAB609A4200D91A00010020007D
:1044AC0000F0AFFB002070BDA7239B00E35C032B47
:1044BC000AD1AE239B00E3581B69002B04D0B52214
:1044CC0092002000A1509847200000F0A2FBE9E7E1
:1044DC00A7239B00E35C032BE4D1AE239B00E358A2
:1044EC009B69002BDED0B52200209200A05020004A
:1044FC009847D8E770B50D0004001100002D44D189
:10450C00A5239B00C358022B0DD1C369026A9342A9
:10451C0012D99A1AC26100F05CFB2B002A00290008
:10452C00200000F0BCFDA8239B00E25C002A01D017
:10453C000022E254002070BD93420DD18269934257
:10454C000AD8A626B60083599A4205D22A00290019
:10455C0000F03FFBA551E0E7A7239B00E35C032B96
:10456C000BD1AE239B00E358DB68002B05D0B522A2
:10457C00002192002000A15098478021200000F0DB
:10458C0057FD200000F051FBCDE7A7239B00C35C37
:10459C00032BCFD1AE239B00C3585B69002BC9D032
:1045AC00B52200219200815029009847C3E7F8B545
:1045BC00A723012200219B00C254083BC150103399
:1045CC004160C150043BC1541833C35804008B42A2
:1045DC0018D10026002240231100200000F013FD0A
:1045EC00B22301275B00E75223004025FC335D66B4
:1045FC0000222B008021200000F005FD3000A78454
:10460C002562F8BD5B68002BE3D098470028E0D00A
:10461C000326DFE70174002070470000A7229200F8
:10462C00835C0349DBB2435404238354002070475A
:10463C009D020000A7229200835C042B03D1034B44
:10464C00C35CDBB2835400207047C0469D0200005F
:10465C00A72310B59B00C35C032B08D1AE239B0092
:10466C00C358002B03D0DB69002B00D098470020E7
:10467C0010BD002070470020704710B5C2788378B9
:10468C0012021A4303789A4201D8002010BD047814
:10469C000019E31844789BB2052CF4D184788C4231
:1046AC00F1D1F3E710B50400802100F0C1FC00212A
:1046BC00200000F0BDFC10BDF7B560220B780D009A
:1046CC0013401900921820390400114206D0002B17
:1046DC0010D02000FFF7E6FF002509E0B5239B0072
:1046EC00C3582900AE339B001B589B6898470500A4
:1046FC002800FEBD68780928EBD8FBF719FD0101ED
:10470C002801EAFF1801EAFF76000A00EAFFEA0036
:10471C00980000236A46D3806B88180A0138062853
:10472C00D7D8FBF7F1FC04202FD6D6495500AD2382
:10473C009B00E358207C1B686A46911D9847E988CA
:10474C00002900D1A8E06B46DA88002AC1D00B1CE6
:10475C00914200D9131C6946CB8001009AB220000B
:10476C0000F029FAB8E7AE23227C9B00E358002A1C
:10477C0006D19B6A6A46901D984702234370DEE778
:10478C00DB6AF7E7D8B20528A3D8AD239B00E35822
:10479C00FBF7C4FC03080A0C0E105B68002B98D0C6
:1047AC00207CC9E79B68F9E7DB68F7E71B69F5E74D
:1047BC005B69F3E79B69F1E7237C002B00D088E76A
:1047CC00AE236A469B00E358901D5B6B9847B6E797
:1047DC00237C002B00D07CE7AE236A469B00E35879
:1047EC00901D1B6B98470723C8E7AB88002B00D0A4
:1047FC006FE7EB88002B00D06BE76D887F2D00D91D
:10480C0067E7A726B600A35D032B00D161E7584BE1
:10481C00EDB2E5542900200000F02FFC200000F040
:10482C00F8F90223002D00D10123A35554E7A978F0
:10483C00504D2970012904D92000FFF733FF0325BF
:10484C0056E7A726B600A35DDFB2022B09D0032FD3
:10485C001AD02000FFF726FF20002978FFF7CEFDA5
:10486C00EDE7002918D0012120006160FFF7BBFDA6
:10487C0005002000002D03D0FFF714FFA75537E7E4
:10488C0000F0C7F90323D0E7002909D10223200047
:10489C00A3556160FFF7B2FD200000F0BAF91BE7E9
:1048AC0061680129F8D0C9B22000FFF7A7FD29786B
:1048BC0020006160FFF797FD051EEDD02000FFF78B
:1048CC00F1FE61682000C9B2FFF798FD0223A355E1
:1048DC000EE7EA88012A00D0FBE6A7239B00E15CE7
:1048EC00CBB2022907D8002B00D1F2E6002321001D
:1048FC00A360083133E7211D032B00D12FE7E8E635
:10490C00A7239B00E35C013B022B00D9E1E6EB887B
:10491C00022B00D0DDE6A9239B00E2580123002ADC
:10492C0000D0023321000222E3600C3117E76B88C0
:10493C00012B03D1A9229200A350ADE7022B00D08A
:10494C00C7E6A822AB8892001B0AA354A4E7A723AE
:10495C009B00E35C013B022B00D9BAE66B88012B70
:10496C0000D0B9E6A92300229B00E25094E7C04690
:10497C009E0200007005002060230A7870B5134079
:10498C0004000E00520601D5402B25D1A7239B0015
:10499C00E35C013B022B1FD83179200001291CD884
:1049AC00FFF767FE032500280CD1AE239B00E358CC
:1049BC009B68002B06D0B5229200A050310020003D
:1049CC0098470500F388002B04D1002D02D120005C
:1049DC0000F01FF9280070BD2000FFF763FE0025D2
:1049EC00F8E770B50B788A880E0060210B40040044
:1049FC00180049182038D5B208425ED0002B03D0DD
:104A0C002000FFF74FFE42E07378012B41D0032BBF
:104A1C0026D0002BF4D1A7239B00E35CD9B2022B48
:104A2C0000D168E00329EBD10F2314262B407343EC
:104A3C00E318120600D46FE09B8C002BE0D07F2390
:104A4C002B4001335E43A619802D00D171E0290063
:104A5C00200000F0FFFA002800D16FE0012369E08C
:104A6C00A7239B00E35CDAB2022B38D0032AC7D110
:104A7C007388002B08D16B0606D0F388002B03D16A
:104A8C002900200000F0D4FA200000F0C2F8002029
:104A9C0070BDA7239B00E35CDAB2022B1FD0032A64
:104AAC00AED17388002BF2D16B0603D02900200005
:104ABC0000F0C7FA200000F0ACF829002000FFF746
:104ACC00DAFD0028E3D1B5239B00E0501C3BE358F2
:104ADC009B68002BDBD0310020009847D8E76B0691
:104AEC0000D18DE72900200000F0A2FA80212000DF
:104AFC0000F09EFACBE76D0600D081E7210055311E
:104B0C00FF31120601D54139FF39002302220B6017
:104B1C00200000F050F8BAE76533FF331B88002BF8
:104B2C0000D16DE76E435536FF36A619002D00D027
:104B3C008DE70023336002223100E9E73060FAE7A9
:104B4C000B7803704B784370CB788A781B02134335
:104B5C0043804B790A791B0213438380CB798A7982
:104B6C001B021343C380704710B50400802100F072
:104B7C005FFA0021200000F05BFA10BD70B5040054
:104B8C000D00160000280DD0FBF7B6FAC3B20133A6
:104B9C005B0033802B70032300216B70013B227868
:104BAC00002A00D170BDEA545A1CD2B2023301342F
:104BBC00A954DBB2F3E71300A52210B5022492002E
:104BCC0084500A0083610021C36100F05FFA002069
:104BDC0010BD10B513000A00002100F057FA002098
:104BEC0010BD1300A52210B50324920084500200BE
:104BFC00FC32D36513660A00002100F050FA002045
:104C0C0010BD10B513000A00002100F048FA002076
:104C1C0010BDA52304229B0010B5C25000231A001E
:104C2C00190000F033FA002010BDA52305229B00CB
:104C3C0010B5C25000231A00190000F030FA002001
:104C4C0010BD000010B5114C002220001049FFF7D8
:104C5C0090FB002801D0FBF7B1FF20000D49FFF7B6
:104C6C00A3FB002801D0FBF7A9FF20000A49FFF79E
:104C7C001CFB002801D0FBF7A1FF2000FFF7AFFBC6
:104C8C00002801D0FBF79AFF10BDC0467405002028
:104C9C000C01002080000020C40000200020704780
:104CAC00002070470020704710B5054C0100200013
:104CBC00FFF719FB2000FFF742FB002010BDC04698
:104CCC007405002010B5064C002220000549FFF7A2
:104CDC00F9FA20000449FFF706FB002010BDC0467E
:104CEC007405002050080020501000200A00AF214D
:104CFC0010B5084C890003006058A83941580120B0
:104D0C00002906D119002000FFF7DCFA2000FFF77C
:104D1C00F8FA10BD74050020122301480B8070476F
:104D2C00F8000020042301480B807047F400002099
:104D3C0070B5002652008A18050FECB223003733E9
:104D4C00092D00D8073B0B704E70023100018A42CE
:104D5C00F2D170BD1A2310B50B800A4B18680A4BA0
:104D6C001B68C01800280AD0084B08221C68084988
:104D7C00FFF7DEFF042220000649FFF7D9FF0648A3
:104D8C0010BDC0469075FF1F9875FF1F9475FF1FCF
:104D9C00DA000020EA000020D800002010B5044CF6
:104DAC000A0021000348FFF7E9FE200010BDC046B1
:104DBC00501200208F5A000810B5044C0A00210034
:104DCC000348FFF7DBFE200010BDC0465012002048
:104DDC00935A000810B5044C0A0021000348FFF751
:104DEC00CDFE200010BDC04650120020A75A00086E
:104DFC0010B5044C0A0021000348FFF7BFFE200049
:104E0C0010BDC04650120020B25A0008002802D033
:104E1C00022801D0032070470120FCE710B50400E4
:104E2C0096B04C22002103A800F072F91B4B2268AB
:104E3C009A422DD1802303A85B040393FDF79CFEBB
:104E4C00002801D0FBF7BAFE8022154C9201E36BCF
:104E5C001343E363E36B134080220193019BE36BE9
:104E6C005205134216D1E36B1343E363E36B134018
:104E7C000293029BFDF7F4FAE36B0A4A1340E363D7
:104E8C00002208201100FCF725F90820FCF74CF94A
:104E9C0016B010BDFDF7E4FAF2E7C046005C004026
:104EAC0000100240FFFFFFEFB12310B59B00C118AB
:104EBC004033C058FFF7ACFA10BD28234B43C3183E
:104ECC009133FF331A68C12310B59B00C058FFF70C
:104EDC00CFFA10BD28234B43C3181A6DC12310B54C
:104EEC009B00C058FFF706FB10BDC12310B59B00FB
:104EFC00C058FFF7ADFB10BDC36870B50400022BA2
:104F0C0001D0FBF75BFEC125AD0001216059FFF715
:104F1C0081FB6059FFF74BFB70BD0000C12310B53E
:104F2C0004009B00C058FFF779FB236A002B04D0C8
:104F3C000623024A11690B43136110BD00ED00E01A
:104F4C00036A10B50400002B06D00621054A13692C
:104F5C008B431361FBF740FDC1239B00E058FFF727
:104F6C0069FB10BD00ED00E0C12370B504001F48C3
:104F7C009B00C4501E4BB225036008234360836022
:104F8C00063BC36083610023AD006051C3610362C3
:104F9C0043628362C36203634363FCF7FFFB002835
:104FAC0001D0FBF70BFE0022605911001823FDF70E
:104FBC0029FA6059582300228021FDF723FA605901
:104FCC00C02300228121FDF71DFA8823605900229D
:104FDC0001215B00FDF716FA802360590022822123
:104FEC005B00FDF70FFA002070BDC0467016002064
:104FFC00005C0040B22310B59B00C058FCF744FC89
:10500C00FFF704FF10BD10B514001A002300B224E2
:10501C00A4000059FDF700F9FFF7F8FE10BDB2230C
:10502C0010B59B00C058FDF727F9FFF7EFFE10BD38
:10503C00B22310B59B00C058FDF788F9FFF7E6FEC8
:10504C0010BDB22310B59B00C058FDF7ADF9FFF7AA
:10505C00DDFE10BDB2239B00C35848B228220028A5
:10506C0006DA7F2001404A439B183E33187870477C
:10507C004A439B187F33FF33F8E7B22310B59B00EC
:10508C00C058FCF714FCFFF7C1FE10BD10B5B224DC
:10509C00A4000059FDF73FF9FFF7B8FE10BD10B59D
:1050AC00B224A4000059FDF70DF9FFF7AFFE10BDB7
:1050BC00B22310B59B00C058FDF724F910BD0000B9
:1050CC000048704750140020704700000EB410B513
:1050DC0000240C499DB01FAB0290069007910491DF
:1050EC0009480A4904CB0591006802A901931B9455
:1050FC0000F0A8F9029B1C701DB010BC08BC03B0DA
:10510C001847C046FFFFFF7F280100200802FFFF61
:10511C0003008218934200D1704719700133F9E7EC
:10512C00014B18687047C0462801002070B5002656
:10513C000C4C0D4D641BA410A64209D1002600F0A6
:10514C0063FC0A4C0A4D641BA410A64205D170BD29
:10515C00B300EB5898470136EEE7B300EB5898478D
:10516C000136F2E7945B0008945B0008985B00083A
:10517C00945B000870477047002310B59A4200D129
:10518C0010BDCC5CC4540133F8E7000070B50500C9
:10519C000C1E10D0043C2368002B00DAE418280005
:1051AC0000F0E0F81D4A1368002B05D16360146011
:1051BC00280000F0DFF870BDA34208D92068211840
:1051CC008B42F3D119685B6809182160EEE71A006D
:1051DC005B68002B01D0A342F9D911685018A0428A
:1051EC000BD120680918501811608342E0D118685F
:1051FC005B68411811605360DAE7A04202D90C23B6
:10520C002B60D5E7206821188B4203D119685B68A5
:10521C000918216063605460CAE7C046BC1A0020BC
:10522C0070B50F4E0D0031680400002902D100F05A
:10523C0095FB30602900200000F090FB431C03D14B
:10524C0001256D42280070BD0323C51C9D43A84257
:10525C00F8D0291A200000F081FB0130F2D1EFE7E1
:10526C00B81A0020F7B50322CB1C93430833050072
:10527C001F000C2B34D20C27B94233D8280000F075
:10528C0071F8374E33681C00002C2FD139002800E0
:10529C00FFF7C6FF0400431C5FD134680094009BE9
:1052AC00002B4AD1002C52D023682800E318009917
:1052BC00019300F053FB019B834248D123682800E3
:1052CC00FF1A3900FFF7ACFF013040D02368DB191F
:1052DC00236033685A68002A33D1009B336019E08D
:1052EC00002BC9DA0C232B600020FEBD2168C91BE2
:1052FC0020D40B290AD9E2192760A34204D13260C9
:10530C0063681160536005E05A60F9E76268A34274
:10531C000ED13260280000F02DF8200007220B304F
:10532C00231D9043C21A9842DFD01B1AA350DCE70E
:10533C005A60EFE723006468A6E7009C636800935B
:10534C00ADE71A005B68A342FBD10023DAE70C231C
:10535C0028002B6000F00EF8C6E70760DAE7C046BD
:10536C00BC1A002010B50248FFF704FF10BDC04660
:10537C00B41A002010B50248FFF7FDFE10BDC04660
:10538C00B41A0020F0B58E6885B01F000C000B68B5
:10539C0002900392BE4230D80C21625E9021C9006B
:1053AC000A4228D0032021695B1A019363694343A5
:1053BC000198DD0FED187B1C1B186D10AB4200D94A
:1053CC001D00520528D529000298FFF74BFF061E39
:1053DC002CD0019A2169FFF7CFFEA289184B1A40F5
:1053EC0080231343A381019B2661F61826603E009F
:1053FC006561ED1AA560BE4200D93E0032000399EA
:10540C00206800F099FA0020A3689B1BA360236816
:10541C009B19236005B0F0BD2A00029800F0BBFA7E
:10542C00061EE0D121690298FFF7B0FE0C23012083
:10543C00029A40421360A28934331343A381E9E7F3
:10544C007FFBFFFFF0B5A1B003901D008B890F000F
:10545C0016001B0611D50B69002B0ED14021FFF74E
:10546C0001FF38603861002805D10C23039A1360C2
:10547C0001204042CFE040237B61002308AC6361F4
:10548C00203363761033A376079535002B78002BE9
:10549C0001D0252B48D1AB1B0593B5420BD0320064
:1054AC0039000398FFF76EFF013000D1AEE063695D
:1054BC00059A9B1863612B78002B00D1A6E0012282
:1054CC0000235242626004A9543252186E1C2360AD
:1054DC00E360A3601370A365544B05221800317868
:1054EC00059300F04DFA751C00281FD12268D306D5
:1054FC0004D5532304A95B1820211970130704D574
:10550C00532304A95B182B21197033782A2B16D03E
:10551C00350000210A20E3682A786E1C303A092AEB
:10552C0050D9002911D117E00135AFE7059B22684E
:10553C00C01A0123834013432E002360CCE7079B42
:10554C00191D1B680791002B01DB0B9304E05B42D8
:10555C00E3600223134323602B782E2B0CD16B7842
:10556C002A2B34D1079B02351A1D1B680792002B7E
:10557C0001DA01235B4209932D4E03223000297876
:10558C0000F0FEF9002806D04023801B83402268DF
:10559C000135134323602978062226486E1C217698
:1055AC0000F0EEF9002838D0234B002B22D1072233
:1055BC00079B07339343083307936369049A9B183B
:1055CC00636162E74343350001219B18A4E7002384
:1055DC000A201900013563602A786E1C303A092ABA
:1055EC0003D9002BC8D00991C6E7414335000123EC
:1055FC008918F1E707AA009221003A000F4B039893
:10560C0000E000BF0490049B0133D6D1BB890D98F8
:10561C005B0600D52CE721B0F0BD07AA0092210053
:10562C003A00064B039800F07BF8EBE7C05A0008F1
:10563C00C65A0008CA5A000800000000915300081E
:10564C00F7B5160001938A680B690C000090934221
:10565C0000DA13002200336043321278002A01D0A2
:10566C000133336023689B0602D533680233336001
:10567C002268062315001D401A4227D0230043330D
:10568C001B785A1E93412268920630D4220001994D
:10569C000098089D4332A847013025D00622236884
:1056AC0000251340042B05D13368E568ED1AEB4354
:1056BC00DB171D40A3682269934201DD9B1AED188C
:1056CC000026B54220D1002010E00135E368326895
:1056DC009B1AAB42D2DD2200012301990098089F4E
:1056EC001932B8470130F0D101204042FEBD3020C4
:1056FC00E1184331087021005A1C45310978A21871
:10570C00433202331170C1E7220001230199009842
:10571C00089F1A32B8470130E6D00136D1E70000B5
:10572C00F0B58BB006920A004332079305900392B2
:10573C000A7E0C00109B782A09D8622A0BD8002A02
:10574C0000D1BAE07A490491582A00D18EE02500A4
:10575C0042352A7022E0100063381528F7D8FAF782
:10576C00E7FC16001F00F6FFF6FFF6FFF6FF1F0022
:10577C00F6FFF6FFF6FFF6FF9F0036007E00F6FF01
:10578C00F6FFB000F6FF3600F6FFF6FF82002500AC
:10579C001A684235111D196013682B7001239EE0A5
:1057AC0018680968021D0D060BD506681A60002ED4
:1057BC0003DA2D23039A764213705D4B0A27049368
:1057CC0018E006681A604906F1D536B2EFE70868AA
:1057DC00196840C9050602D4400600D5B6B2196056
:1057EC00534B0A2704936F2A00D1023F2300002257
:1057FC0043331A706368A360002B06DB0421226814
:10580C00039D8A43226033430CD0039D3000390042
:10581C00FAF71EFD049B013D5B5C2B703300060008
:10582C009F42F3D9082F09D12368DB0706D562689C
:10583C0023699A4202DC3023013D2B70039B5B1BD6
:10584C002361079B210000930598069B09AAFFF78B
:10585C00F7FE013048D1012040420BB0F0BD2022B0
:10586C0009680A43226078223249049121004531AB
:10587C000A701968226840C9100602D4500600D577
:10588C00B6B21960D30702D5202313432360002E30
:10589C0001D01027AAE72022236893432360F8E75E
:1058AC001A680D68101D4969186013682E0601D519
:1058BC00196002E06D06FBD519800023039D23615E
:1058CC00BFE71A68111D196015680021280062686D
:1058DC0000F056F8002801D0401B6060636823611B
:1058EC000023039A1370ACE72A00236906990598E4
:1058FC00079DA8470130AED023689B0715D4099BA0
:10590C00E0689842A9DA1800A7E72200012306995B
:10591C000598079E1932B04701309CD00135E368D9
:10592C00099A9B1AAB42F0DCE9E70025F7E7C04681
:10593C00D15A0008E25A000810B5884202D98B18D7
:10594C00984208D300239A4207D0CC5CC45401334C
:10595C00F9E78B5C8354013AFBD210BD002370B580
:10596C00064D040008002B60FBF7A8F9431C03D17B
:10597C002B68002B00D0236070BDC046B01A0020ED
:10598C00C9B28218904201D10020704703788B4233
:10599C00FBD00130F6E7F7B506000C001500002926
:1059AC0005D11100FFF75EFC04002000FEBD002AAB
:1059BC0003D1FFF7EBFB2C00F7E700F01CF8070016
:1059CC00854202D84308AB42EFD329003000FFF7E1
:1059DC0049FC0190002801D1019CE6E72A00BD4258
:1059EC0000D93A0021000198FFF7C6FB21003000D6
:1059FC00FFF7CCFBF0E70B1F1B68181F002B01DA1D
:105A0C000B58C01870470000F8B5C046F8BC08BC6D
:105A1C009E467047F8B5C046F8BC08BC9E46704719
:105A2C0048656C6C6F2066726F6D206472762062B4
:105A3C006F6172643A20434443205472616E7370F8
:105A4C006F72742121210D0A0048656C6C6F206601
:105A5C00726F6D2064727620626F6172643A2055A9
:105A6C00415254205472616E73706F7274205B25B6
:105A7C003032645D2121210D0A0001020304050668
:105A8C000708004143530041435320566972747513
:105A9C00616C20436F6D506F72740043444320431C
:105AAC006F6E6669670043444320496E7465726685
:105ABC0061636500232D302B2000686C4C006566FB
:105ACC006745464700303132333435363738394143
